{
  "abi": [
    {
      "inputs": [
        {
          "internalType": "address",
          "name": "registryAddr",
          "type": "address"
        }
      ],
      "stateMutability": "nonpayable",
      "type": "constructor"
    },
    {
      "anonymous": false,
      "inputs": [
        {
          "indexed": true,
          "internalType": "uint256",
          "name": "batchId",
          "type": "uint256"
        },
        {
          "indexed": false,
          "internalType": "string",
          "name": "batchRef",
          "type": "string"
        }
      ],
      "name": "BatchCreated",
      "type": "event"
    },
    {
      "anonymous": false,
      "inputs": [
        {
          "indexed": true,
          "internalType": "uint256",
          "name": "batchId",
          "type": "uint256"
        },
        {
          "indexed": false,
          "internalType": "string",
          "name": "cid",
          "type": "string"
        }
      ],
      "name": "CollectorDataAdded",
      "type": "event"
    },
    {
      "anonymous": false,
      "inputs": [
        {
          "indexed": true,
          "internalType": "uint256",
          "name": "batchId",
          "type": "uint256"
        },
        {
          "indexed": false,
          "internalType": "string",
          "name": "cid",
          "type": "string"
        }
      ],
      "name": "LabDataAdded",
      "type": "event"
    },
    {
      "anonymous": false,
      "inputs": [
        {
          "indexed": true,
          "internalType": "uint256",
          "name": "batchId",
          "type": "uint256"
        },
        {
          "indexed": false,
          "internalType": "string",
          "name": "cid",
          "type": "string"
        }
      ],
      "name": "ManufacturerDataAdded",
      "type": "event"
    },
    {
      "anonymous": false,
      "inputs": [
        {
          "indexed": true,
          "internalType": "uint256",
          "name": "batchId",
          "type": "uint256"
        },
        {
          "indexed": false,
          "internalType": "string",
          "name": "cid",
          "type": "string"
        }
      ],
      "name": "MiddlemanDataAdded",
      "type": "event"
    },
    {
      "inputs": [],
      "name": "ROLE_COLLECTOR",
      "outputs": [
        {
          "internalType": "uint8",
          "name": "",
          "type": "uint8"
        }
      ],
      "stateMutability": "view",
      "type": "function"
    },
    {
      "inputs": [],
      "name": "ROLE_LAB",
      "outputs": [
        {
          "internalType": "uint8",
          "name": "",
          "type": "uint8"
        }
      ],
      "stateMutability": "view",
      "type": "function"
    },
    {
      "inputs": [],
      "name": "ROLE_MANUFACTURER",
      "outputs": [
        {
          "internalType": "uint8",
          "name": "",
          "type": "uint8"
        }
      ],
      "stateMutability": "view",
      "type": "function"
    },
    {
      "inputs": [],
      "name": "ROLE_MIDDLEMAN",
      "outputs": [
        {
          "internalType": "uint8",
          "name": "",
          "type": "uint8"
        }
      ],
      "stateMutability": "view",
      "type": "function"
    },
    {
      "inputs": [
        {
          "internalType": "uint256",
          "name": "batchId",
          "type": "uint256"
        },
        {
          "internalType": "string",
          "name": "cid",
          "type": "string"
        }
      ],
      "name": "addLabData",
      "outputs": [],
      "stateMutability": "nonpayable",
      "type": "function"
    },
    {
      "inputs": [
        {
          "internalType": "uint256",
          "name": "batchId",
          "type": "uint256"
        },
        {
          "internalType": "string",
          "name": "cid",
          "type": "string"
        }
      ],
      "name": "addManufacturerData",
      "outputs": [],
      "stateMutability": "nonpayable",
      "type": "function"
    },
    {
      "inputs": [
        {
          "internalType": "uint256",
          "name": "batchId",
          "type": "uint256"
        },
        {
          "internalType": "string",
          "name": "cid",
          "type": "string"
        }
      ],
      "name": "addMiddlemanData",
      "outputs": [],
      "stateMutability": "nonpayable",
      "type": "function"
    },
    {
      "inputs": [
        {
          "internalType": "uint256",
          "name": "",
          "type": "uint256"
        }
      ],
      "name": "batches",
      "outputs": [
        {
          "internalType": "string",
          "name": "batchRef",
          "type": "string"
        },
        {
          "internalType": "bool",
          "name": "hasCollector",
          "type": "bool"
        },
        {
          "internalType": "bool",
          "name": "hasMiddleman",
          "type": "bool"
        },
        {
          "internalType": "bool",
          "name": "hasLab",
          "type": "bool"
        },
        {
          "internalType": "bool",
          "name": "hasManufacturer",
          "type": "bool"
        }
      ],
      "stateMutability": "view",
      "type": "function"
    },
    {
      "inputs": [
        {
          "internalType": "uint256",
          "name": "",
          "type": "uint256"
        }
      ],
      "name": "collectorInfos",
      "outputs": [
        {
          "internalType": "string",
          "name": "cid",
          "type": "string"
        }
      ],
      "stateMutability": "view",
      "type": "function"
    },
    {
      "inputs": [
        {
          "internalType": "string",
          "name": "batchRef",
          "type": "string"
        },
        {
          "internalType": "string",
          "name": "collectorCid",
          "type": "string"
        }
      ],
      "name": "createBatch",
      "outputs": [
        {
          "internalType": "uint256",
          "name": "",
          "type": "uint256"
        }
      ],
      "stateMutability": "nonpayable",
      "type": "function"
    },
    {
      "inputs": [
        {
          "internalType": "uint256",
          "name": "batchId",
          "type": "uint256"
        }
      ],
      "name": "getBatchSummary",
      "outputs": [
        {
          "internalType": "string",
          "name": "",
          "type": "string"
        },
        {
          "internalType": "bool",
          "name": "",
          "type": "bool"
        },
        {
          "internalType": "bool",
          "name": "",
          "type": "bool"
        },
        {
          "internalType": "bool",
          "name": "",
          "type": "bool"
        },
        {
          "internalType": "bool",
          "name": "",
          "type": "bool"
        }
      ],
      "stateMutability": "view",
      "type": "function"
    },
    {
      "inputs": [
        {
          "internalType": "uint256",
          "name": "batchId",
          "type": "uint256"
        }
      ],
      "name": "getCollectorCID",
      "outputs": [
        {
          "internalType": "string",
          "name": "",
          "type": "string"
        }
      ],
      "stateMutability": "view",
      "type": "function"
    },
    {
      "inputs": [
        {
          "internalType": "uint256",
          "name": "batchId",
          "type": "uint256"
        }
      ],
      "name": "getFullBatch",
      "outputs": [
        {
          "internalType": "string",
          "name": "batchRef",
          "type": "string"
        },
        {
          "internalType": "string",
          "name": "collectorCid",
          "type": "string"
        },
        {
          "internalType": "string",
          "name": "middlemanCid",
          "type": "string"
        },
        {
          "internalType": "string",
          "name": "labCid",
          "type": "string"
        },
        {
          "internalType": "string",
          "name": "manufacturerCid",
          "type": "string"
        }
      ],
      "stateMutability": "view",
      "type": "function"
    },
    {
      "inputs": [
        {
          "internalType": "uint256",
          "name": "batchId",
          "type": "uint256"
        }
      ],
      "name": "getLabCID",
      "outputs": [
        {
          "internalType": "string",
          "name": "",
          "type": "string"
        }
      ],
      "stateMutability": "view",
      "type": "function"
    },
    {
      "inputs": [
        {
          "internalType": "uint256",
          "name": "batchId",
          "type": "uint256"
        }
      ],
      "name": "getMiddlemanCID",
      "outputs": [
        {
          "internalType": "string",
          "name": "",
          "type": "string"
        }
      ],
      "stateMutability": "view",
      "type": "function"
    },
    {
      "inputs": [
        {
          "internalType": "uint256",
          "name": "",
          "type": "uint256"
        }
      ],
      "name": "labInfos",
      "outputs": [
        {
          "internalType": "string",
          "name": "cid",
          "type": "string"
        }
      ],
      "stateMutability": "view",
      "type": "function"
    },
    {
      "inputs": [
        {
          "internalType": "uint256",
          "name": "",
          "type": "uint256"
        }
      ],
      "name": "manufacturerInfos",
      "outputs": [
        {
          "internalType": "string",
          "name": "cid",
          "type": "string"
        }
      ],
      "stateMutability": "view",
      "type": "function"
    },
    {
      "inputs": [
        {
          "internalType": "uint256",
          "name": "",
          "type": "uint256"
        }
      ],
      "name": "middlemanInfos",
      "outputs": [
        {
          "internalType": "string",
          "name": "cid",
          "type": "string"
        }
      ],
      "stateMutability": "view",
      "type": "function"
    },
    {
      "inputs": [],
      "name": "nextBatchId",
      "outputs": [
        {
          "internalType": "uint256",
          "name": "",
          "type": "uint256"
        }
      ],
      "stateMutability": "view",
      "type": "function"
    },
    {
      "inputs": [],
      "name": "registry",
      "outputs": [
        {
          "internalType": "contract RegisteredWorker",
          "name": "",
          "type": "address"
        }
      ],
      "stateMutability": "view",
      "type": "function"
    }
  ],
  "devdoc": {
    "kind": "dev",
    "methods": {},
    "version": 1
  },
  "evm": {
    "assembly": "    /* \"HerbData.sol\":98:4620  contract HerbDataCID {... */\n  mstore(0x40, 0x80)\n    /* \"HerbData.sol\":1347:1518  constructor(address registryAddr) {... */\n  callvalue\n  dup1\n  iszero\n  tag_1\n  jumpi\n  revert(0x00, 0x00)\ntag_1:\n  pop\n  mload(0x40)\n  sub(codesize, bytecodeSize)\n  dup1\n  bytecodeSize\n  dup4\n  codecopy\n  dup2\n  dup2\n  add\n  0x40\n  mstore\n  dup2\n  add\n  swap1\n  tag_2\n  swap2\n  swap1\n  tag_3\n  jump\t// in\ntag_2:\n    /* \"HerbData.sol\":1424:1425  0 */\n  0x00\n    /* \"HerbData.sol\":1400:1426  registryAddr != address(0) */\n  0xffffffffffffffffffffffffffffffffffffffff\n  and\n    /* \"HerbData.sol\":1400:1412  registryAddr */\n  dup2\n    /* \"HerbData.sol\":1400:1426  registryAddr != address(0) */\n  0xffffffffffffffffffffffffffffffffffffffff\n  and\n  sub\n    /* \"HerbData.sol\":1392:1458  require(registryAddr != address(0), \"HerbData: registry required\") */\n  tag_6\n  jumpi\n  mload(0x40)\n  0x08c379a000000000000000000000000000000000000000000000000000000000\n  dup2\n  mstore\n  0x04\n  add\n  tag_7\n  swap1\n  tag_8\n  jump\t// in\ntag_7:\n  mload(0x40)\n  dup1\n  swap2\n  sub\n  swap1\n  revert\ntag_6:\n    /* \"HerbData.sol\":1497:1509  registryAddr */\n  dup1\n    /* \"HerbData.sol\":1469:1477  registry */\n  0x00\n  0x00\n    /* \"HerbData.sol\":1469:1510  registry = RegisteredWorker(registryAddr) */\n  0x0100\n  exp\n  dup2\n  sload\n  dup2\n  0xffffffffffffffffffffffffffffffffffffffff\n  mul\n  not\n  and\n  swap1\n  dup4\n  0xffffffffffffffffffffffffffffffffffffffff\n  and\n  mul\n  or\n  swap1\n  sstore\n  pop\n    /* \"HerbData.sol\":1347:1518  constructor(address registryAddr) {... */\n  pop\n    /* \"HerbData.sol\":98:4620  contract HerbDataCID {... */\n  jump(tag_9)\n    /* \"#utility.yul\":88:205   */\ntag_11:\n    /* \"#utility.yul\":197:198   */\n  0x00\n    /* \"#utility.yul\":194:195   */\n  0x00\n    /* \"#utility.yul\":187:199   */\n  revert\n    /* \"#utility.yul\":334:460   */\ntag_13:\n    /* \"#utility.yul\":371:378   */\n  0x00\n    /* \"#utility.yul\":411:453   */\n  0xffffffffffffffffffffffffffffffffffffffff\n    /* \"#utility.yul\":404:409   */\n  dup3\n    /* \"#utility.yul\":400:454   */\n  and\n    /* \"#utility.yul\":389:454   */\n  swap1\n  pop\n    /* \"#utility.yul\":334:460   */\n  swap2\n  swap1\n  pop\n  jump\t// out\n    /* \"#utility.yul\":466:562   */\ntag_14:\n    /* \"#utility.yul\":503:510   */\n  0x00\n    /* \"#utility.yul\":532:556   */\n  tag_26\n    /* \"#utility.yul\":550:555   */\n  dup3\n    /* \"#utility.yul\":532:556   */\n  tag_13\n  jump\t// in\ntag_26:\n    /* \"#utility.yul\":521:556   */\n  swap1\n  pop\n    /* \"#utility.yul\":466:562   */\n  swap2\n  swap1\n  pop\n  jump\t// out\n    /* \"#utility.yul\":568:690   */\ntag_15:\n    /* \"#utility.yul\":641:665   */\n  tag_28\n    /* \"#utility.yul\":659:664   */\n  dup2\n    /* \"#utility.yul\":641:665   */\n  tag_14\n  jump\t// in\ntag_28:\n    /* \"#utility.yul\":634:639   */\n  dup2\n    /* \"#utility.yul\":631:666   */\n  eq\n    /* \"#utility.yul\":621:684   */\n  tag_29\n  jumpi\n    /* \"#utility.yul\":680:681   */\n  0x00\n    /* \"#utility.yul\":677:678   */\n  0x00\n    /* \"#utility.yul\":670:682   */\n  revert\n    /* \"#utility.yul\":621:684   */\ntag_29:\n    /* \"#utility.yul\":568:690   */\n  pop\n  jump\t// out\n    /* \"#utility.yul\":696:839   */\ntag_16:\n    /* \"#utility.yul\":753:758   */\n  0x00\n    /* \"#utility.yul\":784:790   */\n  dup2\n    /* \"#utility.yul\":778:791   */\n  mload\n    /* \"#utility.yul\":769:791   */\n  swap1\n  pop\n    /* \"#utility.yul\":800:833   */\n  tag_31\n    /* \"#utility.yul\":827:832   */\n  dup2\n    /* \"#utility.yul\":800:833   */\n  tag_15\n  jump\t// in\ntag_31:\n    /* \"#utility.yul\":696:839   */\n  swap3\n  swap2\n  pop\n  pop\n  jump\t// out\n    /* \"#utility.yul\":845:1196   */\ntag_3:\n    /* \"#utility.yul\":915:921   */\n  0x00\n    /* \"#utility.yul\":964:966   */\n  0x20\n    /* \"#utility.yul\":952:961   */\n  dup3\n    /* \"#utility.yul\":943:950   */\n  dup5\n    /* \"#utility.yul\":939:962   */\n  sub\n    /* \"#utility.yul\":935:967   */\n  slt\n    /* \"#utility.yul\":932:1051   */\n  iszero\n  tag_33\n  jumpi\n    /* \"#utility.yul\":970:1049   */\n  tag_34\n  tag_11\n  jump\t// in\ntag_34:\n    /* \"#utility.yul\":932:1051   */\ntag_33:\n    /* \"#utility.yul\":1090:1091   */\n  0x00\n    /* \"#utility.yul\":1115:1179   */\n  tag_35\n    /* \"#utility.yul\":1171:1178   */\n  dup5\n    /* \"#utility.yul\":1162:1168   */\n  dup3\n    /* \"#utility.yul\":1151:1160   */\n  dup6\n    /* \"#utility.yul\":1147:1169   */\n  add\n    /* \"#utility.yul\":1115:1179   */\n  tag_16\n  jump\t// in\ntag_35:\n    /* \"#utility.yul\":1105:1179   */\n  swap2\n  pop\n    /* \"#utility.yul\":1061:1189   */\n  pop\n    /* \"#utility.yul\":845:1196   */\n  swap3\n  swap2\n  pop\n  pop\n  jump\t// out\n    /* \"#utility.yul\":1202:1371   */\ntag_17:\n    /* \"#utility.yul\":1286:1297   */\n  0x00\n    /* \"#utility.yul\":1320:1326   */\n  dup3\n    /* \"#utility.yul\":1315:1318   */\n  dup3\n    /* \"#utility.yul\":1308:1327   */\n  mstore\n    /* \"#utility.yul\":1360:1364   */\n  0x20\n    /* \"#utility.yul\":1355:1358   */\n  dup3\n    /* \"#utility.yul\":1351:1365   */\n  add\n    /* \"#utility.yul\":1336:1365   */\n  swap1\n  pop\n    /* \"#utility.yul\":1202:1371   */\n  swap3\n  swap2\n  pop\n  pop\n  jump\t// out\n    /* \"#utility.yul\":1377:1554   */\ntag_18:\n    /* \"#utility.yul\":1517:1546   */\n  0x48657262446174613a2072656769737472792072657175697265640000000000\n    /* \"#utility.yul\":1513:1514   */\n  0x00\n    /* \"#utility.yul\":1505:1511   */\n  dup3\n    /* \"#utility.yul\":1501:1515   */\n  add\n    /* \"#utility.yul\":1494:1547   */\n  mstore\n    /* \"#utility.yul\":1377:1554   */\n  pop\n  jump\t// out\n    /* \"#utility.yul\":1560:1926   */\ntag_19:\n    /* \"#utility.yul\":1702:1705   */\n  0x00\n    /* \"#utility.yul\":1723:1790   */\n  tag_39\n    /* \"#utility.yul\":1787:1789   */\n  0x1b\n    /* \"#utility.yul\":1782:1785   */\n  dup4\n    /* \"#utility.yul\":1723:1790   */\n  tag_17\n  jump\t// in\ntag_39:\n    /* \"#utility.yul\":1716:1790   */\n  swap2\n  pop\n    /* \"#utility.yul\":1799:1892   */\n  tag_40\n    /* \"#utility.yul\":1888:1891   */\n  dup3\n    /* \"#utility.yul\":1799:1892   */\n  tag_18\n  jump\t// in\ntag_40:\n    /* \"#utility.yul\":1917:1919   */\n  0x20\n    /* \"#utility.yul\":1912:1915   */\n  dup3\n    /* \"#utility.yul\":1908:1920   */\n  add\n    /* \"#utility.yul\":1901:1920   */\n  swap1\n  pop\n    /* \"#utility.yul\":1560:1926   */\n  swap2\n  swap1\n  pop\n  jump\t// out\n    /* \"#utility.yul\":1932:2351   */\ntag_8:\n    /* \"#utility.yul\":2098:2102   */\n  0x00\n    /* \"#utility.yul\":2136:2138   */\n  0x20\n    /* \"#utility.yul\":2125:2134   */\n  dup3\n    /* \"#utility.yul\":2121:2139   */\n  add\n    /* \"#utility.yul\":2113:2139   */\n  swap1\n  pop\n    /* \"#utility.yul\":2185:2194   */\n  dup2\n    /* \"#utility.yul\":2179:2183   */\n  dup2\n    /* \"#utility.yul\":2175:2195   */\n  sub\n    /* \"#utility.yul\":2171:2172   */\n  0x00\n    /* \"#utility.yul\":2160:2169   */\n  dup4\n    /* \"#utility.yul\":2156:2173   */\n  add\n    /* \"#utility.yul\":2149:2196   */\n  mstore\n    /* \"#utility.yul\":2213:2344   */\n  tag_42\n    /* \"#utility.yul\":2339:2343   */\n  dup2\n    /* \"#utility.yul\":2213:2344   */\n  tag_19\n  jump\t// in\ntag_42:\n    /* \"#utility.yul\":2205:2344   */\n  swap1\n  pop\n    /* \"#utility.yul\":1932:2351   */\n  swap2\n  swap1\n  pop\n  jump\t// out\n    /* \"HerbData.sol\":98:4620  contract HerbDataCID {... */\ntag_9:\n  dataSize(sub_0)\n  dup1\n  dataOffset(sub_0)\n  0x00\n  codecopy\n  0x00\n  return\nstop\n\nsub_0: assembly {\n        /* \"HerbData.sol\":98:4620  contract HerbDataCID {... */\n      mstore(0x40, 0x80)\n      callvalue\n      dup1\n      iszero\n      tag_1\n      jumpi\n      revert(0x00, 0x00)\n    tag_1:\n      pop\n      jumpi(tag_2, lt(calldatasize, 0x04))\n      shr(0xe0, calldataload(0x00))\n      dup1\n      0x8462a7f8\n      gt\n      tag_23\n      jumpi\n      dup1\n      0xc64afcf0\n      gt\n      tag_24\n      jumpi\n      dup1\n      0xc64afcf0\n      eq\n      tag_18\n      jumpi\n      dup1\n      0xcbfa5a00\n      eq\n      tag_19\n      jumpi\n      dup1\n      0xe9ac2d8b\n      eq\n      tag_20\n      jumpi\n      dup1\n      0xf0a0d04b\n      eq\n      tag_21\n      jumpi\n      dup1\n      0xfc85583e\n      eq\n      tag_22\n      jumpi\n      jump(tag_2)\n    tag_24:\n      dup1\n      0x8462a7f8\n      eq\n      tag_13\n      jumpi\n      dup1\n      0x8c4de232\n      eq\n      tag_14\n      jumpi\n      dup1\n      0x92b8f021\n      eq\n      tag_15\n      jumpi\n      dup1\n      0xa2e79bae\n      eq\n      tag_16\n      jumpi\n      dup1\n      0xb32c4d8d\n      eq\n      tag_17\n      jumpi\n      jump(tag_2)\n    tag_23:\n      dup1\n      0x302d1fdf\n      gt\n      tag_25\n      jumpi\n      dup1\n      0x302d1fdf\n      eq\n      tag_8\n      jumpi\n      dup1\n      0x38e98a29\n      eq\n      tag_9\n      jumpi\n      dup1\n      0x61d06b89\n      eq\n      tag_10\n      jumpi\n      dup1\n      0x64b4cde8\n      eq\n      tag_11\n      jumpi\n      dup1\n      0x7b103999\n      eq\n      tag_12\n      jumpi\n      jump(tag_2)\n    tag_25:\n      dup1\n      0xc91e8c\n      eq\n      tag_3\n      jumpi\n      dup1\n      0x013444b5\n      eq\n      tag_4\n      jumpi\n      dup1\n      0x0da0aff7\n      eq\n      tag_5\n      jumpi\n      dup1\n      0x0ec0643e\n      eq\n      tag_6\n      jumpi\n      dup1\n      0x1ab5a7b7\n      eq\n      tag_7\n      jumpi\n    tag_2:\n      revert(0x00, 0x00)\n        /* \"HerbData.sol\":4074:4615  function getFullBatch(uint256 batchId)... */\n    tag_3:\n      tag_26\n      0x04\n      dup1\n      calldatasize\n      sub\n      dup2\n      add\n      swap1\n      tag_27\n      swap2\n      swap1\n      tag_28\n      jump\t// in\n    tag_27:\n      tag_29\n      jump\t// in\n    tag_26:\n      mload(0x40)\n      tag_30\n      swap6\n      swap5\n      swap4\n      swap3\n      swap2\n      swap1\n      tag_31\n      jump\t// in\n    tag_30:\n      mload(0x40)\n      dup1\n      swap2\n      sub\n      swap1\n      return\n        /* \"HerbData.sol\":294:328  uint8 public constant ROLE_LAB = 4 */\n    tag_4:\n      tag_32\n      tag_33\n      jump\t// in\n    tag_32:\n      mload(0x40)\n      tag_34\n      swap2\n      swap1\n      tag_35\n      jump\t// in\n    tag_34:\n      mload(0x40)\n      dup1\n      swap2\n      sub\n      swap1\n      return\n        /* \"HerbData.sol\":247:287  uint8 public constant ROLE_MIDDLEMAN = 2 */\n    tag_5:\n      tag_36\n      tag_37\n      jump\t// in\n    tag_36:\n      mload(0x40)\n      tag_38\n      swap2\n      swap1\n      tag_35\n      jump\t// in\n    tag_38:\n      mload(0x40)\n      dup1\n      swap2\n      sub\n      swap1\n      return\n        /* \"HerbData.sol\":889:932  mapping(uint256 => LabData) public labInfos */\n    tag_6:\n      tag_39\n      0x04\n      dup1\n      calldatasize\n      sub\n      dup2\n      add\n      swap1\n      tag_40\n      swap2\n      swap1\n      tag_28\n      jump\t// in\n    tag_40:\n      tag_41\n      jump\t// in\n    tag_39:\n      mload(0x40)\n      tag_42\n      swap2\n      swap1\n      tag_43\n      jump\t// in\n    tag_42:\n      mload(0x40)\n      dup1\n      swap2\n      sub\n      swap1\n      return\n        /* \"HerbData.sol\":2898:3367  function addManufacturerData(uint256 batchId, string calldata cid) external {... */\n    tag_7:\n      tag_44\n      0x04\n      dup1\n      calldatasize\n      sub\n      dup2\n      add\n      swap1\n      tag_45\n      swap2\n      swap1\n      tag_46\n      jump\t// in\n    tag_45:\n      tag_47\n      jump\t// in\n    tag_44:\n      stop\n        /* \"HerbData.sol\":2016:2473  function addMiddlemanData(uint256 batchId, string calldata cid) external {... */\n    tag_8:\n      tag_48\n      0x04\n      dup1\n      calldatasize\n      sub\n      dup2\n      add\n      swap1\n      tag_49\n      swap2\n      swap1\n      tag_46\n      jump\t// in\n    tag_49:\n      tag_50\n      jump\t// in\n    tag_48:\n      stop\n        /* \"HerbData.sol\":3407:3655  function getBatchSummary(uint256 batchId) external view returns (string memory, bool, bool, bool, bool) {... */\n    tag_9:\n      tag_51\n      0x04\n      dup1\n      calldatasize\n      sub\n      dup2\n      add\n      swap1\n      tag_52\n      swap2\n      swap1\n      tag_28\n      jump\t// in\n    tag_52:\n      tag_53\n      jump\t// in\n    tag_51:\n      mload(0x40)\n      tag_54\n      swap6\n      swap5\n      swap4\n      swap3\n      swap2\n      swap1\n      tag_55\n      jump\t// in\n    tag_54:\n      mload(0x40)\n      dup1\n      swap2\n      sub\n      swap1\n      return\n        /* \"HerbData.sol\":765:820  mapping(uint256 => CollectorData) public collectorInfos */\n    tag_10:\n      tag_56\n      0x04\n      dup1\n      calldatasize\n      sub\n      dup2\n      add\n      swap1\n      tag_57\n      swap2\n      swap1\n      tag_28\n      jump\t// in\n    tag_57:\n      tag_58\n      jump\t// in\n    tag_56:\n      mload(0x40)\n      tag_59\n      swap2\n      swap1\n      tag_43\n      jump\t// in\n    tag_59:\n      mload(0x40)\n      dup1\n      swap2\n      sub\n      swap1\n      return\n        /* \"HerbData.sol\":3804:3937  function getMiddlemanCID(uint256 batchId) external view returns (string memory) {... */\n    tag_11:\n      tag_60\n      0x04\n      dup1\n      calldatasize\n      sub\n      dup2\n      add\n      swap1\n      tag_61\n      swap2\n      swap1\n      tag_28\n      jump\t// in\n    tag_61:\n      tag_62\n      jump\t// in\n    tag_60:\n      mload(0x40)\n      tag_63\n      swap2\n      swap1\n      tag_43\n      jump\t// in\n    tag_63:\n      mload(0x40)\n      dup1\n      swap2\n      sub\n      swap1\n      return\n        /* \"HerbData.sol\":126:158  RegisteredWorker public registry */\n    tag_12:\n      tag_64\n      tag_65\n      jump\t// in\n    tag_64:\n      mload(0x40)\n      tag_66\n      swap2\n      swap1\n      tag_67\n      jump\t// in\n    tag_66:\n      mload(0x40)\n      dup1\n      swap2\n      sub\n      swap1\n      return\n        /* \"HerbData.sol\":165:191  uint256 public nextBatchId */\n    tag_13:\n      tag_68\n      tag_69\n      jump\t// in\n    tag_68:\n      mload(0x40)\n      tag_70\n      swap2\n      swap1\n      tag_71\n      jump\t// in\n    tag_70:\n      mload(0x40)\n      dup1\n      swap2\n      sub\n      swap1\n      return\n        /* \"HerbData.sol\":2481:2890  function addLabData(uint256 batchId, string calldata cid) external {... */\n    tag_14:\n      tag_72\n      0x04\n      dup1\n      calldatasize\n      sub\n      dup2\n      add\n      swap1\n      tag_73\n      swap2\n      swap1\n      tag_46\n      jump\t// in\n    tag_73:\n      tag_74\n      jump\t// in\n    tag_72:\n      stop\n        /* \"HerbData.sol\":1526:2008  function createBatch(string calldata batchRef, string calldata collectorCid) external returns (uint256) {... */\n    tag_15:\n      tag_75\n      0x04\n      dup1\n      calldatasize\n      sub\n      dup2\n      add\n      swap1\n      tag_76\n      swap2\n      swap1\n      tag_77\n      jump\t// in\n    tag_76:\n      tag_78\n      jump\t// in\n    tag_75:\n      mload(0x40)\n      tag_79\n      swap2\n      swap1\n      tag_71\n      jump\t// in\n    tag_79:\n      mload(0x40)\n      dup1\n      swap2\n      sub\n      swap1\n      return\n        /* \"HerbData.sol\":3945:4066  function getLabCID(uint256 batchId) external view returns (string memory) {... */\n    tag_16:\n      tag_80\n      0x04\n      dup1\n      calldatasize\n      sub\n      dup2\n      add\n      swap1\n      tag_81\n      swap2\n      swap1\n      tag_28\n      jump\t// in\n    tag_81:\n      tag_82\n      jump\t// in\n    tag_80:\n      mload(0x40)\n      tag_83\n      swap2\n      swap1\n      tag_43\n      jump\t// in\n    tag_83:\n      mload(0x40)\n      dup1\n      swap2\n      sub\n      swap1\n      return\n        /* \"HerbData.sol\":718:758  mapping(uint256 => Batch) public batches */\n    tag_17:\n      tag_84\n      0x04\n      dup1\n      calldatasize\n      sub\n      dup2\n      add\n      swap1\n      tag_85\n      swap2\n      swap1\n      tag_28\n      jump\t// in\n    tag_85:\n      tag_86\n      jump\t// in\n    tag_84:\n      mload(0x40)\n      tag_87\n      swap6\n      swap5\n      swap4\n      swap3\n      swap2\n      swap1\n      tag_55\n      jump\t// in\n    tag_87:\n      mload(0x40)\n      dup1\n      swap2\n      sub\n      swap1\n      return\n        /* \"HerbData.sol\":939:1000  mapping(uint256 => ManufacturerData) public manufacturerInfos */\n    tag_18:\n      tag_88\n      0x04\n      dup1\n      calldatasize\n      sub\n      dup2\n      add\n      swap1\n      tag_89\n      swap2\n      swap1\n      tag_28\n      jump\t// in\n    tag_89:\n      tag_90\n      jump\t// in\n    tag_88:\n      mload(0x40)\n      tag_91\n      swap2\n      swap1\n      tag_43\n      jump\t// in\n    tag_91:\n      mload(0x40)\n      dup1\n      swap2\n      sub\n      swap1\n      return\n        /* \"HerbData.sol\":3663:3796  function getCollectorCID(uint256 batchId) external view returns (string memory) {... */\n    tag_19:\n      tag_92\n      0x04\n      dup1\n      calldatasize\n      sub\n      dup2\n      add\n      swap1\n      tag_93\n      swap2\n      swap1\n      tag_28\n      jump\t// in\n    tag_93:\n      tag_94\n      jump\t// in\n    tag_92:\n      mload(0x40)\n      tag_95\n      swap2\n      swap1\n      tag_43\n      jump\t// in\n    tag_95:\n      mload(0x40)\n      dup1\n      swap2\n      sub\n      swap1\n      return\n        /* \"HerbData.sol\":335:378  uint8 public constant ROLE_MANUFACTURER = 8 */\n    tag_20:\n      tag_96\n      tag_97\n      jump\t// in\n    tag_96:\n      mload(0x40)\n      tag_98\n      swap2\n      swap1\n      tag_35\n      jump\t// in\n    tag_98:\n      mload(0x40)\n      dup1\n      swap2\n      sub\n      swap1\n      return\n        /* \"HerbData.sol\":200:240  uint8 public constant ROLE_COLLECTOR = 1 */\n    tag_21:\n      tag_99\n      tag_100\n      jump\t// in\n    tag_99:\n      mload(0x40)\n      tag_101\n      swap2\n      swap1\n      tag_35\n      jump\t// in\n    tag_101:\n      mload(0x40)\n      dup1\n      swap2\n      sub\n      swap1\n      return\n        /* \"HerbData.sol\":827:882  mapping(uint256 => MiddlemanData) public middlemanInfos */\n    tag_22:\n      tag_102\n      0x04\n      dup1\n      calldatasize\n      sub\n      dup2\n      add\n      swap1\n      tag_103\n      swap2\n      swap1\n      tag_28\n      jump\t// in\n    tag_103:\n      tag_104\n      jump\t// in\n    tag_102:\n      mload(0x40)\n      tag_105\n      swap2\n      swap1\n      tag_43\n      jump\t// in\n    tag_105:\n      mload(0x40)\n      dup1\n      swap2\n      sub\n      swap1\n      return\n        /* \"HerbData.sol\":4074:4615  function getFullBatch(uint256 batchId)... */\n    tag_29:\n        /* \"HerbData.sol\":4161:4183  string memory batchRef */\n      0x60\n        /* \"HerbData.sol\":4194:4220  string memory collectorCid */\n      dup1\n        /* \"HerbData.sol\":4231:4257  string memory middlemanCid */\n      0x60\n        /* \"HerbData.sol\":4268:4288  string memory labCid */\n      dup1\n        /* \"HerbData.sol\":4299:4328  string memory manufacturerCid */\n      0x60\n        /* \"HerbData.sol\":4352:4367  Batch storage b */\n      0x00\n        /* \"HerbData.sol\":4370:4377  batches */\n      0x02\n        /* \"HerbData.sol\":4370:4386  batches[batchId] */\n      0x00\n        /* \"HerbData.sol\":4378:4385  batchId */\n      dup9\n        /* \"HerbData.sol\":4370:4386  batches[batchId] */\n      dup2\n      mstore\n      0x20\n      add\n      swap1\n      dup2\n      mstore\n      0x20\n      add\n      0x00\n      keccak256\n        /* \"HerbData.sol\":4352:4386  Batch storage b = batches[batchId] */\n      swap1\n      pop\n        /* \"HerbData.sol\":4421:4422  b */\n      dup1\n        /* \"HerbData.sol\":4421:4431  b.batchRef */\n      0x00\n      add\n        /* \"HerbData.sol\":4446:4460  collectorInfos */\n      0x03\n        /* \"HerbData.sol\":4446:4469  collectorInfos[batchId] */\n      0x00\n        /* \"HerbData.sol\":4461:4468  batchId */\n      dup10\n        /* \"HerbData.sol\":4446:4469  collectorInfos[batchId] */\n      dup2\n      mstore\n      0x20\n      add\n      swap1\n      dup2\n      mstore\n      0x20\n      add\n      0x00\n      keccak256\n        /* \"HerbData.sol\":4446:4473  collectorInfos[batchId].cid */\n      0x00\n      add\n        /* \"HerbData.sol\":4488:4502  middlemanInfos */\n      0x04\n        /* \"HerbData.sol\":4488:4511  middlemanInfos[batchId] */\n      0x00\n        /* \"HerbData.sol\":4503:4510  batchId */\n      dup11\n        /* \"HerbData.sol\":4488:4511  middlemanInfos[batchId] */\n      dup2\n      mstore\n      0x20\n      add\n      swap1\n      dup2\n      mstore\n      0x20\n      add\n      0x00\n      keccak256\n        /* \"HerbData.sol\":4488:4515  middlemanInfos[batchId].cid */\n      0x00\n      add\n        /* \"HerbData.sol\":4530:4538  labInfos */\n      0x05\n        /* \"HerbData.sol\":4530:4547  labInfos[batchId] */\n      0x00\n        /* \"HerbData.sol\":4539:4546  batchId */\n      dup12\n        /* \"HerbData.sol\":4530:4547  labInfos[batchId] */\n      dup2\n      mstore\n      0x20\n      add\n      swap1\n      dup2\n      mstore\n      0x20\n      add\n      0x00\n      keccak256\n        /* \"HerbData.sol\":4530:4551  labInfos[batchId].cid */\n      0x00\n      add\n        /* \"HerbData.sol\":4566:4583  manufacturerInfos */\n      0x06\n        /* \"HerbData.sol\":4566:4592  manufacturerInfos[batchId] */\n      0x00\n        /* \"HerbData.sol\":4584:4591  batchId */\n      dup13\n        /* \"HerbData.sol\":4566:4592  manufacturerInfos[batchId] */\n      dup2\n      mstore\n      0x20\n      add\n      swap1\n      dup2\n      mstore\n      0x20\n      add\n      0x00\n      keccak256\n        /* \"HerbData.sol\":4566:4596  manufacturerInfos[batchId].cid */\n      0x00\n      add\n        /* \"HerbData.sol\":4399:4607  return (... */\n      dup5\n      dup1\n      sload\n      tag_107\n      swap1\n      tag_108\n      jump\t// in\n    tag_107:\n      dup1\n      0x1f\n      add\n      0x20\n      dup1\n      swap2\n      div\n      mul\n      0x20\n      add\n      mload(0x40)\n      swap1\n      dup2\n      add\n      0x40\n      mstore\n      dup1\n      swap3\n      swap2\n      swap1\n      dup2\n      dup2\n      mstore\n      0x20\n      add\n      dup3\n      dup1\n      sload\n      tag_109\n      swap1\n      tag_108\n      jump\t// in\n    tag_109:\n      dup1\n      iszero\n      tag_110\n      jumpi\n      dup1\n      0x1f\n      lt\n      tag_111\n      jumpi\n      0x0100\n      dup1\n      dup4\n      sload\n      div\n      mul\n      dup4\n      mstore\n      swap2\n      0x20\n      add\n      swap2\n      jump(tag_110)\n    tag_111:\n      dup3\n      add\n      swap2\n      swap1\n      0x00\n      mstore\n      keccak256(0x00, 0x20)\n      swap1\n    tag_112:\n      dup2\n      sload\n      dup2\n      mstore\n      swap1\n      0x01\n      add\n      swap1\n      0x20\n      add\n      dup1\n      dup4\n      gt\n      tag_112\n      jumpi\n      dup3\n      swap1\n      sub\n      0x1f\n      and\n      dup3\n      add\n      swap2\n    tag_110:\n      pop\n      pop\n      pop\n      pop\n      pop\n      swap5\n      pop\n      dup4\n      dup1\n      sload\n      tag_113\n      swap1\n      tag_108\n      jump\t// in\n    tag_113:\n      dup1\n      0x1f\n      add\n      0x20\n      dup1\n      swap2\n      div\n      mul\n      0x20\n      add\n      mload(0x40)\n      swap1\n      dup2\n      add\n      0x40\n      mstore\n      dup1\n      swap3\n      swap2\n      swap1\n      dup2\n      dup2\n      mstore\n      0x20\n      add\n      dup3\n      dup1\n      sload\n      tag_114\n      swap1\n      tag_108\n      jump\t// in\n    tag_114:\n      dup1\n      iszero\n      tag_115\n      jumpi\n      dup1\n      0x1f\n      lt\n      tag_116\n      jumpi\n      0x0100\n      dup1\n      dup4\n      sload\n      div\n      mul\n      dup4\n      mstore\n      swap2\n      0x20\n      add\n      swap2\n      jump(tag_115)\n    tag_116:\n      dup3\n      add\n      swap2\n      swap1\n      0x00\n      mstore\n      keccak256(0x00, 0x20)\n      swap1\n    tag_117:\n      dup2\n      sload\n      dup2\n      mstore\n      swap1\n      0x01\n      add\n      swap1\n      0x20\n      add\n      dup1\n      dup4\n      gt\n      tag_117\n      jumpi\n      dup3\n      swap1\n      sub\n      0x1f\n      and\n      dup3\n      add\n      swap2\n    tag_115:\n      pop\n      pop\n      pop\n      pop\n      pop\n      swap4\n      pop\n      dup3\n      dup1\n      sload\n      tag_118\n      swap1\n      tag_108\n      jump\t// in\n    tag_118:\n      dup1\n      0x1f\n      add\n      0x20\n      dup1\n      swap2\n      div\n      mul\n      0x20\n      add\n      mload(0x40)\n      swap1\n      dup2\n      add\n      0x40\n      mstore\n      dup1\n      swap3\n      swap2\n      swap1\n      dup2\n      dup2\n      mstore\n      0x20\n      add\n      dup3\n      dup1\n      sload\n      tag_119\n      swap1\n      tag_108\n      jump\t// in\n    tag_119:\n      dup1\n      iszero\n      tag_120\n      jumpi\n      dup1\n      0x1f\n      lt\n      tag_121\n      jumpi\n      0x0100\n      dup1\n      dup4\n      sload\n      div\n      mul\n      dup4\n      mstore\n      swap2\n      0x20\n      add\n      swap2\n      jump(tag_120)\n    tag_121:\n      dup3\n      add\n      swap2\n      swap1\n      0x00\n      mstore\n      keccak256(0x00, 0x20)\n      swap1\n    tag_122:\n      dup2\n      sload\n      dup2\n      mstore\n      swap1\n      0x01\n      add\n      swap1\n      0x20\n      add\n      dup1\n      dup4\n      gt\n      tag_122\n      jumpi\n      dup3\n      swap1\n      sub\n      0x1f\n      and\n      dup3\n      add\n      swap2\n    tag_120:\n      pop\n      pop\n      pop\n      pop\n      pop\n      swap3\n      pop\n      dup2\n      dup1\n      sload\n      tag_123\n      swap1\n      tag_108\n      jump\t// in\n    tag_123:\n      dup1\n      0x1f\n      add\n      0x20\n      dup1\n      swap2\n      div\n      mul\n      0x20\n      add\n      mload(0x40)\n      swap1\n      dup2\n      add\n      0x40\n      mstore\n      dup1\n      swap3\n      swap2\n      swap1\n      dup2\n      dup2\n      mstore\n      0x20\n      add\n      dup3\n      dup1\n      sload\n      tag_124\n      swap1\n      tag_108\n      jump\t// in\n    tag_124:\n      dup1\n      iszero\n      tag_125\n      jumpi\n      dup1\n      0x1f\n      lt\n      tag_126\n      jumpi\n      0x0100\n      dup1\n      dup4\n      sload\n      div\n      mul\n      dup4\n      mstore\n      swap2\n      0x20\n      add\n      swap2\n      jump(tag_125)\n    tag_126:\n      dup3\n      add\n      swap2\n      swap1\n      0x00\n      mstore\n      keccak256(0x00, 0x20)\n      swap1\n    tag_127:\n      dup2\n      sload\n      dup2\n      mstore\n      swap1\n      0x01\n      add\n      swap1\n      0x20\n      add\n      dup1\n      dup4\n      gt\n      tag_127\n      jumpi\n      dup3\n      swap1\n      sub\n      0x1f\n      and\n      dup3\n      add\n      swap2\n    tag_125:\n      pop\n      pop\n      pop\n      pop\n      pop\n      swap2\n      pop\n      dup1\n      dup1\n      sload\n      tag_128\n      swap1\n      tag_108\n      jump\t// in\n    tag_128:\n      dup1\n      0x1f\n      add\n      0x20\n      dup1\n      swap2\n      div\n      mul\n      0x20\n      add\n      mload(0x40)\n      swap1\n      dup2\n      add\n      0x40\n      mstore\n      dup1\n      swap3\n      swap2\n      swap1\n      dup2\n      dup2\n      mstore\n      0x20\n      add\n      dup3\n      dup1\n      sload\n      tag_129\n      swap1\n      tag_108\n      jump\t// in\n    tag_129:\n      dup1\n      iszero\n      tag_130\n      jumpi\n      dup1\n      0x1f\n      lt\n      tag_131\n      jumpi\n      0x0100\n      dup1\n      dup4\n      sload\n      div\n      mul\n      dup4\n      mstore\n      swap2\n      0x20\n      add\n      swap2\n      jump(tag_130)\n    tag_131:\n      dup3\n      add\n      swap2\n      swap1\n      0x00\n      mstore\n      keccak256(0x00, 0x20)\n      swap1\n    tag_132:\n      dup2\n      sload\n      dup2\n      mstore\n      swap1\n      0x01\n      add\n      swap1\n      0x20\n      add\n      dup1\n      dup4\n      gt\n      tag_132\n      jumpi\n      dup3\n      swap1\n      sub\n      0x1f\n      and\n      dup3\n      add\n      swap2\n    tag_130:\n      pop\n      pop\n      pop\n      pop\n      pop\n      swap1\n      pop\n      swap6\n      pop\n      swap6\n      pop\n      swap6\n      pop\n      swap6\n      pop\n      swap6\n      pop\n      pop\n        /* \"HerbData.sol\":4074:4615  function getFullBatch(uint256 batchId)... */\n      swap2\n      swap4\n      swap6\n      swap1\n      swap3\n      swap5\n      pop\n      jump\t// out\n        /* \"HerbData.sol\":294:328  uint8 public constant ROLE_LAB = 4 */\n    tag_33:\n        /* \"HerbData.sol\":327:328  4 */\n      0x04\n        /* \"HerbData.sol\":294:328  uint8 public constant ROLE_LAB = 4 */\n      dup2\n      jump\t// out\n        /* \"HerbData.sol\":247:287  uint8 public constant ROLE_MIDDLEMAN = 2 */\n    tag_37:\n        /* \"HerbData.sol\":286:287  2 */\n      0x02\n        /* \"HerbData.sol\":247:287  uint8 public constant ROLE_MIDDLEMAN = 2 */\n      dup2\n      jump\t// out\n        /* \"HerbData.sol\":889:932  mapping(uint256 => LabData) public labInfos */\n    tag_41:\n      mstore(0x20, 0x05)\n      dup1\n      0x00\n      mstore\n      keccak256(0x00, 0x40)\n      0x00\n      swap2\n      pop\n      swap1\n      pop\n      dup1\n      0x00\n      add\n      dup1\n      sload\n      tag_133\n      swap1\n      tag_108\n      jump\t// in\n    tag_133:\n      dup1\n      0x1f\n      add\n      0x20\n      dup1\n      swap2\n      div\n      mul\n      0x20\n      add\n      mload(0x40)\n      swap1\n      dup2\n      add\n      0x40\n      mstore\n      dup1\n      swap3\n      swap2\n      swap1\n      dup2\n      dup2\n      mstore\n      0x20\n      add\n      dup3\n      dup1\n      sload\n      tag_134\n      swap1\n      tag_108\n      jump\t// in\n    tag_134:\n      dup1\n      iszero\n      tag_135\n      jumpi\n      dup1\n      0x1f\n      lt\n      tag_136\n      jumpi\n      0x0100\n      dup1\n      dup4\n      sload\n      div\n      mul\n      dup4\n      mstore\n      swap2\n      0x20\n      add\n      swap2\n      jump(tag_135)\n    tag_136:\n      dup3\n      add\n      swap2\n      swap1\n      0x00\n      mstore\n      keccak256(0x00, 0x20)\n      swap1\n    tag_137:\n      dup2\n      sload\n      dup2\n      mstore\n      swap1\n      0x01\n      add\n      swap1\n      0x20\n      add\n      dup1\n      dup4\n      gt\n      tag_137\n      jumpi\n      dup3\n      swap1\n      sub\n      0x1f\n      and\n      dup3\n      add\n      swap2\n    tag_135:\n      pop\n      pop\n      pop\n      pop\n      pop\n      swap1\n      pop\n      dup2\n      jump\t// out\n        /* \"HerbData.sol\":2898:3367  function addManufacturerData(uint256 batchId, string calldata cid) external {... */\n    tag_47:\n        /* \"HerbData.sol\":3045:3046  0 */\n      0x00\n        /* \"HerbData.sol\":377:378  8 */\n      0x08\n        /* \"HerbData.sol\":2994:3002  registry */\n      0x00\n      0x00\n      swap1\n      sload\n      swap1\n      0x0100\n      exp\n      swap1\n      div\n      0xffffffffffffffffffffffffffffffffffffffff\n      and\n        /* \"HerbData.sol\":2994:3008  registry.roles */\n      0xffffffffffffffffffffffffffffffffffffffff\n      and\n      0x99374642\n        /* \"HerbData.sol\":3009:3019  msg.sender */\n      caller\n        /* \"HerbData.sol\":2994:3020  registry.roles(msg.sender) */\n      mload(0x40)\n      dup3\n      0xffffffff\n      and\n      0xe0\n      shl\n      dup2\n      mstore\n      0x04\n      add\n      tag_139\n      swap2\n      swap1\n      tag_140\n      jump\t// in\n    tag_139:\n      0x20\n      mload(0x40)\n      dup1\n      dup4\n      sub\n      dup2\n      dup7\n      gas\n      staticcall\n      iszero\n      dup1\n      iszero\n      tag_142\n      jumpi\n      returndatacopy(0x00, 0x00, returndatasize)\n      revert(0x00, returndatasize)\n    tag_142:\n      pop\n      pop\n      pop\n      pop\n      mload(0x40)\n      returndatasize\n      not(0x1f)\n      0x1f\n      dup3\n      add\n      and\n      dup3\n      add\n      dup1\n      0x40\n      mstore\n      pop\n      dup2\n      add\n      swap1\n      tag_143\n      swap2\n      swap1\n      tag_144\n      jump\t// in\n    tag_143:\n        /* \"HerbData.sol\":2994:3040  registry.roles(msg.sender) & ROLE_MANUFACTURER */\n      and\n        /* \"HerbData.sol\":2993:3046  (registry.roles(msg.sender) & ROLE_MANUFACTURER) != 0 */\n      0xff\n      and\n      sub\n        /* \"HerbData.sol\":2985:3067  require((registry.roles(msg.sender) & ROLE_MANUFACTURER) != 0, \"Not manufacturer\") */\n      tag_145\n      jumpi\n      mload(0x40)\n      0x08c379a000000000000000000000000000000000000000000000000000000000\n      dup2\n      mstore\n      0x04\n      add\n      tag_146\n      swap1\n      tag_147\n      jump\t// in\n    tag_146:\n      mload(0x40)\n      dup1\n      swap2\n      sub\n      swap1\n      revert\n    tag_145:\n        /* \"HerbData.sol\":3078:3093  Batch storage b */\n      0x00\n        /* \"HerbData.sol\":3096:3103  batches */\n      0x02\n        /* \"HerbData.sol\":3096:3112  batches[batchId] */\n      0x00\n        /* \"HerbData.sol\":3104:3111  batchId */\n      dup6\n        /* \"HerbData.sol\":3096:3112  batches[batchId] */\n      dup2\n      mstore\n      0x20\n      add\n      swap1\n      dup2\n      mstore\n      0x20\n      add\n      0x00\n      keccak256\n        /* \"HerbData.sol\":3078:3112  Batch storage b = batches[batchId] */\n      swap1\n      pop\n        /* \"HerbData.sol\":3131:3132  b */\n      dup1\n        /* \"HerbData.sol\":3131:3139  b.hasLab */\n      0x01\n      add\n      0x02\n      swap1\n      sload\n      swap1\n      0x0100\n      exp\n      swap1\n      div\n      0xff\n      and\n        /* \"HerbData.sol\":3123:3155  require(b.hasLab, \"No lab data\") */\n      tag_148\n      jumpi\n      mload(0x40)\n      0x08c379a000000000000000000000000000000000000000000000000000000000\n      dup2\n      mstore\n      0x04\n      add\n      tag_149\n      swap1\n      tag_150\n      jump\t// in\n    tag_149:\n      mload(0x40)\n      dup1\n      swap2\n      sub\n      swap1\n      revert\n    tag_148:\n        /* \"HerbData.sol\":3175:3176  b */\n      dup1\n        /* \"HerbData.sol\":3175:3192  b.hasManufacturer */\n      0x01\n      add\n      0x03\n      swap1\n      sload\n      swap1\n      0x0100\n      exp\n      swap1\n      div\n      0xff\n      and\n        /* \"HerbData.sol\":3174:3192  !b.hasManufacturer */\n      iszero\n        /* \"HerbData.sol\":3166:3210  require(!b.hasManufacturer, \"Already added\") */\n      tag_151\n      jumpi\n      mload(0x40)\n      0x08c379a000000000000000000000000000000000000000000000000000000000\n      dup2\n      mstore\n      0x04\n      add\n      tag_152\n      swap1\n      tag_153\n      jump\t// in\n    tag_152:\n      mload(0x40)\n      dup1\n      swap2\n      sub\n      swap1\n      revert\n    tag_151:\n        /* \"HerbData.sol\":3252:3273  ManufacturerData(cid) */\n      mload(0x40)\n      dup1\n      0x20\n      add\n      0x40\n      mstore\n      dup1\n        /* \"HerbData.sol\":3269:3272  cid */\n      dup5\n      dup5\n        /* \"HerbData.sol\":3252:3273  ManufacturerData(cid) */\n      dup1\n      dup1\n      0x1f\n      add\n      0x20\n      dup1\n      swap2\n      div\n      mul\n      0x20\n      add\n      mload(0x40)\n      swap1\n      dup2\n      add\n      0x40\n      mstore\n      dup1\n      swap4\n      swap3\n      swap2\n      swap1\n      dup2\n      dup2\n      mstore\n      0x20\n      add\n      dup4\n      dup4\n      dup1\n      dup3\n      dup5\n      calldatacopy\n      0x00\n      dup2\n      dup5\n      add\n      mstore\n      not(0x1f)\n      0x1f\n      dup3\n      add\n      and\n      swap1\n      pop\n      dup1\n      dup4\n      add\n      swap3\n      pop\n      pop\n      pop\n      pop\n      pop\n      pop\n      pop\n      dup2\n      mstore\n      pop\n        /* \"HerbData.sol\":3223:3240  manufacturerInfos */\n      0x06\n        /* \"HerbData.sol\":3223:3249  manufacturerInfos[batchId] */\n      0x00\n        /* \"HerbData.sol\":3241:3248  batchId */\n      dup7\n        /* \"HerbData.sol\":3223:3249  manufacturerInfos[batchId] */\n      dup2\n      mstore\n      0x20\n      add\n      swap1\n      dup2\n      mstore\n      0x20\n      add\n      0x00\n      keccak256\n        /* \"HerbData.sol\":3223:3273  manufacturerInfos[batchId] = ManufacturerData(cid) */\n      0x00\n      dup3\n      add\n      mload\n      dup2\n      0x00\n      add\n      swap1\n      dup2\n      tag_154\n      swap2\n      swap1\n      tag_155\n      jump\t// in\n    tag_154:\n      pop\n      swap1\n      pop\n      pop\n        /* \"HerbData.sol\":3304:3308  true */\n      0x01\n        /* \"HerbData.sol\":3284:3285  b */\n      dup2\n        /* \"HerbData.sol\":3284:3301  b.hasManufacturer */\n      0x01\n      add\n      0x03\n        /* \"HerbData.sol\":3284:3308  b.hasManufacturer = true */\n      0x0100\n      exp\n      dup2\n      sload\n      dup2\n      0xff\n      mul\n      not\n      and\n      swap1\n      dup4\n      iszero\n      iszero\n      mul\n      or\n      swap1\n      sstore\n      pop\n        /* \"HerbData.sol\":3346:3353  batchId */\n      dup4\n        /* \"HerbData.sol\":3324:3359  ManufacturerDataAdded(batchId, cid) */\n      0x3d04355b29c64fbfe91609eead5aa92d6a1bcfd0902ed07ba808224d0bb31be3\n        /* \"HerbData.sol\":3355:3358  cid */\n      dup5\n      dup5\n        /* \"HerbData.sol\":3324:3359  ManufacturerDataAdded(batchId, cid) */\n      mload(0x40)\n      tag_156\n      swap3\n      swap2\n      swap1\n      tag_157\n      jump\t// in\n    tag_156:\n      mload(0x40)\n      dup1\n      swap2\n      sub\n      swap1\n      log2\n        /* \"HerbData.sol\":2974:3367  {... */\n      pop\n        /* \"HerbData.sol\":2898:3367  function addManufacturerData(uint256 batchId, string calldata cid) external {... */\n      pop\n      pop\n      pop\n      jump\t// out\n        /* \"HerbData.sol\":2016:2473  function addMiddlemanData(uint256 batchId, string calldata cid) external {... */\n    tag_50:\n        /* \"HerbData.sol\":2157:2158  0 */\n      0x00\n        /* \"HerbData.sol\":286:287  2 */\n      0x02\n        /* \"HerbData.sol\":2109:2117  registry */\n      0x00\n      0x00\n      swap1\n      sload\n      swap1\n      0x0100\n      exp\n      swap1\n      div\n      0xffffffffffffffffffffffffffffffffffffffff\n      and\n        /* \"HerbData.sol\":2109:2123  registry.roles */\n      0xffffffffffffffffffffffffffffffffffffffff\n      and\n      0x99374642\n        /* \"HerbData.sol\":2124:2134  msg.sender */\n      caller\n        /* \"HerbData.sol\":2109:2135  registry.roles(msg.sender) */\n      mload(0x40)\n      dup3\n      0xffffffff\n      and\n      0xe0\n      shl\n      dup2\n      mstore\n      0x04\n      add\n      tag_159\n      swap2\n      swap1\n      tag_140\n      jump\t// in\n    tag_159:\n      0x20\n      mload(0x40)\n      dup1\n      dup4\n      sub\n      dup2\n      dup7\n      gas\n      staticcall\n      iszero\n      dup1\n      iszero\n      tag_161\n      jumpi\n      returndatacopy(0x00, 0x00, returndatasize)\n      revert(0x00, returndatasize)\n    tag_161:\n      pop\n      pop\n      pop\n      pop\n      mload(0x40)\n      returndatasize\n      not(0x1f)\n      0x1f\n      dup3\n      add\n      and\n      dup3\n      add\n      dup1\n      0x40\n      mstore\n      pop\n      dup2\n      add\n      swap1\n      tag_162\n      swap2\n      swap1\n      tag_144\n      jump\t// in\n    tag_162:\n        /* \"HerbData.sol\":2109:2152  registry.roles(msg.sender) & ROLE_MIDDLEMAN */\n      and\n        /* \"HerbData.sol\":2108:2158  (registry.roles(msg.sender) & ROLE_MIDDLEMAN) != 0 */\n      0xff\n      and\n      sub\n        /* \"HerbData.sol\":2100:2176  require((registry.roles(msg.sender) & ROLE_MIDDLEMAN) != 0, \"Not middleman\") */\n      tag_163\n      jumpi\n      mload(0x40)\n      0x08c379a000000000000000000000000000000000000000000000000000000000\n      dup2\n      mstore\n      0x04\n      add\n      tag_164\n      swap1\n      tag_165\n      jump\t// in\n    tag_164:\n      mload(0x40)\n      dup1\n      swap2\n      sub\n      swap1\n      revert\n    tag_163:\n        /* \"HerbData.sol\":2187:2202  Batch storage b */\n      0x00\n        /* \"HerbData.sol\":2205:2212  batches */\n      0x02\n        /* \"HerbData.sol\":2205:2221  batches[batchId] */\n      0x00\n        /* \"HerbData.sol\":2213:2220  batchId */\n      dup6\n        /* \"HerbData.sol\":2205:2221  batches[batchId] */\n      dup2\n      mstore\n      0x20\n      add\n      swap1\n      dup2\n      mstore\n      0x20\n      add\n      0x00\n      keccak256\n        /* \"HerbData.sol\":2187:2221  Batch storage b = batches[batchId] */\n      swap1\n      pop\n        /* \"HerbData.sol\":2240:2241  b */\n      dup1\n        /* \"HerbData.sol\":2240:2254  b.hasCollector */\n      0x01\n      add\n      0x00\n      swap1\n      sload\n      swap1\n      0x0100\n      exp\n      swap1\n      div\n      0xff\n      and\n        /* \"HerbData.sol\":2232:2276  require(b.hasCollector, \"No collector data\") */\n      tag_166\n      jumpi\n      mload(0x40)\n      0x08c379a000000000000000000000000000000000000000000000000000000000\n      dup2\n      mstore\n      0x04\n      add\n      tag_167\n      swap1\n      tag_168\n      jump\t// in\n    tag_167:\n      mload(0x40)\n      dup1\n      swap2\n      sub\n      swap1\n      revert\n    tag_166:\n        /* \"HerbData.sol\":2296:2297  b */\n      dup1\n        /* \"HerbData.sol\":2296:2310  b.hasMiddleman */\n      0x01\n      add\n      0x01\n      swap1\n      sload\n      swap1\n      0x0100\n      exp\n      swap1\n      div\n      0xff\n      and\n        /* \"HerbData.sol\":2295:2310  !b.hasMiddleman */\n      iszero\n        /* \"HerbData.sol\":2287:2328  require(!b.hasMiddleman, \"Already added\") */\n      tag_169\n      jumpi\n      mload(0x40)\n      0x08c379a000000000000000000000000000000000000000000000000000000000\n      dup2\n      mstore\n      0x04\n      add\n      tag_170\n      swap1\n      tag_153\n      jump\t// in\n    tag_170:\n      mload(0x40)\n      dup1\n      swap2\n      sub\n      swap1\n      revert\n    tag_169:\n        /* \"HerbData.sol\":2367:2385  MiddlemanData(cid) */\n      mload(0x40)\n      dup1\n      0x20\n      add\n      0x40\n      mstore\n      dup1\n        /* \"HerbData.sol\":2381:2384  cid */\n      dup5\n      dup5\n        /* \"HerbData.sol\":2367:2385  MiddlemanData(cid) */\n      dup1\n      dup1\n      0x1f\n      add\n      0x20\n      dup1\n      swap2\n      div\n      mul\n      0x20\n      add\n      mload(0x40)\n      swap1\n      dup2\n      add\n      0x40\n      mstore\n      dup1\n      swap4\n      swap3\n      swap2\n      swap1\n      dup2\n      dup2\n      mstore\n      0x20\n      add\n      dup4\n      dup4\n      dup1\n      dup3\n      dup5\n      calldatacopy\n      0x00\n      dup2\n      dup5\n      add\n      mstore\n      not(0x1f)\n      0x1f\n      dup3\n      add\n      and\n      swap1\n      pop\n      dup1\n      dup4\n      add\n      swap3\n      pop\n      pop\n      pop\n      pop\n      pop\n      pop\n      pop\n      dup2\n      mstore\n      pop\n        /* \"HerbData.sol\":2341:2355  middlemanInfos */\n      0x04\n        /* \"HerbData.sol\":2341:2364  middlemanInfos[batchId] */\n      0x00\n        /* \"HerbData.sol\":2356:2363  batchId */\n      dup7\n        /* \"HerbData.sol\":2341:2364  middlemanInfos[batchId] */\n      dup2\n      mstore\n      0x20\n      add\n      swap1\n      dup2\n      mstore\n      0x20\n      add\n      0x00\n      keccak256\n        /* \"HerbData.sol\":2341:2385  middlemanInfos[batchId] = MiddlemanData(cid) */\n      0x00\n      dup3\n      add\n      mload\n      dup2\n      0x00\n      add\n      swap1\n      dup2\n      tag_171\n      swap2\n      swap1\n      tag_155\n      jump\t// in\n    tag_171:\n      pop\n      swap1\n      pop\n      pop\n        /* \"HerbData.sol\":2413:2417  true */\n      0x01\n        /* \"HerbData.sol\":2396:2397  b */\n      dup2\n        /* \"HerbData.sol\":2396:2410  b.hasMiddleman */\n      0x01\n      add\n      0x01\n        /* \"HerbData.sol\":2396:2417  b.hasMiddleman = true */\n      0x0100\n      exp\n      dup2\n      sload\n      dup2\n      0xff\n      mul\n      not\n      and\n      swap1\n      dup4\n      iszero\n      iszero\n      mul\n      or\n      swap1\n      sstore\n      pop\n        /* \"HerbData.sol\":2452:2459  batchId */\n      dup4\n        /* \"HerbData.sol\":2433:2465  MiddlemanDataAdded(batchId, cid) */\n      0x5148daa68469b25c705ba6ba110a8e2bde01213580d8d47a383c6b96b9aa17e3\n        /* \"HerbData.sol\":2461:2464  cid */\n      dup5\n      dup5\n        /* \"HerbData.sol\":2433:2465  MiddlemanDataAdded(batchId, cid) */\n      mload(0x40)\n      tag_172\n      swap3\n      swap2\n      swap1\n      tag_157\n      jump\t// in\n    tag_172:\n      mload(0x40)\n      dup1\n      swap2\n      sub\n      swap1\n      log2\n        /* \"HerbData.sol\":2089:2473  {... */\n      pop\n        /* \"HerbData.sol\":2016:2473  function addMiddlemanData(uint256 batchId, string calldata cid) external {... */\n      pop\n      pop\n      pop\n      jump\t// out\n        /* \"HerbData.sol\":3407:3655  function getBatchSummary(uint256 batchId) external view returns (string memory, bool, bool, bool, bool) {... */\n    tag_53:\n        /* \"HerbData.sol\":3472:3485  string memory */\n      0x60\n        /* \"HerbData.sol\":3487:3491  bool */\n      0x00\n        /* \"HerbData.sol\":3493:3497  bool */\n      0x00\n        /* \"HerbData.sol\":3499:3503  bool */\n      0x00\n        /* \"HerbData.sol\":3505:3509  bool */\n      0x00\n        /* \"HerbData.sol\":3522:3537  Batch storage b */\n      0x00\n        /* \"HerbData.sol\":3540:3547  batches */\n      0x02\n        /* \"HerbData.sol\":3540:3556  batches[batchId] */\n      0x00\n        /* \"HerbData.sol\":3548:3555  batchId */\n      dup9\n        /* \"HerbData.sol\":3540:3556  batches[batchId] */\n      dup2\n      mstore\n      0x20\n      add\n      swap1\n      dup2\n      mstore\n      0x20\n      add\n      0x00\n      keccak256\n        /* \"HerbData.sol\":3522:3556  Batch storage b = batches[batchId] */\n      swap1\n      pop\n        /* \"HerbData.sol\":3575:3576  b */\n      dup1\n        /* \"HerbData.sol\":3575:3585  b.batchRef */\n      0x00\n      add\n        /* \"HerbData.sol\":3587:3588  b */\n      dup2\n        /* \"HerbData.sol\":3587:3601  b.hasCollector */\n      0x01\n      add\n      0x00\n      swap1\n      sload\n      swap1\n      0x0100\n      exp\n      swap1\n      div\n      0xff\n      and\n        /* \"HerbData.sol\":3603:3604  b */\n      dup3\n        /* \"HerbData.sol\":3603:3617  b.hasMiddleman */\n      0x01\n      add\n      0x01\n      swap1\n      sload\n      swap1\n      0x0100\n      exp\n      swap1\n      div\n      0xff\n      and\n        /* \"HerbData.sol\":3619:3620  b */\n      dup4\n        /* \"HerbData.sol\":3619:3627  b.hasLab */\n      0x01\n      add\n      0x02\n      swap1\n      sload\n      swap1\n      0x0100\n      exp\n      swap1\n      div\n      0xff\n      and\n        /* \"HerbData.sol\":3629:3630  b */\n      dup5\n        /* \"HerbData.sol\":3629:3646  b.hasManufacturer */\n      0x01\n      add\n      0x03\n      swap1\n      sload\n      swap1\n      0x0100\n      exp\n      swap1\n      div\n      0xff\n      and\n        /* \"HerbData.sol\":3567:3647  return (b.batchRef, b.hasCollector, b.hasMiddleman, b.hasLab, b.hasManufacturer) */\n      dup5\n      dup1\n      sload\n      tag_174\n      swap1\n      tag_108\n      jump\t// in\n    tag_174:\n      dup1\n      0x1f\n      add\n      0x20\n      dup1\n      swap2\n      div\n      mul\n      0x20\n      add\n      mload(0x40)\n      swap1\n      dup2\n      add\n      0x40\n      mstore\n      dup1\n      swap3\n      swap2\n      swap1\n      dup2\n      dup2\n      mstore\n      0x20\n      add\n      dup3\n      dup1\n      sload\n      tag_175\n      swap1\n      tag_108\n      jump\t// in\n    tag_175:\n      dup1\n      iszero\n      tag_176\n      jumpi\n      dup1\n      0x1f\n      lt\n      tag_177\n      jumpi\n      0x0100\n      dup1\n      dup4\n      sload\n      div\n      mul\n      dup4\n      mstore\n      swap2\n      0x20\n      add\n      swap2\n      jump(tag_176)\n    tag_177:\n      dup3\n      add\n      swap2\n      swap1\n      0x00\n      mstore\n      keccak256(0x00, 0x20)\n      swap1\n    tag_178:\n      dup2\n      sload\n      dup2\n      mstore\n      swap1\n      0x01\n      add\n      swap1\n      0x20\n      add\n      dup1\n      dup4\n      gt\n      tag_178\n      jumpi\n      dup3\n      swap1\n      sub\n      0x1f\n      and\n      dup3\n      add\n      swap2\n    tag_176:\n      pop\n      pop\n      pop\n      pop\n      pop\n      swap5\n      pop\n      swap6\n      pop\n      swap6\n      pop\n      swap6\n      pop\n      swap6\n      pop\n      swap6\n      pop\n      pop\n        /* \"HerbData.sol\":3407:3655  function getBatchSummary(uint256 batchId) external view returns (string memory, bool, bool, bool, bool) {... */\n      swap2\n      swap4\n      swap6\n      swap1\n      swap3\n      swap5\n      pop\n      jump\t// out\n        /* \"HerbData.sol\":765:820  mapping(uint256 => CollectorData) public collectorInfos */\n    tag_58:\n      mstore(0x20, 0x03)\n      dup1\n      0x00\n      mstore\n      keccak256(0x00, 0x40)\n      0x00\n      swap2\n      pop\n      swap1\n      pop\n      dup1\n      0x00\n      add\n      dup1\n      sload\n      tag_179\n      swap1\n      tag_108\n      jump\t// in\n    tag_179:\n      dup1\n      0x1f\n      add\n      0x20\n      dup1\n      swap2\n      div\n      mul\n      0x20\n      add\n      mload(0x40)\n      swap1\n      dup2\n      add\n      0x40\n      mstore\n      dup1\n      swap3\n      swap2\n      swap1\n      dup2\n      dup2\n      mstore\n      0x20\n      add\n      dup3\n      dup1\n      sload\n      tag_180\n      swap1\n      tag_108\n      jump\t// in\n    tag_180:\n      dup1\n      iszero\n      tag_181\n      jumpi\n      dup1\n      0x1f\n      lt\n      tag_182\n      jumpi\n      0x0100\n      dup1\n      dup4\n      sload\n      div\n      mul\n      dup4\n      mstore\n      swap2\n      0x20\n      add\n      swap2\n      jump(tag_181)\n    tag_182:\n      dup3\n      add\n      swap2\n      swap1\n      0x00\n      mstore\n      keccak256(0x00, 0x20)\n      swap1\n    tag_183:\n      dup2\n      sload\n      dup2\n      mstore\n      swap1\n      0x01\n      add\n      swap1\n      0x20\n      add\n      dup1\n      dup4\n      gt\n      tag_183\n      jumpi\n      dup3\n      swap1\n      sub\n      0x1f\n      and\n      dup3\n      add\n      swap2\n    tag_181:\n      pop\n      pop\n      pop\n      pop\n      pop\n      swap1\n      pop\n      dup2\n      jump\t// out\n        /* \"HerbData.sol\":3804:3937  function getMiddlemanCID(uint256 batchId) external view returns (string memory) {... */\n    tag_62:\n        /* \"HerbData.sol\":3869:3882  string memory */\n      0x60\n        /* \"HerbData.sol\":3902:3916  middlemanInfos */\n      0x04\n        /* \"HerbData.sol\":3902:3925  middlemanInfos[batchId] */\n      0x00\n        /* \"HerbData.sol\":3917:3924  batchId */\n      dup4\n        /* \"HerbData.sol\":3902:3925  middlemanInfos[batchId] */\n      dup2\n      mstore\n      0x20\n      add\n      swap1\n      dup2\n      mstore\n      0x20\n      add\n      0x00\n      keccak256\n        /* \"HerbData.sol\":3902:3929  middlemanInfos[batchId].cid */\n      0x00\n      add\n        /* \"HerbData.sol\":3895:3929  return middlemanInfos[batchId].cid */\n      dup1\n      sload\n      tag_185\n      swap1\n      tag_108\n      jump\t// in\n    tag_185:\n      dup1\n      0x1f\n      add\n      0x20\n      dup1\n      swap2\n      div\n      mul\n      0x20\n      add\n      mload(0x40)\n      swap1\n      dup2\n      add\n      0x40\n      mstore\n      dup1\n      swap3\n      swap2\n      swap1\n      dup2\n      dup2\n      mstore\n      0x20\n      add\n      dup3\n      dup1\n      sload\n      tag_186\n      swap1\n      tag_108\n      jump\t// in\n    tag_186:\n      dup1\n      iszero\n      tag_187\n      jumpi\n      dup1\n      0x1f\n      lt\n      tag_188\n      jumpi\n      0x0100\n      dup1\n      dup4\n      sload\n      div\n      mul\n      dup4\n      mstore\n      swap2\n      0x20\n      add\n      swap2\n      jump(tag_187)\n    tag_188:\n      dup3\n      add\n      swap2\n      swap1\n      0x00\n      mstore\n      keccak256(0x00, 0x20)\n      swap1\n    tag_189:\n      dup2\n      sload\n      dup2\n      mstore\n      swap1\n      0x01\n      add\n      swap1\n      0x20\n      add\n      dup1\n      dup4\n      gt\n      tag_189\n      jumpi\n      dup3\n      swap1\n      sub\n      0x1f\n      and\n      dup3\n      add\n      swap2\n    tag_187:\n      pop\n      pop\n      pop\n      pop\n      pop\n      swap1\n      pop\n        /* \"HerbData.sol\":3804:3937  function getMiddlemanCID(uint256 batchId) external view returns (string memory) {... */\n      swap2\n      swap1\n      pop\n      jump\t// out\n        /* \"HerbData.sol\":126:158  RegisteredWorker public registry */\n    tag_65:\n      0x00\n      0x00\n      swap1\n      sload\n      swap1\n      0x0100\n      exp\n      swap1\n      div\n      0xffffffffffffffffffffffffffffffffffffffff\n      and\n      dup2\n      jump\t// out\n        /* \"HerbData.sol\":165:191  uint256 public nextBatchId */\n    tag_69:\n      sload(0x01)\n      dup2\n      jump\t// out\n        /* \"HerbData.sol\":2481:2890  function addLabData(uint256 batchId, string calldata cid) external {... */\n    tag_74:\n        /* \"HerbData.sol\":2610:2611  0 */\n      0x00\n        /* \"HerbData.sol\":327:328  4 */\n      0x04\n        /* \"HerbData.sol\":2568:2576  registry */\n      0x00\n      0x00\n      swap1\n      sload\n      swap1\n      0x0100\n      exp\n      swap1\n      div\n      0xffffffffffffffffffffffffffffffffffffffff\n      and\n        /* \"HerbData.sol\":2568:2582  registry.roles */\n      0xffffffffffffffffffffffffffffffffffffffff\n      and\n      0x99374642\n        /* \"HerbData.sol\":2583:2593  msg.sender */\n      caller\n        /* \"HerbData.sol\":2568:2594  registry.roles(msg.sender) */\n      mload(0x40)\n      dup3\n      0xffffffff\n      and\n      0xe0\n      shl\n      dup2\n      mstore\n      0x04\n      add\n      tag_191\n      swap2\n      swap1\n      tag_140\n      jump\t// in\n    tag_191:\n      0x20\n      mload(0x40)\n      dup1\n      dup4\n      sub\n      dup2\n      dup7\n      gas\n      staticcall\n      iszero\n      dup1\n      iszero\n      tag_193\n      jumpi\n      returndatacopy(0x00, 0x00, returndatasize)\n      revert(0x00, returndatasize)\n    tag_193:\n      pop\n      pop\n      pop\n      pop\n      mload(0x40)\n      returndatasize\n      not(0x1f)\n      0x1f\n      dup3\n      add\n      and\n      dup3\n      add\n      dup1\n      0x40\n      mstore\n      pop\n      dup2\n      add\n      swap1\n      tag_194\n      swap2\n      swap1\n      tag_144\n      jump\t// in\n    tag_194:\n        /* \"HerbData.sol\":2568:2605  registry.roles(msg.sender) & ROLE_LAB */\n      and\n        /* \"HerbData.sol\":2567:2611  (registry.roles(msg.sender) & ROLE_LAB) != 0 */\n      0xff\n      and\n      sub\n        /* \"HerbData.sol\":2559:2623  require((registry.roles(msg.sender) & ROLE_LAB) != 0, \"Not lab\") */\n      tag_195\n      jumpi\n      mload(0x40)\n      0x08c379a000000000000000000000000000000000000000000000000000000000\n      dup2\n      mstore\n      0x04\n      add\n      tag_196\n      swap1\n      tag_197\n      jump\t// in\n    tag_196:\n      mload(0x40)\n      dup1\n      swap2\n      sub\n      swap1\n      revert\n    tag_195:\n        /* \"HerbData.sol\":2634:2649  Batch storage b */\n      0x00\n        /* \"HerbData.sol\":2652:2659  batches */\n      0x02\n        /* \"HerbData.sol\":2652:2668  batches[batchId] */\n      0x00\n        /* \"HerbData.sol\":2660:2667  batchId */\n      dup6\n        /* \"HerbData.sol\":2652:2668  batches[batchId] */\n      dup2\n      mstore\n      0x20\n      add\n      swap1\n      dup2\n      mstore\n      0x20\n      add\n      0x00\n      keccak256\n        /* \"HerbData.sol\":2634:2668  Batch storage b = batches[batchId] */\n      swap1\n      pop\n        /* \"HerbData.sol\":2687:2688  b */\n      dup1\n        /* \"HerbData.sol\":2687:2701  b.hasMiddleman */\n      0x01\n      add\n      0x01\n      swap1\n      sload\n      swap1\n      0x0100\n      exp\n      swap1\n      div\n      0xff\n      and\n        /* \"HerbData.sol\":2679:2723  require(b.hasMiddleman, \"No middleman data\") */\n      tag_198\n      jumpi\n      mload(0x40)\n      0x08c379a000000000000000000000000000000000000000000000000000000000\n      dup2\n      mstore\n      0x04\n      add\n      tag_199\n      swap1\n      tag_200\n      jump\t// in\n    tag_199:\n      mload(0x40)\n      dup1\n      swap2\n      sub\n      swap1\n      revert\n    tag_198:\n        /* \"HerbData.sol\":2743:2744  b */\n      dup1\n        /* \"HerbData.sol\":2743:2751  b.hasLab */\n      0x01\n      add\n      0x02\n      swap1\n      sload\n      swap1\n      0x0100\n      exp\n      swap1\n      div\n      0xff\n      and\n        /* \"HerbData.sol\":2742:2751  !b.hasLab */\n      iszero\n        /* \"HerbData.sol\":2734:2769  require(!b.hasLab, \"Already added\") */\n      tag_201\n      jumpi\n      mload(0x40)\n      0x08c379a000000000000000000000000000000000000000000000000000000000\n      dup2\n      mstore\n      0x04\n      add\n      tag_202\n      swap1\n      tag_153\n      jump\t// in\n    tag_202:\n      mload(0x40)\n      dup1\n      swap2\n      sub\n      swap1\n      revert\n    tag_201:\n        /* \"HerbData.sol\":2802:2814  LabData(cid) */\n      mload(0x40)\n      dup1\n      0x20\n      add\n      0x40\n      mstore\n      dup1\n        /* \"HerbData.sol\":2810:2813  cid */\n      dup5\n      dup5\n        /* \"HerbData.sol\":2802:2814  LabData(cid) */\n      dup1\n      dup1\n      0x1f\n      add\n      0x20\n      dup1\n      swap2\n      div\n      mul\n      0x20\n      add\n      mload(0x40)\n      swap1\n      dup2\n      add\n      0x40\n      mstore\n      dup1\n      swap4\n      swap3\n      swap2\n      swap1\n      dup2\n      dup2\n      mstore\n      0x20\n      add\n      dup4\n      dup4\n      dup1\n      dup3\n      dup5\n      calldatacopy\n      0x00\n      dup2\n      dup5\n      add\n      mstore\n      not(0x1f)\n      0x1f\n      dup3\n      add\n      and\n      swap1\n      pop\n      dup1\n      dup4\n      add\n      swap3\n      pop\n      pop\n      pop\n      pop\n      pop\n      pop\n      pop\n      dup2\n      mstore\n      pop\n        /* \"HerbData.sol\":2782:2790  labInfos */\n      0x05\n        /* \"HerbData.sol\":2782:2799  labInfos[batchId] */\n      0x00\n        /* \"HerbData.sol\":2791:2798  batchId */\n      dup7\n        /* \"HerbData.sol\":2782:2799  labInfos[batchId] */\n      dup2\n      mstore\n      0x20\n      add\n      swap1\n      dup2\n      mstore\n      0x20\n      add\n      0x00\n      keccak256\n        /* \"HerbData.sol\":2782:2814  labInfos[batchId] = LabData(cid) */\n      0x00\n      dup3\n      add\n      mload\n      dup2\n      0x00\n      add\n      swap1\n      dup2\n      tag_203\n      swap2\n      swap1\n      tag_155\n      jump\t// in\n    tag_203:\n      pop\n      swap1\n      pop\n      pop\n        /* \"HerbData.sol\":2836:2840  true */\n      0x01\n        /* \"HerbData.sol\":2825:2826  b */\n      dup2\n        /* \"HerbData.sol\":2825:2833  b.hasLab */\n      0x01\n      add\n      0x02\n        /* \"HerbData.sol\":2825:2840  b.hasLab = true */\n      0x0100\n      exp\n      dup2\n      sload\n      dup2\n      0xff\n      mul\n      not\n      and\n      swap1\n      dup4\n      iszero\n      iszero\n      mul\n      or\n      swap1\n      sstore\n      pop\n        /* \"HerbData.sol\":2869:2876  batchId */\n      dup4\n        /* \"HerbData.sol\":2856:2882  LabDataAdded(batchId, cid) */\n      0x488f1c0ce4bb72b2af29a9856186010014aa950b6e6cfd626b4b05f6fcbad746\n        /* \"HerbData.sol\":2878:2881  cid */\n      dup5\n      dup5\n        /* \"HerbData.sol\":2856:2882  LabDataAdded(batchId, cid) */\n      mload(0x40)\n      tag_204\n      swap3\n      swap2\n      swap1\n      tag_157\n      jump\t// in\n    tag_204:\n      mload(0x40)\n      dup1\n      swap2\n      sub\n      swap1\n      log2\n        /* \"HerbData.sol\":2548:2890  {... */\n      pop\n        /* \"HerbData.sol\":2481:2890  function addLabData(uint256 batchId, string calldata cid) external {... */\n      pop\n      pop\n      pop\n      jump\t// out\n        /* \"HerbData.sol\":1526:2008  function createBatch(string calldata batchRef, string calldata collectorCid) external returns (uint256) {... */\n    tag_78:\n        /* \"HerbData.sol\":1621:1628  uint256 */\n      0x00\n        /* \"HerbData.sol\":1698:1699  0 */\n      0x00\n        /* \"HerbData.sol\":239:240  1 */\n      0x01\n        /* \"HerbData.sol\":1650:1658  registry */\n      0x00\n      0x00\n      swap1\n      sload\n      swap1\n      0x0100\n      exp\n      swap1\n      div\n      0xffffffffffffffffffffffffffffffffffffffff\n      and\n        /* \"HerbData.sol\":1650:1664  registry.roles */\n      0xffffffffffffffffffffffffffffffffffffffff\n      and\n      0x99374642\n        /* \"HerbData.sol\":1665:1675  msg.sender */\n      caller\n        /* \"HerbData.sol\":1650:1676  registry.roles(msg.sender) */\n      mload(0x40)\n      dup3\n      0xffffffff\n      and\n      0xe0\n      shl\n      dup2\n      mstore\n      0x04\n      add\n      tag_206\n      swap2\n      swap1\n      tag_140\n      jump\t// in\n    tag_206:\n      0x20\n      mload(0x40)\n      dup1\n      dup4\n      sub\n      dup2\n      dup7\n      gas\n      staticcall\n      iszero\n      dup1\n      iszero\n      tag_208\n      jumpi\n      returndatacopy(0x00, 0x00, returndatasize)\n      revert(0x00, returndatasize)\n    tag_208:\n      pop\n      pop\n      pop\n      pop\n      mload(0x40)\n      returndatasize\n      not(0x1f)\n      0x1f\n      dup3\n      add\n      and\n      dup3\n      add\n      dup1\n      0x40\n      mstore\n      pop\n      dup2\n      add\n      swap1\n      tag_209\n      swap2\n      swap1\n      tag_144\n      jump\t// in\n    tag_209:\n        /* \"HerbData.sol\":1650:1693  registry.roles(msg.sender) & ROLE_COLLECTOR */\n      and\n        /* \"HerbData.sol\":1649:1699  (registry.roles(msg.sender) & ROLE_COLLECTOR) != 0 */\n      0xff\n      and\n      sub\n        /* \"HerbData.sol\":1641:1717  require((registry.roles(msg.sender) & ROLE_COLLECTOR) != 0, \"Not collector\") */\n      tag_210\n      jumpi\n      mload(0x40)\n      0x08c379a000000000000000000000000000000000000000000000000000000000\n      dup2\n      mstore\n      0x04\n      add\n      tag_211\n      swap1\n      tag_212\n      jump\t// in\n    tag_211:\n      mload(0x40)\n      dup1\n      swap2\n      sub\n      swap1\n      revert\n    tag_210:\n        /* \"HerbData.sol\":1730:1740  uint256 id */\n      0x00\n        /* \"HerbData.sol\":1745:1756  nextBatchId */\n      0x01\n      0x00\n        /* \"HerbData.sol\":1743:1756  ++nextBatchId */\n      dup2\n      sload\n      tag_213\n      swap1\n      tag_214\n      jump\t// in\n    tag_213:\n      swap2\n      swap1\n      pop\n      dup2\n      swap1\n      sstore\n        /* \"HerbData.sol\":1730:1756  uint256 id = ++nextBatchId */\n      swap1\n      pop\n        /* \"HerbData.sol\":1783:1825  Batch(batchRef, true, false, false, false) */\n      mload(0x40)\n      dup1\n      0xa0\n      add\n      0x40\n      mstore\n      dup1\n        /* \"HerbData.sol\":1789:1797  batchRef */\n      dup8\n      dup8\n        /* \"HerbData.sol\":1783:1825  Batch(batchRef, true, false, false, false) */\n      dup1\n      dup1\n      0x1f\n      add\n      0x20\n      dup1\n      swap2\n      div\n      mul\n      0x20\n      add\n      mload(0x40)\n      swap1\n      dup2\n      add\n      0x40\n      mstore\n      dup1\n      swap4\n      swap3\n      swap2\n      swap1\n      dup2\n      dup2\n      mstore\n      0x20\n      add\n      dup4\n      dup4\n      dup1\n      dup3\n      dup5\n      calldatacopy\n      0x00\n      dup2\n      dup5\n      add\n      mstore\n      not(0x1f)\n      0x1f\n      dup3\n      add\n      and\n      swap1\n      pop\n      dup1\n      dup4\n      add\n      swap3\n      pop\n      pop\n      pop\n      pop\n      pop\n      pop\n      pop\n      dup2\n      mstore\n      0x20\n      add\n        /* \"HerbData.sol\":1799:1803  true */\n      0x01\n        /* \"HerbData.sol\":1783:1825  Batch(batchRef, true, false, false, false) */\n      iszero\n      iszero\n      dup2\n      mstore\n      0x20\n      add\n        /* \"HerbData.sol\":1805:1810  false */\n      0x00\n        /* \"HerbData.sol\":1783:1825  Batch(batchRef, true, false, false, false) */\n      iszero\n      iszero\n      dup2\n      mstore\n      0x20\n      add\n        /* \"HerbData.sol\":1812:1817  false */\n      0x00\n        /* \"HerbData.sol\":1783:1825  Batch(batchRef, true, false, false, false) */\n      iszero\n      iszero\n      dup2\n      mstore\n      0x20\n      add\n        /* \"HerbData.sol\":1819:1824  false */\n      0x00\n        /* \"HerbData.sol\":1783:1825  Batch(batchRef, true, false, false, false) */\n      iszero\n      iszero\n      dup2\n      mstore\n      pop\n        /* \"HerbData.sol\":1769:1776  batches */\n      0x02\n        /* \"HerbData.sol\":1769:1780  batches[id] */\n      0x00\n        /* \"HerbData.sol\":1777:1779  id */\n      dup4\n        /* \"HerbData.sol\":1769:1780  batches[id] */\n      dup2\n      mstore\n      0x20\n      add\n      swap1\n      dup2\n      mstore\n      0x20\n      add\n      0x00\n      keccak256\n        /* \"HerbData.sol\":1769:1825  batches[id] = Batch(batchRef, true, false, false, false) */\n      0x00\n      dup3\n      add\n      mload\n      dup2\n      0x00\n      add\n      swap1\n      dup2\n      tag_215\n      swap2\n      swap1\n      tag_155\n      jump\t// in\n    tag_215:\n      pop\n      0x20\n      dup3\n      add\n      mload\n      dup2\n      0x01\n      add\n      exp(0x0100, 0x00)\n      dup2\n      sload\n      dup2\n      0xff\n      mul\n      not\n      and\n      swap1\n      dup4\n      iszero\n      iszero\n      mul\n      or\n      swap1\n      sstore\n      pop\n      0x40\n      dup3\n      add\n      mload\n      dup2\n      0x01\n      add\n      exp(0x0100, 0x01)\n      dup2\n      sload\n      dup2\n      0xff\n      mul\n      not\n      and\n      swap1\n      dup4\n      iszero\n      iszero\n      mul\n      or\n      swap1\n      sstore\n      pop\n      0x60\n      dup3\n      add\n      mload\n      dup2\n      0x01\n      add\n      exp(0x0100, 0x02)\n      dup2\n      sload\n      dup2\n      0xff\n      mul\n      not\n      and\n      swap1\n      dup4\n      iszero\n      iszero\n      mul\n      or\n      swap1\n      sstore\n      pop\n      0x80\n      dup3\n      add\n      mload\n      dup2\n      0x01\n      add\n      exp(0x0100, 0x03)\n      dup2\n      sload\n      dup2\n      0xff\n      mul\n      not\n      and\n      swap1\n      dup4\n      iszero\n      iszero\n      mul\n      or\n      swap1\n      sstore\n      pop\n      swap1\n      pop\n      pop\n        /* \"HerbData.sol\":1857:1884  CollectorData(collectorCid) */\n      mload(0x40)\n      dup1\n      0x20\n      add\n      0x40\n      mstore\n      dup1\n        /* \"HerbData.sol\":1871:1883  collectorCid */\n      dup6\n      dup6\n        /* \"HerbData.sol\":1857:1884  CollectorData(collectorCid) */\n      dup1\n      dup1\n      0x1f\n      add\n      0x20\n      dup1\n      swap2\n      div\n      mul\n      0x20\n      add\n      mload(0x40)\n      swap1\n      dup2\n      add\n      0x40\n      mstore\n      dup1\n      swap4\n      swap3\n      swap2\n      swap1\n      dup2\n      dup2\n      mstore\n      0x20\n      add\n      dup4\n      dup4\n      dup1\n      dup3\n      dup5\n      calldatacopy\n      0x00\n      dup2\n      dup5\n      add\n      mstore\n      not(0x1f)\n      0x1f\n      dup3\n      add\n      and\n      swap1\n      pop\n      dup1\n      dup4\n      add\n      swap3\n      pop\n      pop\n      pop\n      pop\n      pop\n      pop\n      pop\n      dup2\n      mstore\n      pop\n        /* \"HerbData.sol\":1836:1850  collectorInfos */\n      0x03\n        /* \"HerbData.sol\":1836:1854  collectorInfos[id] */\n      0x00\n        /* \"HerbData.sol\":1851:1853  id */\n      dup4\n        /* \"HerbData.sol\":1836:1854  collectorInfos[id] */\n      dup2\n      mstore\n      0x20\n      add\n      swap1\n      dup2\n      mstore\n      0x20\n      add\n      0x00\n      keccak256\n        /* \"HerbData.sol\":1836:1884  collectorInfos[id] = CollectorData(collectorCid) */\n      0x00\n      dup3\n      add\n      mload\n      dup2\n      0x00\n      add\n      swap1\n      dup2\n      tag_216\n      swap2\n      swap1\n      tag_155\n      jump\t// in\n    tag_216:\n      pop\n      swap1\n      pop\n      pop\n        /* \"HerbData.sol\":1915:1917  id */\n      dup1\n        /* \"HerbData.sol\":1902:1928  BatchCreated(id, batchRef) */\n      0x65d0897ef90523e0e840598aac93f29c40c60164ddb22532dfd3a79515757376\n        /* \"HerbData.sol\":1919:1927  batchRef */\n      dup8\n      dup8\n        /* \"HerbData.sol\":1902:1928  BatchCreated(id, batchRef) */\n      mload(0x40)\n      tag_217\n      swap3\n      swap2\n      swap1\n      tag_157\n      jump\t// in\n    tag_217:\n      mload(0x40)\n      dup1\n      swap2\n      sub\n      swap1\n      log2\n        /* \"HerbData.sol\":1963:1965  id */\n      dup1\n        /* \"HerbData.sol\":1944:1980  CollectorDataAdded(id, collectorCid) */\n      0x674b21d9b91e2a6a3e017790742e8eeeb6d1e18f8a7f8dfcf9cea406760d1ccd\n        /* \"HerbData.sol\":1967:1979  collectorCid */\n      dup6\n      dup6\n        /* \"HerbData.sol\":1944:1980  CollectorDataAdded(id, collectorCid) */\n      mload(0x40)\n      tag_218\n      swap3\n      swap2\n      swap1\n      tag_157\n      jump\t// in\n    tag_218:\n      mload(0x40)\n      dup1\n      swap2\n      sub\n      swap1\n      log2\n        /* \"HerbData.sol\":1998:2000  id */\n      dup1\n        /* \"HerbData.sol\":1991:2000  return id */\n      swap2\n      pop\n      pop\n        /* \"HerbData.sol\":1526:2008  function createBatch(string calldata batchRef, string calldata collectorCid) external returns (uint256) {... */\n      swap5\n      swap4\n      pop\n      pop\n      pop\n      pop\n      jump\t// out\n        /* \"HerbData.sol\":3945:4066  function getLabCID(uint256 batchId) external view returns (string memory) {... */\n    tag_82:\n        /* \"HerbData.sol\":4004:4017  string memory */\n      0x60\n        /* \"HerbData.sol\":4037:4045  labInfos */\n      0x05\n        /* \"HerbData.sol\":4037:4054  labInfos[batchId] */\n      0x00\n        /* \"HerbData.sol\":4046:4053  batchId */\n      dup4\n        /* \"HerbData.sol\":4037:4054  labInfos[batchId] */\n      dup2\n      mstore\n      0x20\n      add\n      swap1\n      dup2\n      mstore\n      0x20\n      add\n      0x00\n      keccak256\n        /* \"HerbData.sol\":4037:4058  labInfos[batchId].cid */\n      0x00\n      add\n        /* \"HerbData.sol\":4030:4058  return labInfos[batchId].cid */\n      dup1\n      sload\n      tag_220\n      swap1\n      tag_108\n      jump\t// in\n    tag_220:\n      dup1\n      0x1f\n      add\n      0x20\n      dup1\n      swap2\n      div\n      mul\n      0x20\n      add\n      mload(0x40)\n      swap1\n      dup2\n      add\n      0x40\n      mstore\n      dup1\n      swap3\n      swap2\n      swap1\n      dup2\n      dup2\n      mstore\n      0x20\n      add\n      dup3\n      dup1\n      sload\n      tag_221\n      swap1\n      tag_108\n      jump\t// in\n    tag_221:\n      dup1\n      iszero\n      tag_222\n      jumpi\n      dup1\n      0x1f\n      lt\n      tag_223\n      jumpi\n      0x0100\n      dup1\n      dup4\n      sload\n      div\n      mul\n      dup4\n      mstore\n      swap2\n      0x20\n      add\n      swap2\n      jump(tag_222)\n    tag_223:\n      dup3\n      add\n      swap2\n      swap1\n      0x00\n      mstore\n      keccak256(0x00, 0x20)\n      swap1\n    tag_224:\n      dup2\n      sload\n      dup2\n      mstore\n      swap1\n      0x01\n      add\n      swap1\n      0x20\n      add\n      dup1\n      dup4\n      gt\n      tag_224\n      jumpi\n      dup3\n      swap1\n      sub\n      0x1f\n      and\n      dup3\n      add\n      swap2\n    tag_222:\n      pop\n      pop\n      pop\n      pop\n      pop\n      swap1\n      pop\n        /* \"HerbData.sol\":3945:4066  function getLabCID(uint256 batchId) external view returns (string memory) {... */\n      swap2\n      swap1\n      pop\n      jump\t// out\n        /* \"HerbData.sol\":718:758  mapping(uint256 => Batch) public batches */\n    tag_86:\n      mstore(0x20, 0x02)\n      dup1\n      0x00\n      mstore\n      keccak256(0x00, 0x40)\n      0x00\n      swap2\n      pop\n      swap1\n      pop\n      dup1\n      0x00\n      add\n      dup1\n      sload\n      tag_225\n      swap1\n      tag_108\n      jump\t// in\n    tag_225:\n      dup1\n      0x1f\n      add\n      0x20\n      dup1\n      swap2\n      div\n      mul\n      0x20\n      add\n      mload(0x40)\n      swap1\n      dup2\n      add\n      0x40\n      mstore\n      dup1\n      swap3\n      swap2\n      swap1\n      dup2\n      dup2\n      mstore\n      0x20\n      add\n      dup3\n      dup1\n      sload\n      tag_226\n      swap1\n      tag_108\n      jump\t// in\n    tag_226:\n      dup1\n      iszero\n      tag_227\n      jumpi\n      dup1\n      0x1f\n      lt\n      tag_228\n      jumpi\n      0x0100\n      dup1\n      dup4\n      sload\n      div\n      mul\n      dup4\n      mstore\n      swap2\n      0x20\n      add\n      swap2\n      jump(tag_227)\n    tag_228:\n      dup3\n      add\n      swap2\n      swap1\n      0x00\n      mstore\n      keccak256(0x00, 0x20)\n      swap1\n    tag_229:\n      dup2\n      sload\n      dup2\n      mstore\n      swap1\n      0x01\n      add\n      swap1\n      0x20\n      add\n      dup1\n      dup4\n      gt\n      tag_229\n      jumpi\n      dup3\n      swap1\n      sub\n      0x1f\n      and\n      dup3\n      add\n      swap2\n    tag_227:\n      pop\n      pop\n      pop\n      pop\n      pop\n      swap1\n      dup1\n      0x01\n      add\n      0x00\n      swap1\n      sload\n      swap1\n      0x0100\n      exp\n      swap1\n      div\n      0xff\n      and\n      swap1\n      dup1\n      0x01\n      add\n      0x01\n      swap1\n      sload\n      swap1\n      0x0100\n      exp\n      swap1\n      div\n      0xff\n      and\n      swap1\n      dup1\n      0x01\n      add\n      0x02\n      swap1\n      sload\n      swap1\n      0x0100\n      exp\n      swap1\n      div\n      0xff\n      and\n      swap1\n      dup1\n      0x01\n      add\n      0x03\n      swap1\n      sload\n      swap1\n      0x0100\n      exp\n      swap1\n      div\n      0xff\n      and\n      swap1\n      pop\n      dup6\n      jump\t// out\n        /* \"HerbData.sol\":939:1000  mapping(uint256 => ManufacturerData) public manufacturerInfos */\n    tag_90:\n      mstore(0x20, 0x06)\n      dup1\n      0x00\n      mstore\n      keccak256(0x00, 0x40)\n      0x00\n      swap2\n      pop\n      swap1\n      pop\n      dup1\n      0x00\n      add\n      dup1\n      sload\n      tag_230\n      swap1\n      tag_108\n      jump\t// in\n    tag_230:\n      dup1\n      0x1f\n      add\n      0x20\n      dup1\n      swap2\n      div\n      mul\n      0x20\n      add\n      mload(0x40)\n      swap1\n      dup2\n      add\n      0x40\n      mstore\n      dup1\n      swap3\n      swap2\n      swap1\n      dup2\n      dup2\n      mstore\n      0x20\n      add\n      dup3\n      dup1\n      sload\n      tag_231\n      swap1\n      tag_108\n      jump\t// in\n    tag_231:\n      dup1\n      iszero\n      tag_232\n      jumpi\n      dup1\n      0x1f\n      lt\n      tag_233\n      jumpi\n      0x0100\n      dup1\n      dup4\n      sload\n      div\n      mul\n      dup4\n      mstore\n      swap2\n      0x20\n      add\n      swap2\n      jump(tag_232)\n    tag_233:\n      dup3\n      add\n      swap2\n      swap1\n      0x00\n      mstore\n      keccak256(0x00, 0x20)\n      swap1\n    tag_234:\n      dup2\n      sload\n      dup2\n      mstore\n      swap1\n      0x01\n      add\n      swap1\n      0x20\n      add\n      dup1\n      dup4\n      gt\n      tag_234\n      jumpi\n      dup3\n      swap1\n      sub\n      0x1f\n      and\n      dup3\n      add\n      swap2\n    tag_232:\n      pop\n      pop\n      pop\n      pop\n      pop\n      swap1\n      pop\n      dup2\n      jump\t// out\n        /* \"HerbData.sol\":3663:3796  function getCollectorCID(uint256 batchId) external view returns (string memory) {... */\n    tag_94:\n        /* \"HerbData.sol\":3728:3741  string memory */\n      0x60\n        /* \"HerbData.sol\":3761:3775  collectorInfos */\n      0x03\n        /* \"HerbData.sol\":3761:3784  collectorInfos[batchId] */\n      0x00\n        /* \"HerbData.sol\":3776:3783  batchId */\n      dup4\n        /* \"HerbData.sol\":3761:3784  collectorInfos[batchId] */\n      dup2\n      mstore\n      0x20\n      add\n      swap1\n      dup2\n      mstore\n      0x20\n      add\n      0x00\n      keccak256\n        /* \"HerbData.sol\":3761:3788  collectorInfos[batchId].cid */\n      0x00\n      add\n        /* \"HerbData.sol\":3754:3788  return collectorInfos[batchId].cid */\n      dup1\n      sload\n      tag_236\n      swap1\n      tag_108\n      jump\t// in\n    tag_236:\n      dup1\n      0x1f\n      add\n      0x20\n      dup1\n      swap2\n      div\n      mul\n      0x20\n      add\n      mload(0x40)\n      swap1\n      dup2\n      add\n      0x40\n      mstore\n      dup1\n      swap3\n      swap2\n      swap1\n      dup2\n      dup2\n      mstore\n      0x20\n      add\n      dup3\n      dup1\n      sload\n      tag_237\n      swap1\n      tag_108\n      jump\t// in\n    tag_237:\n      dup1\n      iszero\n      tag_238\n      jumpi\n      dup1\n      0x1f\n      lt\n      tag_239\n      jumpi\n      0x0100\n      dup1\n      dup4\n      sload\n      div\n      mul\n      dup4\n      mstore\n      swap2\n      0x20\n      add\n      swap2\n      jump(tag_238)\n    tag_239:\n      dup3\n      add\n      swap2\n      swap1\n      0x00\n      mstore\n      keccak256(0x00, 0x20)\n      swap1\n    tag_240:\n      dup2\n      sload\n      dup2\n      mstore\n      swap1\n      0x01\n      add\n      swap1\n      0x20\n      add\n      dup1\n      dup4\n      gt\n      tag_240\n      jumpi\n      dup3\n      swap1\n      sub\n      0x1f\n      and\n      dup3\n      add\n      swap2\n    tag_238:\n      pop\n      pop\n      pop\n      pop\n      pop\n      swap1\n      pop\n        /* \"HerbData.sol\":3663:3796  function getCollectorCID(uint256 batchId) external view returns (string memory) {... */\n      swap2\n      swap1\n      pop\n      jump\t// out\n        /* \"HerbData.sol\":335:378  uint8 public constant ROLE_MANUFACTURER = 8 */\n    tag_97:\n        /* \"HerbData.sol\":377:378  8 */\n      0x08\n        /* \"HerbData.sol\":335:378  uint8 public constant ROLE_MANUFACTURER = 8 */\n      dup2\n      jump\t// out\n        /* \"HerbData.sol\":200:240  uint8 public constant ROLE_COLLECTOR = 1 */\n    tag_100:\n        /* \"HerbData.sol\":239:240  1 */\n      0x01\n        /* \"HerbData.sol\":200:240  uint8 public constant ROLE_COLLECTOR = 1 */\n      dup2\n      jump\t// out\n        /* \"HerbData.sol\":827:882  mapping(uint256 => MiddlemanData) public middlemanInfos */\n    tag_104:\n      mstore(0x20, 0x04)\n      dup1\n      0x00\n      mstore\n      keccak256(0x00, 0x40)\n      0x00\n      swap2\n      pop\n      swap1\n      pop\n      dup1\n      0x00\n      add\n      dup1\n      sload\n      tag_241\n      swap1\n      tag_108\n      jump\t// in\n    tag_241:\n      dup1\n      0x1f\n      add\n      0x20\n      dup1\n      swap2\n      div\n      mul\n      0x20\n      add\n      mload(0x40)\n      swap1\n      dup2\n      add\n      0x40\n      mstore\n      dup1\n      swap3\n      swap2\n      swap1\n      dup2\n      dup2\n      mstore\n      0x20\n      add\n      dup3\n      dup1\n      sload\n      tag_242\n      swap1\n      tag_108\n      jump\t// in\n    tag_242:\n      dup1\n      iszero\n      tag_243\n      jumpi\n      dup1\n      0x1f\n      lt\n      tag_244\n      jumpi\n      0x0100\n      dup1\n      dup4\n      sload\n      div\n      mul\n      dup4\n      mstore\n      swap2\n      0x20\n      add\n      swap2\n      jump(tag_243)\n    tag_244:\n      dup3\n      add\n      swap2\n      swap1\n      0x00\n      mstore\n      keccak256(0x00, 0x20)\n      swap1\n    tag_245:\n      dup2\n      sload\n      dup2\n      mstore\n      swap1\n      0x01\n      add\n      swap1\n      0x20\n      add\n      dup1\n      dup4\n      gt\n      tag_245\n      jumpi\n      dup3\n      swap1\n      sub\n      0x1f\n      and\n      dup3\n      add\n      swap2\n    tag_243:\n      pop\n      pop\n      pop\n      pop\n      pop\n      swap1\n      pop\n      dup2\n      jump\t// out\n        /* \"#utility.yul\":88:205   */\n    tag_247:\n        /* \"#utility.yul\":197:198   */\n      0x00\n        /* \"#utility.yul\":194:195   */\n      0x00\n        /* \"#utility.yul\":187:199   */\n      revert\n        /* \"#utility.yul\":211:328   */\n    tag_248:\n        /* \"#utility.yul\":320:321   */\n      0x00\n        /* \"#utility.yul\":317:318   */\n      0x00\n        /* \"#utility.yul\":310:322   */\n      revert\n        /* \"#utility.yul\":334:411   */\n    tag_249:\n        /* \"#utility.yul\":371:378   */\n      0x00\n        /* \"#utility.yul\":400:405   */\n      dup2\n        /* \"#utility.yul\":389:405   */\n      swap1\n      pop\n        /* \"#utility.yul\":334:411   */\n      swap2\n      swap1\n      pop\n      jump\t// out\n        /* \"#utility.yul\":417:539   */\n    tag_250:\n        /* \"#utility.yul\":490:514   */\n      tag_317\n        /* \"#utility.yul\":508:513   */\n      dup2\n        /* \"#utility.yul\":490:514   */\n      tag_249\n      jump\t// in\n    tag_317:\n        /* \"#utility.yul\":483:488   */\n      dup2\n        /* \"#utility.yul\":480:515   */\n      eq\n        /* \"#utility.yul\":470:533   */\n      tag_318\n      jumpi\n        /* \"#utility.yul\":529:530   */\n      0x00\n        /* \"#utility.yul\":526:527   */\n      0x00\n        /* \"#utility.yul\":519:531   */\n      revert\n        /* \"#utility.yul\":470:533   */\n    tag_318:\n        /* \"#utility.yul\":417:539   */\n      pop\n      jump\t// out\n        /* \"#utility.yul\":545:684   */\n    tag_251:\n        /* \"#utility.yul\":591:596   */\n      0x00\n        /* \"#utility.yul\":629:635   */\n      dup2\n        /* \"#utility.yul\":616:636   */\n      calldataload\n        /* \"#utility.yul\":607:636   */\n      swap1\n      pop\n        /* \"#utility.yul\":645:678   */\n      tag_320\n        /* \"#utility.yul\":672:677   */\n      dup2\n        /* \"#utility.yul\":645:678   */\n      tag_250\n      jump\t// in\n    tag_320:\n        /* \"#utility.yul\":545:684   */\n      swap3\n      swap2\n      pop\n      pop\n      jump\t// out\n        /* \"#utility.yul\":690:1019   */\n    tag_28:\n        /* \"#utility.yul\":749:755   */\n      0x00\n        /* \"#utility.yul\":798:800   */\n      0x20\n        /* \"#utility.yul\":786:795   */\n      dup3\n        /* \"#utility.yul\":777:784   */\n      dup5\n        /* \"#utility.yul\":773:796   */\n      sub\n        /* \"#utility.yul\":769:801   */\n      slt\n        /* \"#utility.yul\":766:885   */\n      iszero\n      tag_322\n      jumpi\n        /* \"#utility.yul\":804:883   */\n      tag_323\n      tag_247\n      jump\t// in\n    tag_323:\n        /* \"#utility.yul\":766:885   */\n    tag_322:\n        /* \"#utility.yul\":924:925   */\n      0x00\n        /* \"#utility.yul\":949:1002   */\n      tag_324\n        /* \"#utility.yul\":994:1001   */\n      dup5\n        /* \"#utility.yul\":985:991   */\n      dup3\n        /* \"#utility.yul\":974:983   */\n      dup6\n        /* \"#utility.yul\":970:992   */\n      add\n        /* \"#utility.yul\":949:1002   */\n      tag_251\n      jump\t// in\n    tag_324:\n        /* \"#utility.yul\":939:1002   */\n      swap2\n      pop\n        /* \"#utility.yul\":895:1012   */\n      pop\n        /* \"#utility.yul\":690:1019   */\n      swap3\n      swap2\n      pop\n      pop\n      jump\t// out\n        /* \"#utility.yul\":1025:1124   */\n    tag_252:\n        /* \"#utility.yul\":1077:1083   */\n      0x00\n        /* \"#utility.yul\":1111:1116   */\n      dup2\n        /* \"#utility.yul\":1105:1117   */\n      mload\n        /* \"#utility.yul\":1095:1117   */\n      swap1\n      pop\n        /* \"#utility.yul\":1025:1124   */\n      swap2\n      swap1\n      pop\n      jump\t// out\n        /* \"#utility.yul\":1130:1299   */\n    tag_253:\n        /* \"#utility.yul\":1214:1225   */\n      0x00\n        /* \"#utility.yul\":1248:1254   */\n      dup3\n        /* \"#utility.yul\":1243:1246   */\n      dup3\n        /* \"#utility.yul\":1236:1255   */\n      mstore\n        /* \"#utility.yul\":1288:1292   */\n      0x20\n        /* \"#utility.yul\":1283:1286   */\n      dup3\n        /* \"#utility.yul\":1279:1293   */\n      add\n        /* \"#utility.yul\":1264:1293   */\n      swap1\n      pop\n        /* \"#utility.yul\":1130:1299   */\n      swap3\n      swap2\n      pop\n      pop\n      jump\t// out\n        /* \"#utility.yul\":1305:1444   */\n    tag_254:\n        /* \"#utility.yul\":1394:1400   */\n      dup3\n        /* \"#utility.yul\":1389:1392   */\n      dup2\n        /* \"#utility.yul\":1384:1387   */\n      dup4\n        /* \"#utility.yul\":1378:1401   */\n      mcopy\n        /* \"#utility.yul\":1435:1436   */\n      0x00\n        /* \"#utility.yul\":1426:1432   */\n      dup4\n        /* \"#utility.yul\":1421:1424   */\n      dup4\n        /* \"#utility.yul\":1417:1433   */\n      add\n        /* \"#utility.yul\":1410:1437   */\n      mstore\n        /* \"#utility.yul\":1305:1444   */\n      pop\n      pop\n      pop\n      jump\t// out\n        /* \"#utility.yul\":1450:1552   */\n    tag_255:\n        /* \"#utility.yul\":1491:1497   */\n      0x00\n        /* \"#utility.yul\":1542:1544   */\n      0x1f\n        /* \"#utility.yul\":1538:1545   */\n      not\n        /* \"#utility.yul\":1533:1535   */\n      0x1f\n        /* \"#utility.yul\":1526:1531   */\n      dup4\n        /* \"#utility.yul\":1522:1536   */\n      add\n        /* \"#utility.yul\":1518:1546   */\n      and\n        /* \"#utility.yul\":1508:1546   */\n      swap1\n      pop\n        /* \"#utility.yul\":1450:1552   */\n      swap2\n      swap1\n      pop\n      jump\t// out\n        /* \"#utility.yul\":1558:1935   */\n    tag_256:\n        /* \"#utility.yul\":1646:1649   */\n      0x00\n        /* \"#utility.yul\":1674:1713   */\n      tag_330\n        /* \"#utility.yul\":1707:1712   */\n      dup3\n        /* \"#utility.yul\":1674:1713   */\n      tag_252\n      jump\t// in\n    tag_330:\n        /* \"#utility.yul\":1729:1800   */\n      tag_331\n        /* \"#utility.yul\":1793:1799   */\n      dup2\n        /* \"#utility.yul\":1788:1791   */\n      dup6\n        /* \"#utility.yul\":1729:1800   */\n      tag_253\n      jump\t// in\n    tag_331:\n        /* \"#utility.yul\":1722:1800   */\n      swap4\n      pop\n        /* \"#utility.yul\":1809:1874   */\n      tag_332\n        /* \"#utility.yul\":1867:1873   */\n      dup2\n        /* \"#utility.yul\":1862:1865   */\n      dup6\n        /* \"#utility.yul\":1855:1859   */\n      0x20\n        /* \"#utility.yul\":1848:1853   */\n      dup7\n        /* \"#utility.yul\":1844:1860   */\n      add\n        /* \"#utility.yul\":1809:1874   */\n      tag_254\n      jump\t// in\n    tag_332:\n        /* \"#utility.yul\":1899:1928   */\n      tag_333\n        /* \"#utility.yul\":1921:1927   */\n      dup2\n        /* \"#utility.yul\":1899:1928   */\n      tag_255\n      jump\t// in\n    tag_333:\n        /* \"#utility.yul\":1894:1897   */\n      dup5\n        /* \"#utility.yul\":1890:1929   */\n      add\n        /* \"#utility.yul\":1883:1929   */\n      swap2\n      pop\n        /* \"#utility.yul\":1650:1935   */\n      pop\n        /* \"#utility.yul\":1558:1935   */\n      swap3\n      swap2\n      pop\n      pop\n      jump\t// out\n        /* \"#utility.yul\":1941:3060   */\n    tag_31:\n        /* \"#utility.yul\":2246:2250   */\n      0x00\n        /* \"#utility.yul\":2284:2287   */\n      0xa0\n        /* \"#utility.yul\":2273:2282   */\n      dup3\n        /* \"#utility.yul\":2269:2288   */\n      add\n        /* \"#utility.yul\":2261:2288   */\n      swap1\n      pop\n        /* \"#utility.yul\":2334:2343   */\n      dup2\n        /* \"#utility.yul\":2328:2332   */\n      dup2\n        /* \"#utility.yul\":2324:2344   */\n      sub\n        /* \"#utility.yul\":2320:2321   */\n      0x00\n        /* \"#utility.yul\":2309:2318   */\n      dup4\n        /* \"#utility.yul\":2305:2322   */\n      add\n        /* \"#utility.yul\":2298:2345   */\n      mstore\n        /* \"#utility.yul\":2362:2440   */\n      tag_335\n        /* \"#utility.yul\":2435:2439   */\n      dup2\n        /* \"#utility.yul\":2426:2432   */\n      dup9\n        /* \"#utility.yul\":2362:2440   */\n      tag_256\n      jump\t// in\n    tag_335:\n        /* \"#utility.yul\":2354:2440   */\n      swap1\n      pop\n        /* \"#utility.yul\":2487:2496   */\n      dup2\n        /* \"#utility.yul\":2481:2485   */\n      dup2\n        /* \"#utility.yul\":2477:2497   */\n      sub\n        /* \"#utility.yul\":2472:2474   */\n      0x20\n        /* \"#utility.yul\":2461:2470   */\n      dup4\n        /* \"#utility.yul\":2457:2475   */\n      add\n        /* \"#utility.yul\":2450:2498   */\n      mstore\n        /* \"#utility.yul\":2515:2593   */\n      tag_336\n        /* \"#utility.yul\":2588:2592   */\n      dup2\n        /* \"#utility.yul\":2579:2585   */\n      dup8\n        /* \"#utility.yul\":2515:2593   */\n      tag_256\n      jump\t// in\n    tag_336:\n        /* \"#utility.yul\":2507:2593   */\n      swap1\n      pop\n        /* \"#utility.yul\":2640:2649   */\n      dup2\n        /* \"#utility.yul\":2634:2638   */\n      dup2\n        /* \"#utility.yul\":2630:2650   */\n      sub\n        /* \"#utility.yul\":2625:2627   */\n      0x40\n        /* \"#utility.yul\":2614:2623   */\n      dup4\n        /* \"#utility.yul\":2610:2628   */\n      add\n        /* \"#utility.yul\":2603:2651   */\n      mstore\n        /* \"#utility.yul\":2668:2746   */\n      tag_337\n        /* \"#utility.yul\":2741:2745   */\n      dup2\n        /* \"#utility.yul\":2732:2738   */\n      dup7\n        /* \"#utility.yul\":2668:2746   */\n      tag_256\n      jump\t// in\n    tag_337:\n        /* \"#utility.yul\":2660:2746   */\n      swap1\n      pop\n        /* \"#utility.yul\":2793:2802   */\n      dup2\n        /* \"#utility.yul\":2787:2791   */\n      dup2\n        /* \"#utility.yul\":2783:2803   */\n      sub\n        /* \"#utility.yul\":2778:2780   */\n      0x60\n        /* \"#utility.yul\":2767:2776   */\n      dup4\n        /* \"#utility.yul\":2763:2781   */\n      add\n        /* \"#utility.yul\":2756:2804   */\n      mstore\n        /* \"#utility.yul\":2821:2899   */\n      tag_338\n        /* \"#utility.yul\":2894:2898   */\n      dup2\n        /* \"#utility.yul\":2885:2891   */\n      dup6\n        /* \"#utility.yul\":2821:2899   */\n      tag_256\n      jump\t// in\n    tag_338:\n        /* \"#utility.yul\":2813:2899   */\n      swap1\n      pop\n        /* \"#utility.yul\":2947:2956   */\n      dup2\n        /* \"#utility.yul\":2941:2945   */\n      dup2\n        /* \"#utility.yul\":2937:2957   */\n      sub\n        /* \"#utility.yul\":2931:2934   */\n      0x80\n        /* \"#utility.yul\":2920:2929   */\n      dup4\n        /* \"#utility.yul\":2916:2935   */\n      add\n        /* \"#utility.yul\":2909:2958   */\n      mstore\n        /* \"#utility.yul\":2975:3053   */\n      tag_339\n        /* \"#utility.yul\":3048:3052   */\n      dup2\n        /* \"#utility.yul\":3039:3045   */\n      dup5\n        /* \"#utility.yul\":2975:3053   */\n      tag_256\n      jump\t// in\n    tag_339:\n        /* \"#utility.yul\":2967:3053   */\n      swap1\n      pop\n        /* \"#utility.yul\":1941:3060   */\n      swap7\n      swap6\n      pop\n      pop\n      pop\n      pop\n      pop\n      pop\n      jump\t// out\n        /* \"#utility.yul\":3066:3152   */\n    tag_257:\n        /* \"#utility.yul\":3101:3108   */\n      0x00\n        /* \"#utility.yul\":3141:3145   */\n      0xff\n        /* \"#utility.yul\":3134:3139   */\n      dup3\n        /* \"#utility.yul\":3130:3146   */\n      and\n        /* \"#utility.yul\":3119:3146   */\n      swap1\n      pop\n        /* \"#utility.yul\":3066:3152   */\n      swap2\n      swap1\n      pop\n      jump\t// out\n        /* \"#utility.yul\":3158:3270   */\n    tag_258:\n        /* \"#utility.yul\":3241:3263   */\n      tag_342\n        /* \"#utility.yul\":3257:3262   */\n      dup2\n        /* \"#utility.yul\":3241:3263   */\n      tag_257\n      jump\t// in\n    tag_342:\n        /* \"#utility.yul\":3236:3239   */\n      dup3\n        /* \"#utility.yul\":3229:3264   */\n      mstore\n        /* \"#utility.yul\":3158:3270   */\n      pop\n      pop\n      jump\t// out\n        /* \"#utility.yul\":3276:3490   */\n    tag_35:\n        /* \"#utility.yul\":3365:3369   */\n      0x00\n        /* \"#utility.yul\":3403:3405   */\n      0x20\n        /* \"#utility.yul\":3392:3401   */\n      dup3\n        /* \"#utility.yul\":3388:3406   */\n      add\n        /* \"#utility.yul\":3380:3406   */\n      swap1\n      pop\n        /* \"#utility.yul\":3416:3483   */\n      tag_344\n        /* \"#utility.yul\":3480:3481   */\n      0x00\n        /* \"#utility.yul\":3469:3478   */\n      dup4\n        /* \"#utility.yul\":3465:3482   */\n      add\n        /* \"#utility.yul\":3456:3462   */\n      dup5\n        /* \"#utility.yul\":3416:3483   */\n      tag_258\n      jump\t// in\n    tag_344:\n        /* \"#utility.yul\":3276:3490   */\n      swap3\n      swap2\n      pop\n      pop\n      jump\t// out\n        /* \"#utility.yul\":3496:3809   */\n    tag_43:\n        /* \"#utility.yul\":3609:3613   */\n      0x00\n        /* \"#utility.yul\":3647:3649   */\n      0x20\n        /* \"#utility.yul\":3636:3645   */\n      dup3\n        /* \"#utility.yul\":3632:3650   */\n      add\n        /* \"#utility.yul\":3624:3650   */\n      swap1\n      pop\n        /* \"#utility.yul\":3696:3705   */\n      dup2\n        /* \"#utility.yul\":3690:3694   */\n      dup2\n        /* \"#utility.yul\":3686:3706   */\n      sub\n        /* \"#utility.yul\":3682:3683   */\n      0x00\n        /* \"#utility.yul\":3671:3680   */\n      dup4\n        /* \"#utility.yul\":3667:3684   */\n      add\n        /* \"#utility.yul\":3660:3707   */\n      mstore\n        /* \"#utility.yul\":3724:3802   */\n      tag_346\n        /* \"#utility.yul\":3797:3801   */\n      dup2\n        /* \"#utility.yul\":3788:3794   */\n      dup5\n        /* \"#utility.yul\":3724:3802   */\n      tag_256\n      jump\t// in\n    tag_346:\n        /* \"#utility.yul\":3716:3802   */\n      swap1\n      pop\n        /* \"#utility.yul\":3496:3809   */\n      swap3\n      swap2\n      pop\n      pop\n      jump\t// out\n        /* \"#utility.yul\":3815:3932   */\n    tag_259:\n        /* \"#utility.yul\":3924:3925   */\n      0x00\n        /* \"#utility.yul\":3921:3922   */\n      0x00\n        /* \"#utility.yul\":3914:3926   */\n      revert\n        /* \"#utility.yul\":3938:4055   */\n    tag_260:\n        /* \"#utility.yul\":4047:4048   */\n      0x00\n        /* \"#utility.yul\":4044:4045   */\n      0x00\n        /* \"#utility.yul\":4037:4049   */\n      revert\n        /* \"#utility.yul\":4061:4178   */\n    tag_261:\n        /* \"#utility.yul\":4170:4171   */\n      0x00\n        /* \"#utility.yul\":4167:4168   */\n      0x00\n        /* \"#utility.yul\":4160:4172   */\n      revert\n        /* \"#utility.yul\":4198:4751   */\n    tag_262:\n        /* \"#utility.yul\":4256:4264   */\n      0x00\n        /* \"#utility.yul\":4266:4272   */\n      0x00\n        /* \"#utility.yul\":4316:4319   */\n      dup4\n        /* \"#utility.yul\":4309:4313   */\n      0x1f\n        /* \"#utility.yul\":4301:4307   */\n      dup5\n        /* \"#utility.yul\":4297:4314   */\n      add\n        /* \"#utility.yul\":4293:4320   */\n      slt\n        /* \"#utility.yul\":4283:4405   */\n      tag_351\n      jumpi\n        /* \"#utility.yul\":4324:4403   */\n      tag_352\n      tag_259\n      jump\t// in\n    tag_352:\n        /* \"#utility.yul\":4283:4405   */\n    tag_351:\n        /* \"#utility.yul\":4437:4443   */\n      dup3\n        /* \"#utility.yul\":4424:4444   */\n      calldataload\n        /* \"#utility.yul\":4414:4444   */\n      swap1\n      pop\n        /* \"#utility.yul\":4467:4485   */\n      0xffffffffffffffff\n        /* \"#utility.yul\":4459:4465   */\n      dup2\n        /* \"#utility.yul\":4456:4486   */\n      gt\n        /* \"#utility.yul\":4453:4570   */\n      iszero\n      tag_353\n      jumpi\n        /* \"#utility.yul\":4489:4568   */\n      tag_354\n      tag_260\n      jump\t// in\n    tag_354:\n        /* \"#utility.yul\":4453:4570   */\n    tag_353:\n        /* \"#utility.yul\":4603:4607   */\n      0x20\n        /* \"#utility.yul\":4595:4601   */\n      dup4\n        /* \"#utility.yul\":4591:4608   */\n      add\n        /* \"#utility.yul\":4579:4608   */\n      swap2\n      pop\n        /* \"#utility.yul\":4657:4660   */\n      dup4\n        /* \"#utility.yul\":4649:4653   */\n      0x01\n        /* \"#utility.yul\":4641:4647   */\n      dup3\n        /* \"#utility.yul\":4637:4654   */\n      mul\n        /* \"#utility.yul\":4627:4635   */\n      dup4\n        /* \"#utility.yul\":4623:4655   */\n      add\n        /* \"#utility.yul\":4620:4661   */\n      gt\n        /* \"#utility.yul\":4617:4745   */\n      iszero\n      tag_355\n      jumpi\n        /* \"#utility.yul\":4664:4743   */\n      tag_356\n      tag_261\n      jump\t// in\n    tag_356:\n        /* \"#utility.yul\":4617:4745   */\n    tag_355:\n        /* \"#utility.yul\":4198:4751   */\n      swap3\n      pop\n      swap3\n      swap1\n      pop\n      jump\t// out\n        /* \"#utility.yul\":4757:5431   */\n    tag_46:\n        /* \"#utility.yul\":4837:4843   */\n      0x00\n        /* \"#utility.yul\":4845:4851   */\n      0x00\n        /* \"#utility.yul\":4853:4859   */\n      0x00\n        /* \"#utility.yul\":4902:4904   */\n      0x40\n        /* \"#utility.yul\":4890:4899   */\n      dup5\n        /* \"#utility.yul\":4881:4888   */\n      dup7\n        /* \"#utility.yul\":4877:4900   */\n      sub\n        /* \"#utility.yul\":4873:4905   */\n      slt\n        /* \"#utility.yul\":4870:4989   */\n      iszero\n      tag_358\n      jumpi\n        /* \"#utility.yul\":4908:4987   */\n      tag_359\n      tag_247\n      jump\t// in\n    tag_359:\n        /* \"#utility.yul\":4870:4989   */\n    tag_358:\n        /* \"#utility.yul\":5028:5029   */\n      0x00\n        /* \"#utility.yul\":5053:5106   */\n      tag_360\n        /* \"#utility.yul\":5098:5105   */\n      dup7\n        /* \"#utility.yul\":5089:5095   */\n      dup3\n        /* \"#utility.yul\":5078:5087   */\n      dup8\n        /* \"#utility.yul\":5074:5096   */\n      add\n        /* \"#utility.yul\":5053:5106   */\n      tag_251\n      jump\t// in\n    tag_360:\n        /* \"#utility.yul\":5043:5106   */\n      swap4\n      pop\n        /* \"#utility.yul\":4999:5116   */\n      pop\n        /* \"#utility.yul\":5183:5185   */\n      0x20\n        /* \"#utility.yul\":5172:5181   */\n      dup5\n        /* \"#utility.yul\":5168:5186   */\n      add\n        /* \"#utility.yul\":5155:5187   */\n      calldataload\n        /* \"#utility.yul\":5214:5232   */\n      0xffffffffffffffff\n        /* \"#utility.yul\":5206:5212   */\n      dup2\n        /* \"#utility.yul\":5203:5233   */\n      gt\n        /* \"#utility.yul\":5200:5317   */\n      iszero\n      tag_361\n      jumpi\n        /* \"#utility.yul\":5236:5315   */\n      tag_362\n      tag_248\n      jump\t// in\n    tag_362:\n        /* \"#utility.yul\":5200:5317   */\n    tag_361:\n        /* \"#utility.yul\":5349:5414   */\n      tag_363\n        /* \"#utility.yul\":5406:5413   */\n      dup7\n        /* \"#utility.yul\":5397:5403   */\n      dup3\n        /* \"#utility.yul\":5386:5395   */\n      dup8\n        /* \"#utility.yul\":5382:5404   */\n      add\n        /* \"#utility.yul\":5349:5414   */\n      tag_262\n      jump\t// in\n    tag_363:\n        /* \"#utility.yul\":5331:5414   */\n      swap3\n      pop\n      swap3\n      pop\n        /* \"#utility.yul\":5126:5424   */\n      pop\n        /* \"#utility.yul\":4757:5431   */\n      swap3\n      pop\n      swap3\n      pop\n      swap3\n      jump\t// out\n        /* \"#utility.yul\":5437:5527   */\n    tag_263:\n        /* \"#utility.yul\":5471:5478   */\n      0x00\n        /* \"#utility.yul\":5514:5519   */\n      dup2\n        /* \"#utility.yul\":5507:5520   */\n      iszero\n        /* \"#utility.yul\":5500:5521   */\n      iszero\n        /* \"#utility.yul\":5489:5521   */\n      swap1\n      pop\n        /* \"#utility.yul\":5437:5527   */\n      swap2\n      swap1\n      pop\n      jump\t// out\n        /* \"#utility.yul\":5533:5642   */\n    tag_264:\n        /* \"#utility.yul\":5614:5635   */\n      tag_366\n        /* \"#utility.yul\":5629:5634   */\n      dup2\n        /* \"#utility.yul\":5614:5635   */\n      tag_263\n      jump\t// in\n    tag_366:\n        /* \"#utility.yul\":5609:5612   */\n      dup3\n        /* \"#utility.yul\":5602:5636   */\n      mstore\n        /* \"#utility.yul\":5533:5642   */\n      pop\n      pop\n      jump\t// out\n        /* \"#utility.yul\":5648:6355   */\n    tag_55:\n        /* \"#utility.yul\":5849:5853   */\n      0x00\n        /* \"#utility.yul\":5887:5890   */\n      0xa0\n        /* \"#utility.yul\":5876:5885   */\n      dup3\n        /* \"#utility.yul\":5872:5891   */\n      add\n        /* \"#utility.yul\":5864:5891   */\n      swap1\n      pop\n        /* \"#utility.yul\":5937:5946   */\n      dup2\n        /* \"#utility.yul\":5931:5935   */\n      dup2\n        /* \"#utility.yul\":5927:5947   */\n      sub\n        /* \"#utility.yul\":5923:5924   */\n      0x00\n        /* \"#utility.yul\":5912:5921   */\n      dup4\n        /* \"#utility.yul\":5908:5925   */\n      add\n        /* \"#utility.yul\":5901:5948   */\n      mstore\n        /* \"#utility.yul\":5965:6043   */\n      tag_368\n        /* \"#utility.yul\":6038:6042   */\n      dup2\n        /* \"#utility.yul\":6029:6035   */\n      dup9\n        /* \"#utility.yul\":5965:6043   */\n      tag_256\n      jump\t// in\n    tag_368:\n        /* \"#utility.yul\":5957:6043   */\n      swap1\n      pop\n        /* \"#utility.yul\":6053:6119   */\n      tag_369\n        /* \"#utility.yul\":6115:6117   */\n      0x20\n        /* \"#utility.yul\":6104:6113   */\n      dup4\n        /* \"#utility.yul\":6100:6118   */\n      add\n        /* \"#utility.yul\":6091:6097   */\n      dup8\n        /* \"#utility.yul\":6053:6119   */\n      tag_264\n      jump\t// in\n    tag_369:\n        /* \"#utility.yul\":6129:6195   */\n      tag_370\n        /* \"#utility.yul\":6191:6193   */\n      0x40\n        /* \"#utility.yul\":6180:6189   */\n      dup4\n        /* \"#utility.yul\":6176:6194   */\n      add\n        /* \"#utility.yul\":6167:6173   */\n      dup7\n        /* \"#utility.yul\":6129:6195   */\n      tag_264\n      jump\t// in\n    tag_370:\n        /* \"#utility.yul\":6205:6271   */\n      tag_371\n        /* \"#utility.yul\":6267:6269   */\n      0x60\n        /* \"#utility.yul\":6256:6265   */\n      dup4\n        /* \"#utility.yul\":6252:6270   */\n      add\n        /* \"#utility.yul\":6243:6249   */\n      dup6\n        /* \"#utility.yul\":6205:6271   */\n      tag_264\n      jump\t// in\n    tag_371:\n        /* \"#utility.yul\":6281:6348   */\n      tag_372\n        /* \"#utility.yul\":6343:6346   */\n      0x80\n        /* \"#utility.yul\":6332:6341   */\n      dup4\n        /* \"#utility.yul\":6328:6347   */\n      add\n        /* \"#utility.yul\":6319:6325   */\n      dup5\n        /* \"#utility.yul\":6281:6348   */\n      tag_264\n      jump\t// in\n    tag_372:\n        /* \"#utility.yul\":5648:6355   */\n      swap7\n      swap6\n      pop\n      pop\n      pop\n      pop\n      pop\n      pop\n      jump\t// out\n        /* \"#utility.yul\":6361:6487   */\n    tag_265:\n        /* \"#utility.yul\":6398:6405   */\n      0x00\n        /* \"#utility.yul\":6438:6480   */\n      0xffffffffffffffffffffffffffffffffffffffff\n        /* \"#utility.yul\":6431:6436   */\n      dup3\n        /* \"#utility.yul\":6427:6481   */\n      and\n        /* \"#utility.yul\":6416:6481   */\n      swap1\n      pop\n        /* \"#utility.yul\":6361:6487   */\n      swap2\n      swap1\n      pop\n      jump\t// out\n        /* \"#utility.yul\":6493:6553   */\n    tag_266:\n        /* \"#utility.yul\":6521:6524   */\n      0x00\n        /* \"#utility.yul\":6542:6547   */\n      dup2\n        /* \"#utility.yul\":6535:6547   */\n      swap1\n      pop\n        /* \"#utility.yul\":6493:6553   */\n      swap2\n      swap1\n      pop\n      jump\t// out\n        /* \"#utility.yul\":6559:6701   */\n    tag_267:\n        /* \"#utility.yul\":6609:6618   */\n      0x00\n        /* \"#utility.yul\":6642:6695   */\n      tag_376\n        /* \"#utility.yul\":6660:6694   */\n      tag_377\n        /* \"#utility.yul\":6669:6693   */\n      tag_378\n        /* \"#utility.yul\":6687:6692   */\n      dup5\n        /* \"#utility.yul\":6669:6693   */\n      tag_265\n      jump\t// in\n    tag_378:\n        /* \"#utility.yul\":6660:6694   */\n      tag_266\n      jump\t// in\n    tag_377:\n        /* \"#utility.yul\":6642:6695   */\n      tag_265\n      jump\t// in\n    tag_376:\n        /* \"#utility.yul\":6629:6695   */\n      swap1\n      pop\n        /* \"#utility.yul\":6559:6701   */\n      swap2\n      swap1\n      pop\n      jump\t// out\n        /* \"#utility.yul\":6707:6833   */\n    tag_268:\n        /* \"#utility.yul\":6757:6766   */\n      0x00\n        /* \"#utility.yul\":6790:6827   */\n      tag_380\n        /* \"#utility.yul\":6821:6826   */\n      dup3\n        /* \"#utility.yul\":6790:6827   */\n      tag_267\n      jump\t// in\n    tag_380:\n        /* \"#utility.yul\":6777:6827   */\n      swap1\n      pop\n        /* \"#utility.yul\":6707:6833   */\n      swap2\n      swap1\n      pop\n      jump\t// out\n        /* \"#utility.yul\":6839:6989   */\n    tag_269:\n        /* \"#utility.yul\":6913:6922   */\n      0x00\n        /* \"#utility.yul\":6946:6983   */\n      tag_382\n        /* \"#utility.yul\":6977:6982   */\n      dup3\n        /* \"#utility.yul\":6946:6983   */\n      tag_268\n      jump\t// in\n    tag_382:\n        /* \"#utility.yul\":6933:6983   */\n      swap1\n      pop\n        /* \"#utility.yul\":6839:6989   */\n      swap2\n      swap1\n      pop\n      jump\t// out\n        /* \"#utility.yul\":6995:7174   */\n    tag_270:\n        /* \"#utility.yul\":7106:7167   */\n      tag_384\n        /* \"#utility.yul\":7161:7166   */\n      dup2\n        /* \"#utility.yul\":7106:7167   */\n      tag_269\n      jump\t// in\n    tag_384:\n        /* \"#utility.yul\":7101:7104   */\n      dup3\n        /* \"#utility.yul\":7094:7168   */\n      mstore\n        /* \"#utility.yul\":6995:7174   */\n      pop\n      pop\n      jump\t// out\n        /* \"#utility.yul\":7180:7450   */\n    tag_67:\n        /* \"#utility.yul\":7297:7301   */\n      0x00\n        /* \"#utility.yul\":7335:7337   */\n      0x20\n        /* \"#utility.yul\":7324:7333   */\n      dup3\n        /* \"#utility.yul\":7320:7338   */\n      add\n        /* \"#utility.yul\":7312:7338   */\n      swap1\n      pop\n        /* \"#utility.yul\":7348:7443   */\n      tag_386\n        /* \"#utility.yul\":7440:7441   */\n      0x00\n        /* \"#utility.yul\":7429:7438   */\n      dup4\n        /* \"#utility.yul\":7425:7442   */\n      add\n        /* \"#utility.yul\":7416:7422   */\n      dup5\n        /* \"#utility.yul\":7348:7443   */\n      tag_270\n      jump\t// in\n    tag_386:\n        /* \"#utility.yul\":7180:7450   */\n      swap3\n      swap2\n      pop\n      pop\n      jump\t// out\n        /* \"#utility.yul\":7456:7574   */\n    tag_271:\n        /* \"#utility.yul\":7543:7567   */\n      tag_388\n        /* \"#utility.yul\":7561:7566   */\n      dup2\n        /* \"#utility.yul\":7543:7567   */\n      tag_249\n      jump\t// in\n    tag_388:\n        /* \"#utility.yul\":7538:7541   */\n      dup3\n        /* \"#utility.yul\":7531:7568   */\n      mstore\n        /* \"#utility.yul\":7456:7574   */\n      pop\n      pop\n      jump\t// out\n        /* \"#utility.yul\":7580:7802   */\n    tag_71:\n        /* \"#utility.yul\":7673:7677   */\n      0x00\n        /* \"#utility.yul\":7711:7713   */\n      0x20\n        /* \"#utility.yul\":7700:7709   */\n      dup3\n        /* \"#utility.yul\":7696:7714   */\n      add\n        /* \"#utility.yul\":7688:7714   */\n      swap1\n      pop\n        /* \"#utility.yul\":7724:7795   */\n      tag_390\n        /* \"#utility.yul\":7792:7793   */\n      0x00\n        /* \"#utility.yul\":7781:7790   */\n      dup4\n        /* \"#utility.yul\":7777:7794   */\n      add\n        /* \"#utility.yul\":7768:7774   */\n      dup5\n        /* \"#utility.yul\":7724:7795   */\n      tag_271\n      jump\t// in\n    tag_390:\n        /* \"#utility.yul\":7580:7802   */\n      swap3\n      swap2\n      pop\n      pop\n      jump\t// out\n        /* \"#utility.yul\":7808:8682   */\n    tag_77:\n        /* \"#utility.yul\":7900:7906   */\n      0x00\n        /* \"#utility.yul\":7908:7914   */\n      0x00\n        /* \"#utility.yul\":7916:7922   */\n      0x00\n        /* \"#utility.yul\":7924:7930   */\n      0x00\n        /* \"#utility.yul\":7973:7975   */\n      0x40\n        /* \"#utility.yul\":7961:7970   */\n      dup6\n        /* \"#utility.yul\":7952:7959   */\n      dup8\n        /* \"#utility.yul\":7948:7971   */\n      sub\n        /* \"#utility.yul\":7944:7976   */\n      slt\n        /* \"#utility.yul\":7941:8060   */\n      iszero\n      tag_392\n      jumpi\n        /* \"#utility.yul\":7979:8058   */\n      tag_393\n      tag_247\n      jump\t// in\n    tag_393:\n        /* \"#utility.yul\":7941:8060   */\n    tag_392:\n        /* \"#utility.yul\":8127:8128   */\n      0x00\n        /* \"#utility.yul\":8116:8125   */\n      dup6\n        /* \"#utility.yul\":8112:8129   */\n      add\n        /* \"#utility.yul\":8099:8130   */\n      calldataload\n        /* \"#utility.yul\":8157:8175   */\n      0xffffffffffffffff\n        /* \"#utility.yul\":8149:8155   */\n      dup2\n        /* \"#utility.yul\":8146:8176   */\n      gt\n        /* \"#utility.yul\":8143:8260   */\n      iszero\n      tag_394\n      jumpi\n        /* \"#utility.yul\":8179:8258   */\n      tag_395\n      tag_248\n      jump\t// in\n    tag_395:\n        /* \"#utility.yul\":8143:8260   */\n    tag_394:\n        /* \"#utility.yul\":8292:8357   */\n      tag_396\n        /* \"#utility.yul\":8349:8356   */\n      dup8\n        /* \"#utility.yul\":8340:8346   */\n      dup3\n        /* \"#utility.yul\":8329:8338   */\n      dup9\n        /* \"#utility.yul\":8325:8347   */\n      add\n        /* \"#utility.yul\":8292:8357   */\n      tag_262\n      jump\t// in\n    tag_396:\n        /* \"#utility.yul\":8274:8357   */\n      swap5\n      pop\n      swap5\n      pop\n        /* \"#utility.yul\":8070:8367   */\n      pop\n        /* \"#utility.yul\":8434:8436   */\n      0x20\n        /* \"#utility.yul\":8423:8432   */\n      dup6\n        /* \"#utility.yul\":8419:8437   */\n      add\n        /* \"#utility.yul\":8406:8438   */\n      calldataload\n        /* \"#utility.yul\":8465:8483   */\n      0xffffffffffffffff\n        /* \"#utility.yul\":8457:8463   */\n      dup2\n        /* \"#utility.yul\":8454:8484   */\n      gt\n        /* \"#utility.yul\":8451:8568   */\n      iszero\n      tag_397\n      jumpi\n        /* \"#utility.yul\":8487:8566   */\n      tag_398\n      tag_248\n      jump\t// in\n    tag_398:\n        /* \"#utility.yul\":8451:8568   */\n    tag_397:\n        /* \"#utility.yul\":8600:8665   */\n      tag_399\n        /* \"#utility.yul\":8657:8664   */\n      dup8\n        /* \"#utility.yul\":8648:8654   */\n      dup3\n        /* \"#utility.yul\":8637:8646   */\n      dup9\n        /* \"#utility.yul\":8633:8655   */\n      add\n        /* \"#utility.yul\":8600:8665   */\n      tag_262\n      jump\t// in\n    tag_399:\n        /* \"#utility.yul\":8582:8665   */\n      swap3\n      pop\n      swap3\n      pop\n        /* \"#utility.yul\":8377:8675   */\n      pop\n        /* \"#utility.yul\":7808:8682   */\n      swap3\n      swap6\n      swap2\n      swap5\n      pop\n      swap3\n      pop\n      jump\t// out\n        /* \"#utility.yul\":8688:8868   */\n    tag_272:\n        /* \"#utility.yul\":8736:8813   */\n      0x4e487b7100000000000000000000000000000000000000000000000000000000\n        /* \"#utility.yul\":8733:8734   */\n      0x00\n        /* \"#utility.yul\":8726:8814   */\n      mstore\n        /* \"#utility.yul\":8833:8837   */\n      0x22\n        /* \"#utility.yul\":8830:8831   */\n      0x04\n        /* \"#utility.yul\":8823:8838   */\n      mstore\n        /* \"#utility.yul\":8857:8861   */\n      0x24\n        /* \"#utility.yul\":8854:8855   */\n      0x00\n        /* \"#utility.yul\":8847:8862   */\n      revert\n        /* \"#utility.yul\":8874:9194   */\n    tag_108:\n        /* \"#utility.yul\":8918:8924   */\n      0x00\n        /* \"#utility.yul\":8955:8956   */\n      0x02\n        /* \"#utility.yul\":8949:8953   */\n      dup3\n        /* \"#utility.yul\":8945:8957   */\n      div\n        /* \"#utility.yul\":8935:8957   */\n      swap1\n      pop\n        /* \"#utility.yul\":9002:9003   */\n      0x01\n        /* \"#utility.yul\":8996:9000   */\n      dup3\n        /* \"#utility.yul\":8992:9004   */\n      and\n        /* \"#utility.yul\":9023:9041   */\n      dup1\n        /* \"#utility.yul\":9013:9094   */\n      tag_402\n      jumpi\n        /* \"#utility.yul\":9079:9083   */\n      0x7f\n        /* \"#utility.yul\":9071:9077   */\n      dup3\n        /* \"#utility.yul\":9067:9084   */\n      and\n        /* \"#utility.yul\":9057:9084   */\n      swap2\n      pop\n        /* \"#utility.yul\":9013:9094   */\n    tag_402:\n        /* \"#utility.yul\":9141:9143   */\n      0x20\n        /* \"#utility.yul\":9133:9139   */\n      dup3\n        /* \"#utility.yul\":9130:9144   */\n      lt\n        /* \"#utility.yul\":9110:9128   */\n      dup2\n        /* \"#utility.yul\":9107:9145   */\n      sub\n        /* \"#utility.yul\":9104:9188   */\n      tag_403\n      jumpi\n        /* \"#utility.yul\":9160:9178   */\n      tag_404\n      tag_272\n      jump\t// in\n    tag_404:\n        /* \"#utility.yul\":9104:9188   */\n    tag_403:\n        /* \"#utility.yul\":8925:9194   */\n      pop\n        /* \"#utility.yul\":8874:9194   */\n      swap2\n      swap1\n      pop\n      jump\t// out\n        /* \"#utility.yul\":9200:9296   */\n    tag_273:\n        /* \"#utility.yul\":9237:9244   */\n      0x00\n        /* \"#utility.yul\":9266:9290   */\n      tag_406\n        /* \"#utility.yul\":9284:9289   */\n      dup3\n        /* \"#utility.yul\":9266:9290   */\n      tag_265\n      jump\t// in\n    tag_406:\n        /* \"#utility.yul\":9255:9290   */\n      swap1\n      pop\n        /* \"#utility.yul\":9200:9296   */\n      swap2\n      swap1\n      pop\n      jump\t// out\n        /* \"#utility.yul\":9302:9420   */\n    tag_274:\n        /* \"#utility.yul\":9389:9413   */\n      tag_408\n        /* \"#utility.yul\":9407:9412   */\n      dup2\n        /* \"#utility.yul\":9389:9413   */\n      tag_273\n      jump\t// in\n    tag_408:\n        /* \"#utility.yul\":9384:9387   */\n      dup3\n        /* \"#utility.yul\":9377:9414   */\n      mstore\n        /* \"#utility.yul\":9302:9420   */\n      pop\n      pop\n      jump\t// out\n        /* \"#utility.yul\":9426:9648   */\n    tag_140:\n        /* \"#utility.yul\":9519:9523   */\n      0x00\n        /* \"#utility.yul\":9557:9559   */\n      0x20\n        /* \"#utility.yul\":9546:9555   */\n      dup3\n        /* \"#utility.yul\":9542:9560   */\n      add\n        /* \"#utility.yul\":9534:9560   */\n      swap1\n      pop\n        /* \"#utility.yul\":9570:9641   */\n      tag_410\n        /* \"#utility.yul\":9638:9639   */\n      0x00\n        /* \"#utility.yul\":9627:9636   */\n      dup4\n        /* \"#utility.yul\":9623:9640   */\n      add\n        /* \"#utility.yul\":9614:9620   */\n      dup5\n        /* \"#utility.yul\":9570:9641   */\n      tag_274\n      jump\t// in\n    tag_410:\n        /* \"#utility.yul\":9426:9648   */\n      swap3\n      swap2\n      pop\n      pop\n      jump\t// out\n        /* \"#utility.yul\":9654:9772   */\n    tag_275:\n        /* \"#utility.yul\":9725:9747   */\n      tag_412\n        /* \"#utility.yul\":9741:9746   */\n      dup2\n        /* \"#utility.yul\":9725:9747   */\n      tag_257\n      jump\t// in\n    tag_412:\n        /* \"#utility.yul\":9718:9723   */\n      dup2\n        /* \"#utility.yul\":9715:9748   */\n      eq\n        /* \"#utility.yul\":9705:9766   */\n      tag_413\n      jumpi\n        /* \"#utility.yul\":9762:9763   */\n      0x00\n        /* \"#utility.yul\":9759:9760   */\n      0x00\n        /* \"#utility.yul\":9752:9764   */\n      revert\n        /* \"#utility.yul\":9705:9766   */\n    tag_413:\n        /* \"#utility.yul\":9654:9772   */\n      pop\n      jump\t// out\n        /* \"#utility.yul\":9778:9917   */\n    tag_276:\n        /* \"#utility.yul\":9833:9838   */\n      0x00\n        /* \"#utility.yul\":9864:9870   */\n      dup2\n        /* \"#utility.yul\":9858:9871   */\n      mload\n        /* \"#utility.yul\":9849:9871   */\n      swap1\n      pop\n        /* \"#utility.yul\":9880:9911   */\n      tag_415\n        /* \"#utility.yul\":9905:9910   */\n      dup2\n        /* \"#utility.yul\":9880:9911   */\n      tag_275\n      jump\t// in\n    tag_415:\n        /* \"#utility.yul\":9778:9917   */\n      swap3\n      swap2\n      pop\n      pop\n      jump\t// out\n        /* \"#utility.yul\":9923:10270   */\n    tag_144:\n        /* \"#utility.yul\":9991:9997   */\n      0x00\n        /* \"#utility.yul\":10040:10042   */\n      0x20\n        /* \"#utility.yul\":10028:10037   */\n      dup3\n        /* \"#utility.yul\":10019:10026   */\n      dup5\n        /* \"#utility.yul\":10015:10038   */\n      sub\n        /* \"#utility.yul\":10011:10043   */\n      slt\n        /* \"#utility.yul\":10008:10127   */\n      iszero\n      tag_417\n      jumpi\n        /* \"#utility.yul\":10046:10125   */\n      tag_418\n      tag_247\n      jump\t// in\n    tag_418:\n        /* \"#utility.yul\":10008:10127   */\n    tag_417:\n        /* \"#utility.yul\":10166:10167   */\n      0x00\n        /* \"#utility.yul\":10191:10253   */\n      tag_419\n        /* \"#utility.yul\":10245:10252   */\n      dup5\n        /* \"#utility.yul\":10236:10242   */\n      dup3\n        /* \"#utility.yul\":10225:10234   */\n      dup6\n        /* \"#utility.yul\":10221:10243   */\n      add\n        /* \"#utility.yul\":10191:10253   */\n      tag_276\n      jump\t// in\n    tag_419:\n        /* \"#utility.yul\":10181:10253   */\n      swap2\n      pop\n        /* \"#utility.yul\":10137:10263   */\n      pop\n        /* \"#utility.yul\":9923:10270   */\n      swap3\n      swap2\n      pop\n      pop\n      jump\t// out\n        /* \"#utility.yul\":10276:10442   */\n    tag_277:\n        /* \"#utility.yul\":10416:10434   */\n      0x4e6f74206d616e75666163747572657200000000000000000000000000000000\n        /* \"#utility.yul\":10412:10413   */\n      0x00\n        /* \"#utility.yul\":10404:10410   */\n      dup3\n        /* \"#utility.yul\":10400:10414   */\n      add\n        /* \"#utility.yul\":10393:10435   */\n      mstore\n        /* \"#utility.yul\":10276:10442   */\n      pop\n      jump\t// out\n        /* \"#utility.yul\":10448:10814   */\n    tag_278:\n        /* \"#utility.yul\":10590:10593   */\n      0x00\n        /* \"#utility.yul\":10611:10678   */\n      tag_422\n        /* \"#utility.yul\":10675:10677   */\n      0x10\n        /* \"#utility.yul\":10670:10673   */\n      dup4\n        /* \"#utility.yul\":10611:10678   */\n      tag_253\n      jump\t// in\n    tag_422:\n        /* \"#utility.yul\":10604:10678   */\n      swap2\n      pop\n        /* \"#utility.yul\":10687:10780   */\n      tag_423\n        /* \"#utility.yul\":10776:10779   */\n      dup3\n        /* \"#utility.yul\":10687:10780   */\n      tag_277\n      jump\t// in\n    tag_423:\n        /* \"#utility.yul\":10805:10807   */\n      0x20\n        /* \"#utility.yul\":10800:10803   */\n      dup3\n        /* \"#utility.yul\":10796:10808   */\n      add\n        /* \"#utility.yul\":10789:10808   */\n      swap1\n      pop\n        /* \"#utility.yul\":10448:10814   */\n      swap2\n      swap1\n      pop\n      jump\t// out\n        /* \"#utility.yul\":10820:11239   */\n    tag_147:\n        /* \"#utility.yul\":10986:10990   */\n      0x00\n        /* \"#utility.yul\":11024:11026   */\n      0x20\n        /* \"#utility.yul\":11013:11022   */\n      dup3\n        /* \"#utility.yul\":11009:11027   */\n      add\n        /* \"#utility.yul\":11001:11027   */\n      swap1\n      pop\n        /* \"#utility.yul\":11073:11082   */\n      dup2\n        /* \"#utility.yul\":11067:11071   */\n      dup2\n        /* \"#utility.yul\":11063:11083   */\n      sub\n        /* \"#utility.yul\":11059:11060   */\n      0x00\n        /* \"#utility.yul\":11048:11057   */\n      dup4\n        /* \"#utility.yul\":11044:11061   */\n      add\n        /* \"#utility.yul\":11037:11084   */\n      mstore\n        /* \"#utility.yul\":11101:11232   */\n      tag_425\n        /* \"#utility.yul\":11227:11231   */\n      dup2\n        /* \"#utility.yul\":11101:11232   */\n      tag_278\n      jump\t// in\n    tag_425:\n        /* \"#utility.yul\":11093:11232   */\n      swap1\n      pop\n        /* \"#utility.yul\":10820:11239   */\n      swap2\n      swap1\n      pop\n      jump\t// out\n        /* \"#utility.yul\":11245:11406   */\n    tag_279:\n        /* \"#utility.yul\":11385:11398   */\n      0x4e6f206c61622064617461000000000000000000000000000000000000000000\n        /* \"#utility.yul\":11381:11382   */\n      0x00\n        /* \"#utility.yul\":11373:11379   */\n      dup3\n        /* \"#utility.yul\":11369:11383   */\n      add\n        /* \"#utility.yul\":11362:11399   */\n      mstore\n        /* \"#utility.yul\":11245:11406   */\n      pop\n      jump\t// out\n        /* \"#utility.yul\":11412:11778   */\n    tag_280:\n        /* \"#utility.yul\":11554:11557   */\n      0x00\n        /* \"#utility.yul\":11575:11642   */\n      tag_428\n        /* \"#utility.yul\":11639:11641   */\n      0x0b\n        /* \"#utility.yul\":11634:11637   */\n      dup4\n        /* \"#utility.yul\":11575:11642   */\n      tag_253\n      jump\t// in\n    tag_428:\n        /* \"#utility.yul\":11568:11642   */\n      swap2\n      pop\n        /* \"#utility.yul\":11651:11744   */\n      tag_429\n        /* \"#utility.yul\":11740:11743   */\n      dup3\n        /* \"#utility.yul\":11651:11744   */\n      tag_279\n      jump\t// in\n    tag_429:\n        /* \"#utility.yul\":11769:11771   */\n      0x20\n        /* \"#utility.yul\":11764:11767   */\n      dup3\n        /* \"#utility.yul\":11760:11772   */\n      add\n        /* \"#utility.yul\":11753:11772   */\n      swap1\n      pop\n        /* \"#utility.yul\":11412:11778   */\n      swap2\n      swap1\n      pop\n      jump\t// out\n        /* \"#utility.yul\":11784:12203   */\n    tag_150:\n        /* \"#utility.yul\":11950:11954   */\n      0x00\n        /* \"#utility.yul\":11988:11990   */\n      0x20\n        /* \"#utility.yul\":11977:11986   */\n      dup3\n        /* \"#utility.yul\":11973:11991   */\n      add\n        /* \"#utility.yul\":11965:11991   */\n      swap1\n      pop\n        /* \"#utility.yul\":12037:12046   */\n      dup2\n        /* \"#utility.yul\":12031:12035   */\n      dup2\n        /* \"#utility.yul\":12027:12047   */\n      sub\n        /* \"#utility.yul\":12023:12024   */\n      0x00\n        /* \"#utility.yul\":12012:12021   */\n      dup4\n        /* \"#utility.yul\":12008:12025   */\n      add\n        /* \"#utility.yul\":12001:12048   */\n      mstore\n        /* \"#utility.yul\":12065:12196   */\n      tag_431\n        /* \"#utility.yul\":12191:12195   */\n      dup2\n        /* \"#utility.yul\":12065:12196   */\n      tag_280\n      jump\t// in\n    tag_431:\n        /* \"#utility.yul\":12057:12196   */\n      swap1\n      pop\n        /* \"#utility.yul\":11784:12203   */\n      swap2\n      swap1\n      pop\n      jump\t// out\n        /* \"#utility.yul\":12209:12372   */\n    tag_281:\n        /* \"#utility.yul\":12349:12364   */\n      0x416c726561647920616464656400000000000000000000000000000000000000\n        /* \"#utility.yul\":12345:12346   */\n      0x00\n        /* \"#utility.yul\":12337:12343   */\n      dup3\n        /* \"#utility.yul\":12333:12347   */\n      add\n        /* \"#utility.yul\":12326:12365   */\n      mstore\n        /* \"#utility.yul\":12209:12372   */\n      pop\n      jump\t// out\n        /* \"#utility.yul\":12378:12744   */\n    tag_282:\n        /* \"#utility.yul\":12520:12523   */\n      0x00\n        /* \"#utility.yul\":12541:12608   */\n      tag_434\n        /* \"#utility.yul\":12605:12607   */\n      0x0d\n        /* \"#utility.yul\":12600:12603   */\n      dup4\n        /* \"#utility.yul\":12541:12608   */\n      tag_253\n      jump\t// in\n    tag_434:\n        /* \"#utility.yul\":12534:12608   */\n      swap2\n      pop\n        /* \"#utility.yul\":12617:12710   */\n      tag_435\n        /* \"#utility.yul\":12706:12709   */\n      dup3\n        /* \"#utility.yul\":12617:12710   */\n      tag_281\n      jump\t// in\n    tag_435:\n        /* \"#utility.yul\":12735:12737   */\n      0x20\n        /* \"#utility.yul\":12730:12733   */\n      dup3\n        /* \"#utility.yul\":12726:12738   */\n      add\n        /* \"#utility.yul\":12719:12738   */\n      swap1\n      pop\n        /* \"#utility.yul\":12378:12744   */\n      swap2\n      swap1\n      pop\n      jump\t// out\n        /* \"#utility.yul\":12750:13169   */\n    tag_153:\n        /* \"#utility.yul\":12916:12920   */\n      0x00\n        /* \"#utility.yul\":12954:12956   */\n      0x20\n        /* \"#utility.yul\":12943:12952   */\n      dup3\n        /* \"#utility.yul\":12939:12957   */\n      add\n        /* \"#utility.yul\":12931:12957   */\n      swap1\n      pop\n        /* \"#utility.yul\":13003:13012   */\n      dup2\n        /* \"#utility.yul\":12997:13001   */\n      dup2\n        /* \"#utility.yul\":12993:13013   */\n      sub\n        /* \"#utility.yul\":12989:12990   */\n      0x00\n        /* \"#utility.yul\":12978:12987   */\n      dup4\n        /* \"#utility.yul\":12974:12991   */\n      add\n        /* \"#utility.yul\":12967:13014   */\n      mstore\n        /* \"#utility.yul\":13031:13162   */\n      tag_437\n        /* \"#utility.yul\":13157:13161   */\n      dup2\n        /* \"#utility.yul\":13031:13162   */\n      tag_282\n      jump\t// in\n    tag_437:\n        /* \"#utility.yul\":13023:13162   */\n      swap1\n      pop\n        /* \"#utility.yul\":12750:13169   */\n      swap2\n      swap1\n      pop\n      jump\t// out\n        /* \"#utility.yul\":13175:13355   */\n    tag_283:\n        /* \"#utility.yul\":13223:13300   */\n      0x4e487b7100000000000000000000000000000000000000000000000000000000\n        /* \"#utility.yul\":13220:13221   */\n      0x00\n        /* \"#utility.yul\":13213:13301   */\n      mstore\n        /* \"#utility.yul\":13320:13324   */\n      0x41\n        /* \"#utility.yul\":13317:13318   */\n      0x04\n        /* \"#utility.yul\":13310:13325   */\n      mstore\n        /* \"#utility.yul\":13344:13348   */\n      0x24\n        /* \"#utility.yul\":13341:13342   */\n      0x00\n        /* \"#utility.yul\":13334:13349   */\n      revert\n        /* \"#utility.yul\":13361:13502   */\n    tag_284:\n        /* \"#utility.yul\":13410:13414   */\n      0x00\n        /* \"#utility.yul\":13433:13436   */\n      dup2\n        /* \"#utility.yul\":13425:13436   */\n      swap1\n      pop\n        /* \"#utility.yul\":13456:13459   */\n      dup2\n        /* \"#utility.yul\":13453:13454   */\n      0x00\n        /* \"#utility.yul\":13446:13460   */\n      mstore\n        /* \"#utility.yul\":13490:13494   */\n      0x20\n        /* \"#utility.yul\":13487:13488   */\n      0x00\n        /* \"#utility.yul\":13477:13495   */\n      keccak256\n        /* \"#utility.yul\":13469:13495   */\n      swap1\n      pop\n        /* \"#utility.yul\":13361:13502   */\n      swap2\n      swap1\n      pop\n      jump\t// out\n        /* \"#utility.yul\":13508:13601   */\n    tag_285:\n        /* \"#utility.yul\":13545:13551   */\n      0x00\n        /* \"#utility.yul\":13592:13594   */\n      0x20\n        /* \"#utility.yul\":13587:13589   */\n      0x1f\n        /* \"#utility.yul\":13580:13585   */\n      dup4\n        /* \"#utility.yul\":13576:13590   */\n      add\n        /* \"#utility.yul\":13572:13595   */\n      div\n        /* \"#utility.yul\":13562:13595   */\n      swap1\n      pop\n        /* \"#utility.yul\":13508:13601   */\n      swap2\n      swap1\n      pop\n      jump\t// out\n        /* \"#utility.yul\":13607:13714   */\n    tag_286:\n        /* \"#utility.yul\":13651:13659   */\n      0x00\n        /* \"#utility.yul\":13701:13706   */\n      dup3\n        /* \"#utility.yul\":13695:13699   */\n      dup3\n        /* \"#utility.yul\":13691:13707   */\n      shl\n        /* \"#utility.yul\":13670:13707   */\n      swap1\n      pop\n        /* \"#utility.yul\":13607:13714   */\n      swap3\n      swap2\n      pop\n      pop\n      jump\t// out\n        /* \"#utility.yul\":13720:14113   */\n    tag_287:\n        /* \"#utility.yul\":13789:13795   */\n      0x00\n        /* \"#utility.yul\":13839:13840   */\n      0x08\n        /* \"#utility.yul\":13827:13837   */\n      dup4\n        /* \"#utility.yul\":13823:13841   */\n      mul\n        /* \"#utility.yul\":13862:13959   */\n      tag_443\n        /* \"#utility.yul\":13892:13958   */\n      0xffffffffffffffffffffffffffffffffffffffffffffffffffffffffffffffff\n        /* \"#utility.yul\":13881:13890   */\n      dup3\n        /* \"#utility.yul\":13862:13959   */\n      tag_286\n      jump\t// in\n    tag_443:\n        /* \"#utility.yul\":13980:14019   */\n      tag_444\n        /* \"#utility.yul\":14010:14018   */\n      dup7\n        /* \"#utility.yul\":13999:14008   */\n      dup4\n        /* \"#utility.yul\":13980:14019   */\n      tag_286\n      jump\t// in\n    tag_444:\n        /* \"#utility.yul\":13968:14019   */\n      swap6\n      pop\n        /* \"#utility.yul\":14052:14056   */\n      dup1\n        /* \"#utility.yul\":14048:14057   */\n      not\n        /* \"#utility.yul\":14041:14046   */\n      dup5\n        /* \"#utility.yul\":14037:14058   */\n      and\n        /* \"#utility.yul\":14028:14058   */\n      swap4\n      pop\n        /* \"#utility.yul\":14101:14105   */\n      dup1\n        /* \"#utility.yul\":14091:14099   */\n      dup7\n        /* \"#utility.yul\":14087:14106   */\n      and\n        /* \"#utility.yul\":14080:14085   */\n      dup5\n        /* \"#utility.yul\":14077:14107   */\n      or\n        /* \"#utility.yul\":14067:14107   */\n      swap3\n      pop\n        /* \"#utility.yul\":13796:14113   */\n      pop\n      pop\n        /* \"#utility.yul\":13720:14113   */\n      swap4\n      swap3\n      pop\n      pop\n      pop\n      jump\t// out\n        /* \"#utility.yul\":14119:14261   */\n    tag_288:\n        /* \"#utility.yul\":14169:14178   */\n      0x00\n        /* \"#utility.yul\":14202:14255   */\n      tag_446\n        /* \"#utility.yul\":14220:14254   */\n      tag_447\n        /* \"#utility.yul\":14229:14253   */\n      tag_448\n        /* \"#utility.yul\":14247:14252   */\n      dup5\n        /* \"#utility.yul\":14229:14253   */\n      tag_249\n      jump\t// in\n    tag_448:\n        /* \"#utility.yul\":14220:14254   */\n      tag_266\n      jump\t// in\n    tag_447:\n        /* \"#utility.yul\":14202:14255   */\n      tag_249\n      jump\t// in\n    tag_446:\n        /* \"#utility.yul\":14189:14255   */\n      swap1\n      pop\n        /* \"#utility.yul\":14119:14261   */\n      swap2\n      swap1\n      pop\n      jump\t// out\n        /* \"#utility.yul\":14267:14342   */\n    tag_289:\n        /* \"#utility.yul\":14310:14313   */\n      0x00\n        /* \"#utility.yul\":14331:14336   */\n      dup2\n        /* \"#utility.yul\":14324:14336   */\n      swap1\n      pop\n        /* \"#utility.yul\":14267:14342   */\n      swap2\n      swap1\n      pop\n      jump\t// out\n        /* \"#utility.yul\":14348:14617   */\n    tag_290:\n        /* \"#utility.yul\":14458:14497   */\n      tag_451\n        /* \"#utility.yul\":14489:14496   */\n      dup4\n        /* \"#utility.yul\":14458:14497   */\n      tag_288\n      jump\t// in\n    tag_451:\n        /* \"#utility.yul\":14519:14610   */\n      tag_452\n        /* \"#utility.yul\":14568:14609   */\n      tag_453\n        /* \"#utility.yul\":14592:14608   */\n      dup3\n        /* \"#utility.yul\":14568:14609   */\n      tag_289\n      jump\t// in\n    tag_453:\n        /* \"#utility.yul\":14560:14566   */\n      dup5\n        /* \"#utility.yul\":14553:14557   */\n      dup5\n        /* \"#utility.yul\":14547:14558   */\n      sload\n        /* \"#utility.yul\":14519:14610   */\n      tag_287\n      jump\t// in\n    tag_452:\n        /* \"#utility.yul\":14513:14517   */\n      dup3\n        /* \"#utility.yul\":14506:14611   */\n      sstore\n        /* \"#utility.yul\":14424:14617   */\n      pop\n        /* \"#utility.yul\":14348:14617   */\n      pop\n      pop\n      pop\n      jump\t// out\n        /* \"#utility.yul\":14623:14696   */\n    tag_291:\n        /* \"#utility.yul\":14668:14671   */\n      0x00\n        /* \"#utility.yul\":14689:14690   */\n      0x00\n        /* \"#utility.yul\":14682:14690   */\n      swap1\n      pop\n        /* \"#utility.yul\":14623:14696   */\n      swap1\n      jump\t// out\n        /* \"#utility.yul\":14702:14891   */\n    tag_292:\n        /* \"#utility.yul\":14779:14811   */\n      tag_456\n      tag_291\n      jump\t// in\n    tag_456:\n        /* \"#utility.yul\":14820:14885   */\n      tag_457\n        /* \"#utility.yul\":14878:14884   */\n      dup2\n        /* \"#utility.yul\":14870:14876   */\n      dup5\n        /* \"#utility.yul\":14864:14868   */\n      dup5\n        /* \"#utility.yul\":14820:14885   */\n      tag_290\n      jump\t// in\n    tag_457:\n        /* \"#utility.yul\":14755:14891   */\n      pop\n        /* \"#utility.yul\":14702:14891   */\n      pop\n      pop\n      jump\t// out\n        /* \"#utility.yul\":14897:15083   */\n    tag_293:\n        /* \"#utility.yul\":14957:15077   */\n    tag_459:\n        /* \"#utility.yul\":14974:14977   */\n      dup2\n        /* \"#utility.yul\":14967:14972   */\n      dup2\n        /* \"#utility.yul\":14964:14978   */\n      lt\n        /* \"#utility.yul\":14957:15077   */\n      iszero\n      tag_461\n      jumpi\n        /* \"#utility.yul\":15028:15067   */\n      tag_462\n        /* \"#utility.yul\":15065:15066   */\n      0x00\n        /* \"#utility.yul\":15058:15063   */\n      dup3\n        /* \"#utility.yul\":15028:15067   */\n      tag_292\n      jump\t// in\n    tag_462:\n        /* \"#utility.yul\":15001:15002   */\n      0x01\n        /* \"#utility.yul\":14994:14999   */\n      dup2\n        /* \"#utility.yul\":14990:15003   */\n      add\n        /* \"#utility.yul\":14981:15003   */\n      swap1\n      pop\n        /* \"#utility.yul\":14957:15077   */\n      jump(tag_459)\n    tag_461:\n        /* \"#utility.yul\":14897:15083   */\n      pop\n      pop\n      jump\t// out\n        /* \"#utility.yul\":15089:15632   */\n    tag_294:\n        /* \"#utility.yul\":15190:15192   */\n      0x1f\n        /* \"#utility.yul\":15185:15188   */\n      dup3\n        /* \"#utility.yul\":15182:15193   */\n      gt\n        /* \"#utility.yul\":15179:15625   */\n      iszero\n      tag_464\n      jumpi\n        /* \"#utility.yul\":15224:15262   */\n      tag_465\n        /* \"#utility.yul\":15256:15261   */\n      dup2\n        /* \"#utility.yul\":15224:15262   */\n      tag_284\n      jump\t// in\n    tag_465:\n        /* \"#utility.yul\":15308:15337   */\n      tag_466\n        /* \"#utility.yul\":15326:15336   */\n      dup5\n        /* \"#utility.yul\":15308:15337   */\n      tag_285\n      jump\t// in\n    tag_466:\n        /* \"#utility.yul\":15298:15306   */\n      dup2\n        /* \"#utility.yul\":15294:15338   */\n      add\n        /* \"#utility.yul\":15491:15493   */\n      0x20\n        /* \"#utility.yul\":15479:15489   */\n      dup6\n        /* \"#utility.yul\":15476:15494   */\n      lt\n        /* \"#utility.yul\":15473:15522   */\n      iszero\n      tag_467\n      jumpi\n        /* \"#utility.yul\":15512:15520   */\n      dup2\n        /* \"#utility.yul\":15497:15520   */\n      swap1\n      pop\n        /* \"#utility.yul\":15473:15522   */\n    tag_467:\n        /* \"#utility.yul\":15535:15615   */\n      tag_468\n        /* \"#utility.yul\":15591:15613   */\n      tag_469\n        /* \"#utility.yul\":15609:15612   */\n      dup6\n        /* \"#utility.yul\":15591:15613   */\n      tag_285\n      jump\t// in\n    tag_469:\n        /* \"#utility.yul\":15581:15589   */\n      dup4\n        /* \"#utility.yul\":15577:15614   */\n      add\n        /* \"#utility.yul\":15564:15575   */\n      dup3\n        /* \"#utility.yul\":15535:15615   */\n      tag_293\n      jump\t// in\n    tag_468:\n        /* \"#utility.yul\":15194:15625   */\n      pop\n      pop\n        /* \"#utility.yul\":15179:15625   */\n    tag_464:\n        /* \"#utility.yul\":15089:15632   */\n      pop\n      pop\n      pop\n      jump\t// out\n        /* \"#utility.yul\":15638:15755   */\n    tag_295:\n        /* \"#utility.yul\":15692:15700   */\n      0x00\n        /* \"#utility.yul\":15742:15747   */\n      dup3\n        /* \"#utility.yul\":15736:15740   */\n      dup3\n        /* \"#utility.yul\":15732:15748   */\n      shr\n        /* \"#utility.yul\":15711:15748   */\n      swap1\n      pop\n        /* \"#utility.yul\":15638:15755   */\n      swap3\n      swap2\n      pop\n      pop\n      jump\t// out\n        /* \"#utility.yul\":15761:15930   */\n    tag_296:\n        /* \"#utility.yul\":15805:15811   */\n      0x00\n        /* \"#utility.yul\":15838:15889   */\n      tag_472\n        /* \"#utility.yul\":15886:15887   */\n      0x00\n        /* \"#utility.yul\":15882:15888   */\n      not\n        /* \"#utility.yul\":15874:15879   */\n      dup5\n        /* \"#utility.yul\":15871:15872   */\n      0x08\n        /* \"#utility.yul\":15867:15880   */\n      mul\n        /* \"#utility.yul\":15838:15889   */\n      tag_295\n      jump\t// in\n    tag_472:\n        /* \"#utility.yul\":15834:15890   */\n      not\n        /* \"#utility.yul\":15919:15923   */\n      dup1\n        /* \"#utility.yul\":15913:15917   */\n      dup4\n        /* \"#utility.yul\":15909:15924   */\n      and\n        /* \"#utility.yul\":15899:15924   */\n      swap2\n      pop\n        /* \"#utility.yul\":15812:15930   */\n      pop\n        /* \"#utility.yul\":15761:15930   */\n      swap3\n      swap2\n      pop\n      pop\n      jump\t// out\n        /* \"#utility.yul\":15935:16230   */\n    tag_297:\n        /* \"#utility.yul\":16011:16015   */\n      0x00\n        /* \"#utility.yul\":16157:16186   */\n      tag_474\n        /* \"#utility.yul\":16182:16185   */\n      dup4\n        /* \"#utility.yul\":16176:16180   */\n      dup4\n        /* \"#utility.yul\":16157:16186   */\n      tag_296\n      jump\t// in\n    tag_474:\n        /* \"#utility.yul\":16149:16186   */\n      swap2\n      pop\n        /* \"#utility.yul\":16219:16222   */\n      dup3\n        /* \"#utility.yul\":16216:16217   */\n      0x02\n        /* \"#utility.yul\":16212:16223   */\n      mul\n        /* \"#utility.yul\":16206:16210   */\n      dup3\n        /* \"#utility.yul\":16203:16224   */\n      or\n        /* \"#utility.yul\":16195:16224   */\n      swap1\n      pop\n        /* \"#utility.yul\":15935:16230   */\n      swap3\n      swap2\n      pop\n      pop\n      jump\t// out\n        /* \"#utility.yul\":16235:17630   */\n    tag_155:\n        /* \"#utility.yul\":16352:16389   */\n      tag_476\n        /* \"#utility.yul\":16385:16388   */\n      dup3\n        /* \"#utility.yul\":16352:16389   */\n      tag_252\n      jump\t// in\n    tag_476:\n        /* \"#utility.yul\":16454:16472   */\n      0xffffffffffffffff\n        /* \"#utility.yul\":16446:16452   */\n      dup2\n        /* \"#utility.yul\":16443:16473   */\n      gt\n        /* \"#utility.yul\":16440:16496   */\n      iszero\n      tag_477\n      jumpi\n        /* \"#utility.yul\":16476:16494   */\n      tag_478\n      tag_283\n      jump\t// in\n    tag_478:\n        /* \"#utility.yul\":16440:16496   */\n    tag_477:\n        /* \"#utility.yul\":16520:16558   */\n      tag_479\n        /* \"#utility.yul\":16552:16556   */\n      dup3\n        /* \"#utility.yul\":16546:16557   */\n      sload\n        /* \"#utility.yul\":16520:16558   */\n      tag_108\n      jump\t// in\n    tag_479:\n        /* \"#utility.yul\":16605:16672   */\n      tag_480\n        /* \"#utility.yul\":16665:16671   */\n      dup3\n        /* \"#utility.yul\":16657:16663   */\n      dup3\n        /* \"#utility.yul\":16651:16655   */\n      dup6\n        /* \"#utility.yul\":16605:16672   */\n      tag_294\n      jump\t// in\n    tag_480:\n        /* \"#utility.yul\":16699:16700   */\n      0x00\n        /* \"#utility.yul\":16723:16727   */\n      0x20\n        /* \"#utility.yul\":16710:16727   */\n      swap1\n      pop\n        /* \"#utility.yul\":16755:16757   */\n      0x1f\n        /* \"#utility.yul\":16747:16753   */\n      dup4\n        /* \"#utility.yul\":16744:16758   */\n      gt\n        /* \"#utility.yul\":16772:16773   */\n      0x01\n        /* \"#utility.yul\":16767:17385   */\n      dup2\n      eq\n      tag_482\n      jumpi\n        /* \"#utility.yul\":17429:17430   */\n      0x00\n        /* \"#utility.yul\":17446:17452   */\n      dup5\n        /* \"#utility.yul\":17443:17520   */\n      iszero\n      tag_483\n      jumpi\n        /* \"#utility.yul\":17495:17504   */\n      dup3\n        /* \"#utility.yul\":17490:17493   */\n      dup8\n        /* \"#utility.yul\":17486:17505   */\n      add\n        /* \"#utility.yul\":17480:17506   */\n      mload\n        /* \"#utility.yul\":17471:17506   */\n      swap1\n      pop\n        /* \"#utility.yul\":17443:17520   */\n    tag_483:\n        /* \"#utility.yul\":17546:17613   */\n      tag_484\n        /* \"#utility.yul\":17606:17612   */\n      dup6\n        /* \"#utility.yul\":17599:17604   */\n      dup3\n        /* \"#utility.yul\":17546:17613   */\n      tag_297\n      jump\t// in\n    tag_484:\n        /* \"#utility.yul\":17540:17544   */\n      dup7\n        /* \"#utility.yul\":17533:17614   */\n      sstore\n        /* \"#utility.yul\":17402:17624   */\n      pop\n        /* \"#utility.yul\":16737:17624   */\n      jump(tag_481)\n        /* \"#utility.yul\":16767:17385   */\n    tag_482:\n        /* \"#utility.yul\":16819:16823   */\n      0x1f\n        /* \"#utility.yul\":16815:16824   */\n      not\n        /* \"#utility.yul\":16807:16813   */\n      dup5\n        /* \"#utility.yul\":16803:16825   */\n      and\n        /* \"#utility.yul\":16853:16890   */\n      tag_485\n        /* \"#utility.yul\":16885:16889   */\n      dup7\n        /* \"#utility.yul\":16853:16890   */\n      tag_284\n      jump\t// in\n    tag_485:\n        /* \"#utility.yul\":16912:16913   */\n      0x00\n        /* \"#utility.yul\":16926:17134   */\n    tag_486:\n        /* \"#utility.yul\":16940:16947   */\n      dup3\n        /* \"#utility.yul\":16937:16938   */\n      dup2\n        /* \"#utility.yul\":16934:16948   */\n      lt\n        /* \"#utility.yul\":16926:17134   */\n      iszero\n      tag_488\n      jumpi\n        /* \"#utility.yul\":17019:17028   */\n      dup5\n        /* \"#utility.yul\":17014:17017   */\n      dup10\n        /* \"#utility.yul\":17010:17029   */\n      add\n        /* \"#utility.yul\":17004:17030   */\n      mload\n        /* \"#utility.yul\":16996:17002   */\n      dup3\n        /* \"#utility.yul\":16989:17031   */\n      sstore\n        /* \"#utility.yul\":17070:17071   */\n      0x01\n        /* \"#utility.yul\":17062:17068   */\n      dup3\n        /* \"#utility.yul\":17058:17072   */\n      add\n        /* \"#utility.yul\":17048:17072   */\n      swap2\n      pop\n        /* \"#utility.yul\":17117:17119   */\n      0x20\n        /* \"#utility.yul\":17106:17115   */\n      dup6\n        /* \"#utility.yul\":17102:17120   */\n      add\n        /* \"#utility.yul\":17089:17120   */\n      swap5\n      pop\n        /* \"#utility.yul\":16963:16967   */\n      0x20\n        /* \"#utility.yul\":16960:16961   */\n      dup2\n        /* \"#utility.yul\":16956:16968   */\n      add\n        /* \"#utility.yul\":16951:16968   */\n      swap1\n      pop\n        /* \"#utility.yul\":16926:17134   */\n      jump(tag_486)\n    tag_488:\n        /* \"#utility.yul\":17162:17168   */\n      dup7\n        /* \"#utility.yul\":17153:17160   */\n      dup4\n        /* \"#utility.yul\":17150:17169   */\n      lt\n        /* \"#utility.yul\":17147:17326   */\n      iszero\n      tag_489\n      jumpi\n        /* \"#utility.yul\":17220:17229   */\n      dup5\n        /* \"#utility.yul\":17215:17218   */\n      dup10\n        /* \"#utility.yul\":17211:17230   */\n      add\n        /* \"#utility.yul\":17205:17231   */\n      mload\n        /* \"#utility.yul\":17263:17311   */\n      tag_490\n        /* \"#utility.yul\":17305:17309   */\n      0x1f\n        /* \"#utility.yul\":17297:17303   */\n      dup10\n        /* \"#utility.yul\":17293:17310   */\n      and\n        /* \"#utility.yul\":17282:17291   */\n      dup3\n        /* \"#utility.yul\":17263:17311   */\n      tag_296\n      jump\t// in\n    tag_490:\n        /* \"#utility.yul\":17255:17261   */\n      dup4\n        /* \"#utility.yul\":17248:17312   */\n      sstore\n        /* \"#utility.yul\":17170:17326   */\n      pop\n        /* \"#utility.yul\":17147:17326   */\n    tag_489:\n        /* \"#utility.yul\":17372:17373   */\n      0x01\n        /* \"#utility.yul\":17368:17369   */\n      0x02\n        /* \"#utility.yul\":17360:17366   */\n      dup9\n        /* \"#utility.yul\":17356:17370   */\n      mul\n        /* \"#utility.yul\":17352:17374   */\n      add\n        /* \"#utility.yul\":17346:17350   */\n      dup9\n        /* \"#utility.yul\":17339:17375   */\n      sstore\n        /* \"#utility.yul\":16774:17385   */\n      pop\n      pop\n      pop\n        /* \"#utility.yul\":16737:17624   */\n    tag_481:\n      pop\n        /* \"#utility.yul\":16327:17630   */\n      pop\n      pop\n      pop\n        /* \"#utility.yul\":16235:17630   */\n      pop\n      pop\n      jump\t// out\n        /* \"#utility.yul\":17636:17784   */\n    tag_298:\n        /* \"#utility.yul\":17734:17740   */\n      dup3\n        /* \"#utility.yul\":17729:17732   */\n      dup2\n        /* \"#utility.yul\":17724:17727   */\n      dup4\n        /* \"#utility.yul\":17711:17741   */\n      calldatacopy\n        /* \"#utility.yul\":17775:17776   */\n      0x00\n        /* \"#utility.yul\":17766:17772   */\n      dup4\n        /* \"#utility.yul\":17761:17764   */\n      dup4\n        /* \"#utility.yul\":17757:17773   */\n      add\n        /* \"#utility.yul\":17750:17777   */\n      mstore\n        /* \"#utility.yul\":17636:17784   */\n      pop\n      pop\n      pop\n      jump\t// out\n        /* \"#utility.yul\":17814:18131   */\n    tag_299:\n        /* \"#utility.yul\":17912:17915   */\n      0x00\n        /* \"#utility.yul\":17933:18004   */\n      tag_493\n        /* \"#utility.yul\":17997:18003   */\n      dup4\n        /* \"#utility.yul\":17992:17995   */\n      dup6\n        /* \"#utility.yul\":17933:18004   */\n      tag_253\n      jump\t// in\n    tag_493:\n        /* \"#utility.yul\":17926:18004   */\n      swap4\n      pop\n        /* \"#utility.yul\":18014:18070   */\n      tag_494\n        /* \"#utility.yul\":18063:18069   */\n      dup4\n        /* \"#utility.yul\":18058:18061   */\n      dup6\n        /* \"#utility.yul\":18051:18056   */\n      dup5\n        /* \"#utility.yul\":18014:18070   */\n      tag_298\n      jump\t// in\n    tag_494:\n        /* \"#utility.yul\":18095:18124   */\n      tag_495\n        /* \"#utility.yul\":18117:18123   */\n      dup4\n        /* \"#utility.yul\":18095:18124   */\n      tag_255\n      jump\t// in\n    tag_495:\n        /* \"#utility.yul\":18090:18093   */\n      dup5\n        /* \"#utility.yul\":18086:18125   */\n      add\n        /* \"#utility.yul\":18079:18125   */\n      swap1\n      pop\n        /* \"#utility.yul\":17814:18131   */\n      swap4\n      swap3\n      pop\n      pop\n      pop\n      jump\t// out\n        /* \"#utility.yul\":18137:18470   */\n    tag_157:\n        /* \"#utility.yul\":18260:18264   */\n      0x00\n        /* \"#utility.yul\":18298:18300   */\n      0x20\n        /* \"#utility.yul\":18287:18296   */\n      dup3\n        /* \"#utility.yul\":18283:18301   */\n      add\n        /* \"#utility.yul\":18275:18301   */\n      swap1\n      pop\n        /* \"#utility.yul\":18347:18356   */\n      dup2\n        /* \"#utility.yul\":18341:18345   */\n      dup2\n        /* \"#utility.yul\":18337:18357   */\n      sub\n        /* \"#utility.yul\":18333:18334   */\n      0x00\n        /* \"#utility.yul\":18322:18331   */\n      dup4\n        /* \"#utility.yul\":18318:18335   */\n      add\n        /* \"#utility.yul\":18311:18358   */\n      mstore\n        /* \"#utility.yul\":18375:18463   */\n      tag_497\n        /* \"#utility.yul\":18458:18462   */\n      dup2\n        /* \"#utility.yul\":18449:18455   */\n      dup5\n        /* \"#utility.yul\":18441:18447   */\n      dup7\n        /* \"#utility.yul\":18375:18463   */\n      tag_299\n      jump\t// in\n    tag_497:\n        /* \"#utility.yul\":18367:18463   */\n      swap1\n      pop\n        /* \"#utility.yul\":18137:18470   */\n      swap4\n      swap3\n      pop\n      pop\n      pop\n      jump\t// out\n        /* \"#utility.yul\":18476:18639   */\n    tag_300:\n        /* \"#utility.yul\":18616:18631   */\n      0x4e6f74206d6964646c656d616e00000000000000000000000000000000000000\n        /* \"#utility.yul\":18612:18613   */\n      0x00\n        /* \"#utility.yul\":18604:18610   */\n      dup3\n        /* \"#utility.yul\":18600:18614   */\n      add\n        /* \"#utility.yul\":18593:18632   */\n      mstore\n        /* \"#utility.yul\":18476:18639   */\n      pop\n      jump\t// out\n        /* \"#utility.yul\":18645:19011   */\n    tag_301:\n        /* \"#utility.yul\":18787:18790   */\n      0x00\n        /* \"#utility.yul\":18808:18875   */\n      tag_500\n        /* \"#utility.yul\":18872:18874   */\n      0x0d\n        /* \"#utility.yul\":18867:18870   */\n      dup4\n        /* \"#utility.yul\":18808:18875   */\n      tag_253\n      jump\t// in\n    tag_500:\n        /* \"#utility.yul\":18801:18875   */\n      swap2\n      pop\n        /* \"#utility.yul\":18884:18977   */\n      tag_501\n        /* \"#utility.yul\":18973:18976   */\n      dup3\n        /* \"#utility.yul\":18884:18977   */\n      tag_300\n      jump\t// in\n    tag_501:\n        /* \"#utility.yul\":19002:19004   */\n      0x20\n        /* \"#utility.yul\":18997:19000   */\n      dup3\n        /* \"#utility.yul\":18993:19005   */\n      add\n        /* \"#utility.yul\":18986:19005   */\n      swap1\n      pop\n        /* \"#utility.yul\":18645:19011   */\n      swap2\n      swap1\n      pop\n      jump\t// out\n        /* \"#utility.yul\":19017:19436   */\n    tag_165:\n        /* \"#utility.yul\":19183:19187   */\n      0x00\n        /* \"#utility.yul\":19221:19223   */\n      0x20\n        /* \"#utility.yul\":19210:19219   */\n      dup3\n        /* \"#utility.yul\":19206:19224   */\n      add\n        /* \"#utility.yul\":19198:19224   */\n      swap1\n      pop\n        /* \"#utility.yul\":19270:19279   */\n      dup2\n        /* \"#utility.yul\":19264:19268   */\n      dup2\n        /* \"#utility.yul\":19260:19280   */\n      sub\n        /* \"#utility.yul\":19256:19257   */\n      0x00\n        /* \"#utility.yul\":19245:19254   */\n      dup4\n        /* \"#utility.yul\":19241:19258   */\n      add\n        /* \"#utility.yul\":19234:19281   */\n      mstore\n        /* \"#utility.yul\":19298:19429   */\n      tag_503\n        /* \"#utility.yul\":19424:19428   */\n      dup2\n        /* \"#utility.yul\":19298:19429   */\n      tag_301\n      jump\t// in\n    tag_503:\n        /* \"#utility.yul\":19290:19429   */\n      swap1\n      pop\n        /* \"#utility.yul\":19017:19436   */\n      swap2\n      swap1\n      pop\n      jump\t// out\n        /* \"#utility.yul\":19442:19609   */\n    tag_302:\n        /* \"#utility.yul\":19582:19601   */\n      0x4e6f20636f6c6c6563746f722064617461000000000000000000000000000000\n        /* \"#utility.yul\":19578:19579   */\n      0x00\n        /* \"#utility.yul\":19570:19576   */\n      dup3\n        /* \"#utility.yul\":19566:19580   */\n      add\n        /* \"#utility.yul\":19559:19602   */\n      mstore\n        /* \"#utility.yul\":19442:19609   */\n      pop\n      jump\t// out\n        /* \"#utility.yul\":19615:19981   */\n    tag_303:\n        /* \"#utility.yul\":19757:19760   */\n      0x00\n        /* \"#utility.yul\":19778:19845   */\n      tag_506\n        /* \"#utility.yul\":19842:19844   */\n      0x11\n        /* \"#utility.yul\":19837:19840   */\n      dup4\n        /* \"#utility.yul\":19778:19845   */\n      tag_253\n      jump\t// in\n    tag_506:\n        /* \"#utility.yul\":19771:19845   */\n      swap2\n      pop\n        /* \"#utility.yul\":19854:19947   */\n      tag_507\n        /* \"#utility.yul\":19943:19946   */\n      dup3\n        /* \"#utility.yul\":19854:19947   */\n      tag_302\n      jump\t// in\n    tag_507:\n        /* \"#utility.yul\":19972:19974   */\n      0x20\n        /* \"#utility.yul\":19967:19970   */\n      dup3\n        /* \"#utility.yul\":19963:19975   */\n      add\n        /* \"#utility.yul\":19956:19975   */\n      swap1\n      pop\n        /* \"#utility.yul\":19615:19981   */\n      swap2\n      swap1\n      pop\n      jump\t// out\n        /* \"#utility.yul\":19987:20406   */\n    tag_168:\n        /* \"#utility.yul\":20153:20157   */\n      0x00\n        /* \"#utility.yul\":20191:20193   */\n      0x20\n        /* \"#utility.yul\":20180:20189   */\n      dup3\n        /* \"#utility.yul\":20176:20194   */\n      add\n        /* \"#utility.yul\":20168:20194   */\n      swap1\n      pop\n        /* \"#utility.yul\":20240:20249   */\n      dup2\n        /* \"#utility.yul\":20234:20238   */\n      dup2\n        /* \"#utility.yul\":20230:20250   */\n      sub\n        /* \"#utility.yul\":20226:20227   */\n      0x00\n        /* \"#utility.yul\":20215:20224   */\n      dup4\n        /* \"#utility.yul\":20211:20228   */\n      add\n        /* \"#utility.yul\":20204:20251   */\n      mstore\n        /* \"#utility.yul\":20268:20399   */\n      tag_509\n        /* \"#utility.yul\":20394:20398   */\n      dup2\n        /* \"#utility.yul\":20268:20399   */\n      tag_303\n      jump\t// in\n    tag_509:\n        /* \"#utility.yul\":20260:20399   */\n      swap1\n      pop\n        /* \"#utility.yul\":19987:20406   */\n      swap2\n      swap1\n      pop\n      jump\t// out\n        /* \"#utility.yul\":20412:20569   */\n    tag_304:\n        /* \"#utility.yul\":20552:20561   */\n      0x4e6f74206c616200000000000000000000000000000000000000000000000000\n        /* \"#utility.yul\":20548:20549   */\n      0x00\n        /* \"#utility.yul\":20540:20546   */\n      dup3\n        /* \"#utility.yul\":20536:20550   */\n      add\n        /* \"#utility.yul\":20529:20562   */\n      mstore\n        /* \"#utility.yul\":20412:20569   */\n      pop\n      jump\t// out\n        /* \"#utility.yul\":20575:20940   */\n    tag_305:\n        /* \"#utility.yul\":20717:20720   */\n      0x00\n        /* \"#utility.yul\":20738:20804   */\n      tag_512\n        /* \"#utility.yul\":20802:20803   */\n      0x07\n        /* \"#utility.yul\":20797:20800   */\n      dup4\n        /* \"#utility.yul\":20738:20804   */\n      tag_253\n      jump\t// in\n    tag_512:\n        /* \"#utility.yul\":20731:20804   */\n      swap2\n      pop\n        /* \"#utility.yul\":20813:20906   */\n      tag_513\n        /* \"#utility.yul\":20902:20905   */\n      dup3\n        /* \"#utility.yul\":20813:20906   */\n      tag_304\n      jump\t// in\n    tag_513:\n        /* \"#utility.yul\":20931:20933   */\n      0x20\n        /* \"#utility.yul\":20926:20929   */\n      dup3\n        /* \"#utility.yul\":20922:20934   */\n      add\n        /* \"#utility.yul\":20915:20934   */\n      swap1\n      pop\n        /* \"#utility.yul\":20575:20940   */\n      swap2\n      swap1\n      pop\n      jump\t// out\n        /* \"#utility.yul\":20946:21365   */\n    tag_197:\n        /* \"#utility.yul\":21112:21116   */\n      0x00\n        /* \"#utility.yul\":21150:21152   */\n      0x20\n        /* \"#utility.yul\":21139:21148   */\n      dup3\n        /* \"#utility.yul\":21135:21153   */\n      add\n        /* \"#utility.yul\":21127:21153   */\n      swap1\n      pop\n        /* \"#utility.yul\":21199:21208   */\n      dup2\n        /* \"#utility.yul\":21193:21197   */\n      dup2\n        /* \"#utility.yul\":21189:21209   */\n      sub\n        /* \"#utility.yul\":21185:21186   */\n      0x00\n        /* \"#utility.yul\":21174:21183   */\n      dup4\n        /* \"#utility.yul\":21170:21187   */\n      add\n        /* \"#utility.yul\":21163:21210   */\n      mstore\n        /* \"#utility.yul\":21227:21358   */\n      tag_515\n        /* \"#utility.yul\":21353:21357   */\n      dup2\n        /* \"#utility.yul\":21227:21358   */\n      tag_305\n      jump\t// in\n    tag_515:\n        /* \"#utility.yul\":21219:21358   */\n      swap1\n      pop\n        /* \"#utility.yul\":20946:21365   */\n      swap2\n      swap1\n      pop\n      jump\t// out\n        /* \"#utility.yul\":21371:21538   */\n    tag_306:\n        /* \"#utility.yul\":21511:21530   */\n      0x4e6f206d6964646c656d616e2064617461000000000000000000000000000000\n        /* \"#utility.yul\":21507:21508   */\n      0x00\n        /* \"#utility.yul\":21499:21505   */\n      dup3\n        /* \"#utility.yul\":21495:21509   */\n      add\n        /* \"#utility.yul\":21488:21531   */\n      mstore\n        /* \"#utility.yul\":21371:21538   */\n      pop\n      jump\t// out\n        /* \"#utility.yul\":21544:21910   */\n    tag_307:\n        /* \"#utility.yul\":21686:21689   */\n      0x00\n        /* \"#utility.yul\":21707:21774   */\n      tag_518\n        /* \"#utility.yul\":21771:21773   */\n      0x11\n        /* \"#utility.yul\":21766:21769   */\n      dup4\n        /* \"#utility.yul\":21707:21774   */\n      tag_253\n      jump\t// in\n    tag_518:\n        /* \"#utility.yul\":21700:21774   */\n      swap2\n      pop\n        /* \"#utility.yul\":21783:21876   */\n      tag_519\n        /* \"#utility.yul\":21872:21875   */\n      dup3\n        /* \"#utility.yul\":21783:21876   */\n      tag_306\n      jump\t// in\n    tag_519:\n        /* \"#utility.yul\":21901:21903   */\n      0x20\n        /* \"#utility.yul\":21896:21899   */\n      dup3\n        /* \"#utility.yul\":21892:21904   */\n      add\n        /* \"#utility.yul\":21885:21904   */\n      swap1\n      pop\n        /* \"#utility.yul\":21544:21910   */\n      swap2\n      swap1\n      pop\n      jump\t// out\n        /* \"#utility.yul\":21916:22335   */\n    tag_200:\n        /* \"#utility.yul\":22082:22086   */\n      0x00\n        /* \"#utility.yul\":22120:22122   */\n      0x20\n        /* \"#utility.yul\":22109:22118   */\n      dup3\n        /* \"#utility.yul\":22105:22123   */\n      add\n        /* \"#utility.yul\":22097:22123   */\n      swap1\n      pop\n        /* \"#utility.yul\":22169:22178   */\n      dup2\n        /* \"#utility.yul\":22163:22167   */\n      dup2\n        /* \"#utility.yul\":22159:22179   */\n      sub\n        /* \"#utility.yul\":22155:22156   */\n      0x00\n        /* \"#utility.yul\":22144:22153   */\n      dup4\n        /* \"#utility.yul\":22140:22157   */\n      add\n        /* \"#utility.yul\":22133:22180   */\n      mstore\n        /* \"#utility.yul\":22197:22328   */\n      tag_521\n        /* \"#utility.yul\":22323:22327   */\n      dup2\n        /* \"#utility.yul\":22197:22328   */\n      tag_307\n      jump\t// in\n    tag_521:\n        /* \"#utility.yul\":22189:22328   */\n      swap1\n      pop\n        /* \"#utility.yul\":21916:22335   */\n      swap2\n      swap1\n      pop\n      jump\t// out\n        /* \"#utility.yul\":22341:22504   */\n    tag_308:\n        /* \"#utility.yul\":22481:22496   */\n      0x4e6f7420636f6c6c6563746f7200000000000000000000000000000000000000\n        /* \"#utility.yul\":22477:22478   */\n      0x00\n        /* \"#utility.yul\":22469:22475   */\n      dup3\n        /* \"#utility.yul\":22465:22479   */\n      add\n        /* \"#utility.yul\":22458:22497   */\n      mstore\n        /* \"#utility.yul\":22341:22504   */\n      pop\n      jump\t// out\n        /* \"#utility.yul\":22510:22876   */\n    tag_309:\n        /* \"#utility.yul\":22652:22655   */\n      0x00\n        /* \"#utility.yul\":22673:22740   */\n      tag_524\n        /* \"#utility.yul\":22737:22739   */\n      0x0d\n        /* \"#utility.yul\":22732:22735   */\n      dup4\n        /* \"#utility.yul\":22673:22740   */\n      tag_253\n      jump\t// in\n    tag_524:\n        /* \"#utility.yul\":22666:22740   */\n      swap2\n      pop\n        /* \"#utility.yul\":22749:22842   */\n      tag_525\n        /* \"#utility.yul\":22838:22841   */\n      dup3\n        /* \"#utility.yul\":22749:22842   */\n      tag_308\n      jump\t// in\n    tag_525:\n        /* \"#utility.yul\":22867:22869   */\n      0x20\n        /* \"#utility.yul\":22862:22865   */\n      dup3\n        /* \"#utility.yul\":22858:22870   */\n      add\n        /* \"#utility.yul\":22851:22870   */\n      swap1\n      pop\n        /* \"#utility.yul\":22510:22876   */\n      swap2\n      swap1\n      pop\n      jump\t// out\n        /* \"#utility.yul\":22882:23301   */\n    tag_212:\n        /* \"#utility.yul\":23048:23052   */\n      0x00\n        /* \"#utility.yul\":23086:23088   */\n      0x20\n        /* \"#utility.yul\":23075:23084   */\n      dup3\n        /* \"#utility.yul\":23071:23089   */\n      add\n        /* \"#utility.yul\":23063:23089   */\n      swap1\n      pop\n        /* \"#utility.yul\":23135:23144   */\n      dup2\n        /* \"#utility.yul\":23129:23133   */\n      dup2\n        /* \"#utility.yul\":23125:23145   */\n      sub\n        /* \"#utility.yul\":23121:23122   */\n      0x00\n        /* \"#utility.yul\":23110:23119   */\n      dup4\n        /* \"#utility.yul\":23106:23123   */\n      add\n        /* \"#utility.yul\":23099:23146   */\n      mstore\n        /* \"#utility.yul\":23163:23294   */\n      tag_527\n        /* \"#utility.yul\":23289:23293   */\n      dup2\n        /* \"#utility.yul\":23163:23294   */\n      tag_309\n      jump\t// in\n    tag_527:\n        /* \"#utility.yul\":23155:23294   */\n      swap1\n      pop\n        /* \"#utility.yul\":22882:23301   */\n      swap2\n      swap1\n      pop\n      jump\t// out\n        /* \"#utility.yul\":23307:23487   */\n    tag_310:\n        /* \"#utility.yul\":23355:23432   */\n      0x4e487b7100000000000000000000000000000000000000000000000000000000\n        /* \"#utility.yul\":23352:23353   */\n      0x00\n        /* \"#utility.yul\":23345:23433   */\n      mstore\n        /* \"#utility.yul\":23452:23456   */\n      0x11\n        /* \"#utility.yul\":23449:23450   */\n      0x04\n        /* \"#utility.yul\":23442:23457   */\n      mstore\n        /* \"#utility.yul\":23476:23480   */\n      0x24\n        /* \"#utility.yul\":23473:23474   */\n      0x00\n        /* \"#utility.yul\":23466:23481   */\n      revert\n        /* \"#utility.yul\":23493:23726   */\n    tag_214:\n        /* \"#utility.yul\":23532:23535   */\n      0x00\n        /* \"#utility.yul\":23555:23579   */\n      tag_530\n        /* \"#utility.yul\":23573:23578   */\n      dup3\n        /* \"#utility.yul\":23555:23579   */\n      tag_249\n      jump\t// in\n    tag_530:\n        /* \"#utility.yul\":23546:23579   */\n      swap2\n      pop\n        /* \"#utility.yul\":23601:23667   */\n      0xffffffffffffffffffffffffffffffffffffffffffffffffffffffffffffffff\n        /* \"#utility.yul\":23594:23599   */\n      dup3\n        /* \"#utility.yul\":23591:23668   */\n      sub\n        /* \"#utility.yul\":23588:23691   */\n      tag_531\n      jumpi\n        /* \"#utility.yul\":23671:23689   */\n      tag_532\n      tag_310\n      jump\t// in\n    tag_532:\n        /* \"#utility.yul\":23588:23691   */\n    tag_531:\n        /* \"#utility.yul\":23718:23719   */\n      0x01\n        /* \"#utility.yul\":23711:23716   */\n      dup3\n        /* \"#utility.yul\":23707:23720   */\n      add\n        /* \"#utility.yul\":23700:23720   */\n      swap1\n      pop\n        /* \"#utility.yul\":23493:23726   */\n      swap2\n      swap1\n      pop\n      jump\t// out\n\n    auxdata: 0xa2646970667358221220d844b66dcd235ce3abda7cd6082e2d274331940f841db17e0d59bdddccfdb30064736f6c634300081e0033\n}\n",
    "bytecode": {
      "linkReferences": {},
      "object": "608060405234801561000f575f5ffd5b5060405161262438038061262483398181016040528101906100319190610142565b5f73ffffffffffffffffffffffffffffffffffffffff168173ffffffffffffffffffffffffffffffffffffffff160361009f576040517f08c379a0000000000000000000000000000000000000000000000000000000008152600401610096906101c7565b60405180910390fd5b805f5f6101000a81548173ffffffffffffffffffffffffffffffffffffffff021916908373ffffffffffffffffffffffffffffffffffffffff160217905550506101e5565b5f5ffd5b5f73ffffffffffffffffffffffffffffffffffffffff82169050919050565b5f610111826100e8565b9050919050565b61012181610107565b811461012b575f5ffd5b50565b5f8151905061013c81610118565b92915050565b5f60208284031215610157576101566100e4565b5b5f6101648482850161012e565b91505092915050565b5f82825260208201905092915050565b7f48657262446174613a20726567697374727920726571756972656400000000005f82015250565b5f6101b1601b8361016d565b91506101bc8261017d565b602082019050919050565b5f6020820190508181035f8301526101de816101a5565b9050919050565b612432806101f25f395ff3fe608060405234801561000f575f5ffd5b5060043610610129575f3560e01c80638462a7f8116100ab578063c64afcf01161006f578063c64afcf014610385578063cbfa5a00146103b5578063e9ac2d8b146103e5578063f0a0d04b14610403578063fc85583e1461042157610129565b80638462a7f8146102b75780638c4de232146102d557806392b8f021146102f1578063a2e79bae14610321578063b32c4d8d1461035157610129565b8063302d1fdf116100f2578063302d1fdf146101e957806338e98a291461020557806361d06b891461023957806364b4cde8146102695780637b1039991461029957610129565b8062c91e8c1461012d578063013444b5146101615780630da0aff71461017f5780630ec0643e1461019d5780631ab5a7b7146101cd575b5f5ffd5b610147600480360381019061014291906118a2565b610451565b60405161015895949392919061193d565b60405180910390f35b610169610782565b60405161017691906119cc565b60405180910390f35b610187610787565b60405161019491906119cc565b60405180910390f35b6101b760048036038101906101b291906118a2565b61078c565b6040516101c491906119e5565b60405180910390f35b6101e760048036038101906101e29190611a66565b61082c565b005b61020360048036038101906101fe9190611a66565b610a99565b005b61021f600480360381019061021a91906118a2565b610d05565b604051610230959493929190611add565b60405180910390f35b610253600480360381019061024e91906118a2565b610e07565b60405161026091906119e5565b60405180910390f35b610283600480360381019061027e91906118a2565b610ea7565b60405161029091906119e5565b60405180910390f35b6102a1610f4a565b6040516102ae9190611baf565b60405180910390f35b6102bf610f6e565b6040516102cc9190611bd7565b60405180910390f35b6102ef60048036038101906102ea9190611a66565b610f74565b005b61030b60048036038101906103069190611bf0565b6111e1565b6040516103189190611bd7565b60405180910390f35b61033b600480360381019061033691906118a2565b6114ec565b60405161034891906119e5565b60405180910390f35b61036b600480360381019061036691906118a2565b61158f565b60405161037c959493929190611add565b60405180910390f35b61039f600480360381019061039a91906118a2565b61167a565b6040516103ac91906119e5565b60405180910390f35b6103cf60048036038101906103ca91906118a2565b61171a565b6040516103dc91906119e5565b60405180910390f35b6103ed6117bd565b6040516103fa91906119cc565b60405180910390f35b61040b6117c2565b60405161041891906119cc565b60405180910390f35b61043b600480360381019061043691906118a2565b6117c7565b60405161044891906119e5565b60405180910390f35b60608060608060605f60025f8881526020019081526020015f209050805f0160035f8981526020019081526020015f205f0160045f8a81526020019081526020015f205f0160055f8b81526020019081526020015f205f0160065f8c81526020019081526020015f205f018480546104c890611c9b565b80601f01602080910402602001604051908101604052809291908181526020018280546104f490611c9b565b801561053f5780601f106105165761010080835404028352916020019161053f565b820191905f5260205f20905b81548152906001019060200180831161052257829003601f168201915b5050505050945083805461055290611c9b565b80601f016020809104026020016040519081016040528092919081815260200182805461057e90611c9b565b80156105c95780601f106105a0576101008083540402835291602001916105c9565b820191905f5260205f20905b8154815290600101906020018083116105ac57829003601f168201915b505050505093508280546105dc90611c9b565b80601f016020809104026020016040519081016040528092919081815260200182805461060890611c9b565b80156106535780601f1061062a57610100808354040283529160200191610653565b820191905f5260205f20905b81548152906001019060200180831161063657829003601f168201915b5050505050925081805461066690611c9b565b80601f016020809104026020016040519081016040528092919081815260200182805461069290611c9b565b80156106dd5780601f106106b4576101008083540402835291602001916106dd565b820191905f5260205f20905b8154815290600101906020018083116106c057829003601f168201915b505050505091508080546106f090611c9b565b80601f016020809104026020016040519081016040528092919081815260200182805461071c90611c9b565b80156107675780601f1061073e57610100808354040283529160200191610767565b820191905f5260205f20905b81548152906001019060200180831161074a57829003601f168201915b50505050509050955095509550955095505091939590929450565b600481565b600281565b6005602052805f5260405f205f91509050805f0180546107ab90611c9b565b80601f01602080910402602001604051908101604052809291908181526020018280546107d790611c9b565b80156108225780601f106107f957610100808354040283529160200191610822565b820191905f5260205f20905b81548152906001019060200180831161080557829003601f168201915b5050505050905081565b5f60085f5f9054906101000a900473ffffffffffffffffffffffffffffffffffffffff1673ffffffffffffffffffffffffffffffffffffffff166399374642336040518263ffffffff1660e01b81526004016108889190611ceb565b602060405180830381865afa1580156108a3573d5f5f3e3d5ffd5b505050506040513d601f19601f820116820180604052508101906108c79190611d2e565b1660ff160361090b576040517f08c379a000000000000000000000000000000000000000000000000000000000815260040161090290611da3565b60405180910390fd5b5f60025f8581526020019081526020015f2090508060010160029054906101000a900460ff16610970576040517f08c379a000000000000000000000000000000000000000000000000000000000815260040161096790611e0b565b60405180910390fd5b8060010160039054906101000a900460ff16156109c2576040517f08c379a00000000000000000000000000000000000000000000000000000000081526004016109b990611e73565b60405180910390fd5b604051806020016040528084848080601f0160208091040260200160405190810160405280939291908181526020018383808284375f81840152601f19601f8201169050808301925050505050505081525060065f8681526020019081526020015f205f820151815f019081610a389190612055565b5090505060018160010160036101000a81548160ff021916908315150217905550837f3d04355b29c64fbfe91609eead5aa92d6a1bcfd0902ed07ba808224d0bb31be38484604051610a8b92919061215e565b60405180910390a250505050565b5f60025f5f9054906101000a900473ffffffffffffffffffffffffffffffffffffffff1673ffffffffffffffffffffffffffffffffffffffff166399374642336040518263ffffffff1660e01b8152600401610af59190611ceb565b602060405180830381865afa158015610b10573d5f5f3e3d5ffd5b505050506040513d601f19601f82011682018060405250810190610b349190611d2e565b1660ff1603610b78576040517f08c379a0000000000000000000000000000000000000000000000000000000008152600401610b6f906121ca565b60405180910390fd5b5f60025f8581526020019081526020015f209050806001015f9054906101000a900460ff16610bdc576040517f08c379a0000000000000000000000000000000000000000000000000000000008152600401610bd390612232565b60405180910390fd5b8060010160019054906101000a900460ff1615610c2e576040517f08c379a0000000000000000000000000000000000000000000000000000000008152600401610c2590611e73565b60405180910390fd5b604051806020016040528084848080601f0160208091040260200160405190810160405280939291908181526020018383808284375f81840152601f19601f8201169050808301925050505050505081525060045f8681526020019081526020015f205f820151815f019081610ca49190612055565b5090505060018160010160016101000a81548160ff021916908315150217905550837f5148daa68469b25c705ba6ba110a8e2bde01213580d8d47a383c6b96b9aa17e38484604051610cf792919061215e565b60405180910390a250505050565b60605f5f5f5f5f60025f8881526020019081526020015f209050805f01816001015f9054906101000a900460ff168260010160019054906101000a900460ff168360010160029054906101000a900460ff168460010160039054906101000a900460ff16848054610d7590611c9b565b80601f0160208091040260200160405190810160405280929190818152602001828054610da190611c9b565b8015610dec5780601f10610dc357610100808354040283529160200191610dec565b820191905f5260205f20905b815481529060010190602001808311610dcf57829003601f168201915b50505050509450955095509550955095505091939590929450565b6003602052805f5260405f205f91509050805f018054610e2690611c9b565b80601f0160208091040260200160405190810160405280929190818152602001828054610e5290611c9b565b8015610e9d5780601f10610e7457610100808354040283529160200191610e9d565b820191905f5260205f20905b815481529060010190602001808311610e8057829003601f168201915b5050505050905081565b606060045f8381526020019081526020015f205f018054610ec790611c9b565b80601f0160208091040260200160405190810160405280929190818152602001828054610ef390611c9b565b8015610f3e5780601f10610f1557610100808354040283529160200191610f3e565b820191905f5260205f20905b815481529060010190602001808311610f2157829003601f168201915b50505050509050919050565b5f5f9054906101000a900473ffffffffffffffffffffffffffffffffffffffff1681565b60015481565b5f60045f5f9054906101000a900473ffffffffffffffffffffffffffffffffffffffff1673ffffffffffffffffffffffffffffffffffffffff166399374642336040518263ffffffff1660e01b8152600401610fd09190611ceb565b602060405180830381865afa158015610feb573d5f5f3e3d5ffd5b505050506040513d601f19601f8201168201806040525081019061100f9190611d2e565b1660ff1603611053576040517f08c379a000000000000000000000000000000000000000000000000000000000815260040161104a9061229a565b60405180910390fd5b5f60025f8581526020019081526020015f2090508060010160019054906101000a900460ff166110b8576040517f08c379a00000000000000000000000000000000000000000000000000000000081526004016110af90612302565b60405180910390fd5b8060010160029054906101000a900460ff161561110a576040517f08c379a000000000000000000000000000000000000000000000000000000000815260040161110190611e73565b60405180910390fd5b604051806020016040528084848080601f0160208091040260200160405190810160405280939291908181526020018383808284375f81840152601f19601f8201169050808301925050505050505081525060055f8681526020019081526020015f205f820151815f0190816111809190612055565b5090505060018160010160026101000a81548160ff021916908315150217905550837f488f1c0ce4bb72b2af29a9856186010014aa950b6e6cfd626b4b05f6fcbad74684846040516111d392919061215e565b60405180910390a250505050565b5f5f60015f5f9054906101000a900473ffffffffffffffffffffffffffffffffffffffff1673ffffffffffffffffffffffffffffffffffffffff166399374642336040518263ffffffff1660e01b815260040161123e9190611ceb565b602060405180830381865afa158015611259573d5f5f3e3d5ffd5b505050506040513d601f19601f8201168201806040525081019061127d9190611d2e565b1660ff16036112c1576040517f08c379a00000000000000000000000000000000000000000000000000000000081526004016112b89061236a565b60405180910390fd5b5f60015f81546112d0906123b5565b91905081905590506040518060a0016040528087878080601f0160208091040260200160405190810160405280939291908181526020018383808284375f81840152601f19601f8201169050808301925050505050505081526020016001151581526020015f151581526020015f151581526020015f151581525060025f8381526020019081526020015f205f820151815f01908161136f9190612055565b506020820151816001015f6101000a81548160ff02191690831515021790555060408201518160010160016101000a81548160ff02191690831515021790555060608201518160010160026101000a81548160ff02191690831515021790555060808201518160010160036101000a81548160ff021916908315150217905550905050604051806020016040528085858080601f0160208091040260200160405190810160405280939291908181526020018383808284375f81840152601f19601f8201169050808301925050505050505081525060035f8381526020019081526020015f205f820151815f0190816114689190612055565b50905050807f65d0897ef90523e0e840598aac93f29c40c60164ddb22532dfd3a79515757376878760405161149e92919061215e565b60405180910390a2807f674b21d9b91e2a6a3e017790742e8eeeb6d1e18f8a7f8dfcf9cea406760d1ccd85856040516114d892919061215e565b60405180910390a280915050949350505050565b606060055f8381526020019081526020015f205f01805461150c90611c9b565b80601f016020809104026020016040519081016040528092919081815260200182805461153890611c9b565b80156115835780601f1061155a57610100808354040283529160200191611583565b820191905f5260205f20905b81548152906001019060200180831161156657829003601f168201915b50505050509050919050565b6002602052805f5260405f205f91509050805f0180546115ae90611c9b565b80601f01602080910402602001604051908101604052809291908181526020018280546115da90611c9b565b80156116255780601f106115fc57610100808354040283529160200191611625565b820191905f5260205f20905b81548152906001019060200180831161160857829003601f168201915b505050505090806001015f9054906101000a900460ff16908060010160019054906101000a900460ff16908060010160029054906101000a900460ff16908060010160039054906101000a900460ff16905085565b6006602052805f5260405f205f91509050805f01805461169990611c9b565b80601f01602080910402602001604051908101604052809291908181526020018280546116c590611c9b565b80156117105780601f106116e757610100808354040283529160200191611710565b820191905f5260205f20905b8154815290600101906020018083116116f357829003601f168201915b5050505050905081565b606060035f8381526020019081526020015f205f01805461173a90611c9b565b80601f016020809104026020016040519081016040528092919081815260200182805461176690611c9b565b80156117b15780601f10611788576101008083540402835291602001916117b1565b820191905f5260205f20905b81548152906001019060200180831161179457829003601f168201915b50505050509050919050565b600881565b600181565b6004602052805f5260405f205f91509050805f0180546117e690611c9b565b80601f016020809104026020016040519081016040528092919081815260200182805461181290611c9b565b801561185d5780601f106118345761010080835404028352916020019161185d565b820191905f5260205f20905b81548152906001019060200180831161184057829003601f168201915b5050505050905081565b5f5ffd5b5f5ffd5b5f819050919050565b6118818161186f565b811461188b575f5ffd5b50565b5f8135905061189c81611878565b92915050565b5f602082840312156118b7576118b6611867565b5b5f6118c48482850161188e565b91505092915050565b5f81519050919050565b5f82825260208201905092915050565b8281835e5f83830152505050565b5f601f19601f8301169050919050565b5f61190f826118cd565b61191981856118d7565b93506119298185602086016118e7565b611932816118f5565b840191505092915050565b5f60a0820190508181035f8301526119558188611905565b905081810360208301526119698187611905565b9050818103604083015261197d8186611905565b905081810360608301526119918185611905565b905081810360808301526119a58184611905565b90509695505050505050565b5f60ff82169050919050565b6119c6816119b1565b82525050565b5f6020820190506119df5f8301846119bd565b92915050565b5f6020820190508181035f8301526119fd8184611905565b905092915050565b5f5ffd5b5f5ffd5b5f5ffd5b5f5f83601f840112611a2657611a25611a05565b5b8235905067ffffffffffffffff811115611a4357611a42611a09565b5b602083019150836001820283011115611a5f57611a5e611a0d565b5b9250929050565b5f5f5f60408486031215611a7d57611a7c611867565b5b5f611a8a8682870161188e565b935050602084013567ffffffffffffffff811115611aab57611aaa61186b565b5b611ab786828701611a11565b92509250509250925092565b5f8115159050919050565b611ad781611ac3565b82525050565b5f60a0820190508181035f830152611af58188611905565b9050611b046020830187611ace565b611b116040830186611ace565b611b1e6060830185611ace565b611b2b6080830184611ace565b9695505050505050565b5f73ffffffffffffffffffffffffffffffffffffffff82169050919050565b5f819050919050565b5f611b77611b72611b6d84611b35565b611b54565b611b35565b9050919050565b5f611b8882611b5d565b9050919050565b5f611b9982611b7e565b9050919050565b611ba981611b8f565b82525050565b5f602082019050611bc25f830184611ba0565b92915050565b611bd18161186f565b82525050565b5f602082019050611bea5f830184611bc8565b92915050565b5f5f5f5f60408587031215611c0857611c07611867565b5b5f85013567ffffffffffffffff811115611c2557611c2461186b565b5b611c3187828801611a11565b9450945050602085013567ffffffffffffffff811115611c5457611c5361186b565b5b611c6087828801611a11565b925092505092959194509250565b7f4e487b71000000000000000000000000000000000000000000000000000000005f52602260045260245ffd5b5f6002820490506001821680611cb257607f821691505b602082108103611cc557611cc4611c6e565b5b50919050565b5f611cd582611b35565b9050919050565b611ce581611ccb565b82525050565b5f602082019050611cfe5f830184611cdc565b92915050565b611d0d816119b1565b8114611d17575f5ffd5b50565b5f81519050611d2881611d04565b92915050565b5f60208284031215611d4357611d42611867565b5b5f611d5084828501611d1a565b91505092915050565b7f4e6f74206d616e756661637475726572000000000000000000000000000000005f82015250565b5f611d8d6010836118d7565b9150611d9882611d59565b602082019050919050565b5f6020820190508181035f830152611dba81611d81565b9050919050565b7f4e6f206c616220646174610000000000000000000000000000000000000000005f82015250565b5f611df5600b836118d7565b9150611e0082611dc1565b602082019050919050565b5f6020820190508181035f830152611e2281611de9565b9050919050565b7f416c7265616479206164646564000000000000000000000000000000000000005f82015250565b5f611e5d600d836118d7565b9150611e6882611e29565b602082019050919050565b5f6020820190508181035f830152611e8a81611e51565b9050919050565b7f4e487b71000000000000000000000000000000000000000000000000000000005f52604160045260245ffd5b5f819050815f5260205f209050919050565b5f6020601f8301049050919050565b5f82821b905092915050565b5f60088302611f1a7fffffffffffffffffffffffffffffffffffffffffffffffffffffffffffffffff82611edf565b611f248683611edf565b95508019841693508086168417925050509392505050565b5f611f56611f51611f4c8461186f565b611b54565b61186f565b9050919050565b5f819050919050565b611f6f83611f3c565b611f83611f7b82611f5d565b848454611eeb565b825550505050565b5f5f905090565b611f9a611f8b565b611fa5818484611f66565b505050565b5b81811015611fc857611fbd5f82611f92565b600181019050611fab565b5050565b601f82111561200d57611fde81611ebe565b611fe784611ed0565b81016020851015611ff6578190505b61200a61200285611ed0565b830182611faa565b50505b505050565b5f82821c905092915050565b5f61202d5f1984600802612012565b1980831691505092915050565b5f612045838361201e565b9150826002028217905092915050565b61205e826118cd565b67ffffffffffffffff81111561207757612076611e91565b5b6120818254611c9b565b61208c828285611fcc565b5f60209050601f8311600181146120bd575f84156120ab578287015190505b6120b5858261203a565b86555061211c565b601f1984166120cb86611ebe565b5f5b828110156120f2578489015182556001820191506020850194506020810190506120cd565b8683101561210f578489015161210b601f89168261201e565b8355505b6001600288020188555050505b505050505050565b828183375f83830152505050565b5f61213d83856118d7565b935061214a838584612124565b612153836118f5565b840190509392505050565b5f6020820190508181035f830152612177818486612132565b90509392505050565b7f4e6f74206d6964646c656d616e000000000000000000000000000000000000005f82015250565b5f6121b4600d836118d7565b91506121bf82612180565b602082019050919050565b5f6020820190508181035f8301526121e1816121a8565b9050919050565b7f4e6f20636f6c6c6563746f7220646174610000000000000000000000000000005f82015250565b5f61221c6011836118d7565b9150612227826121e8565b602082019050919050565b5f6020820190508181035f83015261224981612210565b9050919050565b7f4e6f74206c6162000000000000000000000000000000000000000000000000005f82015250565b5f6122846007836118d7565b915061228f82612250565b602082019050919050565b5f6020820190508181035f8301526122b181612278565b9050919050565b7f4e6f206d6964646c656d616e20646174610000000000000000000000000000005f82015250565b5f6122ec6011836118d7565b91506122f7826122b8565b602082019050919050565b5f6020820190508181035f830152612319816122e0565b9050919050565b7f4e6f7420636f6c6c6563746f72000000000000000000000000000000000000005f82015250565b5f612354600d836118d7565b915061235f82612320565b602082019050919050565b5f6020820190508181035f83015261238181612348565b9050919050565b7f4e487b71000000000000000000000000000000000000000000000000000000005f52601160045260245ffd5b5f6123bf8261186f565b91507fffffffffffffffffffffffffffffffffffffffffffffffffffffffffffffffff82036123f1576123f0612388565b5b60018201905091905056fea2646970667358221220d844b66dcd235ce3abda7cd6082e2d274331940f841db17e0d59bdddccfdb30064736f6c634300081e0033",
      "opcodes": "PUSH1 0x80 PUSH1 0x40 MSTORE CALLVALUE DUP1 ISZERO PUSH2 0xF JUMPI PUSH0 PUSH0 REVERT JUMPDEST POP PUSH1 0x40 MLOAD PUSH2 0x2624 CODESIZE SUB DUP1 PUSH2 0x2624 DUP4 CODECOPY DUP2 DUP2 ADD PUSH1 0x40 MSTORE DUP2 ADD SWAP1 PUSH2 0x31 SWAP2 SWAP1 PUSH2 0x142 JUMP JUMPDEST PUSH0 PUSH20 0xFFFFFFFFFFFFFFFFFFFFFFFFFFFFFFFFFFFFFFFF AND DUP2 PUSH20 0xFFFFFFFFFFFFFFFFFFFFFFFFFFFFFFFFFFFFFFFF AND SUB PUSH2 0x9F JUMPI PUSH1 0x40 MLOAD PUSH32 0x8C379A000000000000000000000000000000000000000000000000000000000 DUP2 MSTORE PUSH1 0x4 ADD PUSH2 0x96 SWAP1 PUSH2 0x1C7 JUMP JUMPDEST PUSH1 0x40 MLOAD DUP1 SWAP2 SUB SWAP1 REVERT JUMPDEST DUP1 PUSH0 PUSH0 PUSH2 0x100 EXP DUP2 SLOAD DUP2 PUSH20 0xFFFFFFFFFFFFFFFFFFFFFFFFFFFFFFFFFFFFFFFF MUL NOT AND SWAP1 DUP4 PUSH20 0xFFFFFFFFFFFFFFFFFFFFFFFFFFFFFFFFFFFFFFFF AND MUL OR SWAP1 SSTORE POP POP PUSH2 0x1E5 JUMP JUMPDEST PUSH0 PUSH0 REVERT JUMPDEST PUSH0 PUSH20 0xFFFFFFFFFFFFFFFFFFFFFFFFFFFFFFFFFFFFFFFF DUP3 AND SWAP1 POP SWAP2 SWAP1 POP JUMP JUMPDEST PUSH0 PUSH2 0x111 DUP3 PUSH2 0xE8 JUMP JUMPDEST SWAP1 POP SWAP2 SWAP1 POP JUMP JUMPDEST PUSH2 0x121 DUP2 PUSH2 0x107 JUMP JUMPDEST DUP2 EQ PUSH2 0x12B JUMPI PUSH0 PUSH0 REVERT JUMPDEST POP JUMP JUMPDEST PUSH0 DUP2 MLOAD SWAP1 POP PUSH2 0x13C DUP2 PUSH2 0x118 JUMP JUMPDEST SWAP3 SWAP2 POP POP JUMP JUMPDEST PUSH0 PUSH1 0x20 DUP3 DUP5 SUB SLT ISZERO PUSH2 0x157 JUMPI PUSH2 0x156 PUSH2 0xE4 JUMP JUMPDEST JUMPDEST PUSH0 PUSH2 0x164 DUP5 DUP3 DUP6 ADD PUSH2 0x12E JUMP JUMPDEST SWAP2 POP POP SWAP3 SWAP2 POP POP JUMP JUMPDEST PUSH0 DUP3 DUP3 MSTORE PUSH1 0x20 DUP3 ADD SWAP1 POP SWAP3 SWAP2 POP POP JUMP JUMPDEST PUSH32 0x48657262446174613A2072656769737472792072657175697265640000000000 PUSH0 DUP3 ADD MSTORE POP JUMP JUMPDEST PUSH0 PUSH2 0x1B1 PUSH1 0x1B DUP4 PUSH2 0x16D JUMP JUMPDEST SWAP2 POP PUSH2 0x1BC DUP3 PUSH2 0x17D JUMP JUMPDEST PUSH1 0x20 DUP3 ADD SWAP1 POP SWAP2 SWAP1 POP JUMP JUMPDEST PUSH0 PUSH1 0x20 DUP3 ADD SWAP1 POP DUP2 DUP2 SUB PUSH0 DUP4 ADD MSTORE PUSH2 0x1DE DUP2 PUSH2 0x1A5 JUMP JUMPDEST SWAP1 POP SWAP2 SWAP1 POP JUMP JUMPDEST PUSH2 0x2432 DUP1 PUSH2 0x1F2 PUSH0 CODECOPY PUSH0 RETURN INVALID PUSH1 0x80 PUSH1 0x40 MSTORE CALLVALUE DUP1 ISZERO PUSH2 0xF JUMPI PUSH0 PUSH0 REVERT JUMPDEST POP PUSH1 0x4 CALLDATASIZE LT PUSH2 0x129 JUMPI PUSH0 CALLDATALOAD PUSH1 0xE0 SHR DUP1 PUSH4 0x8462A7F8 GT PUSH2 0xAB JUMPI DUP1 PUSH4 0xC64AFCF0 GT PUSH2 0x6F JUMPI DUP1 PUSH4 0xC64AFCF0 EQ PUSH2 0x385 JUMPI DUP1 PUSH4 0xCBFA5A00 EQ PUSH2 0x3B5 JUMPI DUP1 PUSH4 0xE9AC2D8B EQ PUSH2 0x3E5 JUMPI DUP1 PUSH4 0xF0A0D04B EQ PUSH2 0x403 JUMPI DUP1 PUSH4 0xFC85583E EQ PUSH2 0x421 JUMPI PUSH2 0x129 JUMP JUMPDEST DUP1 PUSH4 0x8462A7F8 EQ PUSH2 0x2B7 JUMPI DUP1 PUSH4 0x8C4DE232 EQ PUSH2 0x2D5 JUMPI DUP1 PUSH4 0x92B8F021 EQ PUSH2 0x2F1 JUMPI DUP1 PUSH4 0xA2E79BAE EQ PUSH2 0x321 JUMPI DUP1 PUSH4 0xB32C4D8D EQ PUSH2 0x351 JUMPI PUSH2 0x129 JUMP JUMPDEST DUP1 PUSH4 0x302D1FDF GT PUSH2 0xF2 JUMPI DUP1 PUSH4 0x302D1FDF EQ PUSH2 0x1E9 JUMPI DUP1 PUSH4 0x38E98A29 EQ PUSH2 0x205 JUMPI DUP1 PUSH4 0x61D06B89 EQ PUSH2 0x239 JUMPI DUP1 PUSH4 0x64B4CDE8 EQ PUSH2 0x269 JUMPI DUP1 PUSH4 0x7B103999 EQ PUSH2 0x299 JUMPI PUSH2 0x129 JUMP JUMPDEST DUP1 PUSH3 0xC91E8C EQ PUSH2 0x12D JUMPI DUP1 PUSH4 0x13444B5 EQ PUSH2 0x161 JUMPI DUP1 PUSH4 0xDA0AFF7 EQ PUSH2 0x17F JUMPI DUP1 PUSH4 0xEC0643E EQ PUSH2 0x19D JUMPI DUP1 PUSH4 0x1AB5A7B7 EQ PUSH2 0x1CD JUMPI JUMPDEST PUSH0 PUSH0 REVERT JUMPDEST PUSH2 0x147 PUSH1 0x4 DUP1 CALLDATASIZE SUB DUP2 ADD SWAP1 PUSH2 0x142 SWAP2 SWAP1 PUSH2 0x18A2 JUMP JUMPDEST PUSH2 0x451 JUMP JUMPDEST PUSH1 0x40 MLOAD PUSH2 0x158 SWAP6 SWAP5 SWAP4 SWAP3 SWAP2 SWAP1 PUSH2 0x193D JUMP JUMPDEST PUSH1 0x40 MLOAD DUP1 SWAP2 SUB SWAP1 RETURN JUMPDEST PUSH2 0x169 PUSH2 0x782 JUMP JUMPDEST PUSH1 0x40 MLOAD PUSH2 0x176 SWAP2 SWAP1 PUSH2 0x19CC JUMP JUMPDEST PUSH1 0x40 MLOAD DUP1 SWAP2 SUB SWAP1 RETURN JUMPDEST PUSH2 0x187 PUSH2 0x787 JUMP JUMPDEST PUSH1 0x40 MLOAD PUSH2 0x194 SWAP2 SWAP1 PUSH2 0x19CC JUMP JUMPDEST PUSH1 0x40 MLOAD DUP1 SWAP2 SUB SWAP1 RETURN JUMPDEST PUSH2 0x1B7 PUSH1 0x4 DUP1 CALLDATASIZE SUB DUP2 ADD SWAP1 PUSH2 0x1B2 SWAP2 SWAP1 PUSH2 0x18A2 JUMP JUMPDEST PUSH2 0x78C JUMP JUMPDEST PUSH1 0x40 MLOAD PUSH2 0x1C4 SWAP2 SWAP1 PUSH2 0x19E5 JUMP JUMPDEST PUSH1 0x40 MLOAD DUP1 SWAP2 SUB SWAP1 RETURN JUMPDEST PUSH2 0x1E7 PUSH1 0x4 DUP1 CALLDATASIZE SUB DUP2 ADD SWAP1 PUSH2 0x1E2 SWAP2 SWAP1 PUSH2 0x1A66 JUMP JUMPDEST PUSH2 0x82C JUMP JUMPDEST STOP JUMPDEST PUSH2 0x203 PUSH1 0x4 DUP1 CALLDATASIZE SUB DUP2 ADD SWAP1 PUSH2 0x1FE SWAP2 SWAP1 PUSH2 0x1A66 JUMP JUMPDEST PUSH2 0xA99 JUMP JUMPDEST STOP JUMPDEST PUSH2 0x21F PUSH1 0x4 DUP1 CALLDATASIZE SUB DUP2 ADD SWAP1 PUSH2 0x21A SWAP2 SWAP1 PUSH2 0x18A2 JUMP JUMPDEST PUSH2 0xD05 JUMP JUMPDEST PUSH1 0x40 MLOAD PUSH2 0x230 SWAP6 SWAP5 SWAP4 SWAP3 SWAP2 SWAP1 PUSH2 0x1ADD JUMP JUMPDEST PUSH1 0x40 MLOAD DUP1 SWAP2 SUB SWAP1 RETURN JUMPDEST PUSH2 0x253 PUSH1 0x4 DUP1 CALLDATASIZE SUB DUP2 ADD SWAP1 PUSH2 0x24E SWAP2 SWAP1 PUSH2 0x18A2 JUMP JUMPDEST PUSH2 0xE07 JUMP JUMPDEST PUSH1 0x40 MLOAD PUSH2 0x260 SWAP2 SWAP1 PUSH2 0x19E5 JUMP JUMPDEST PUSH1 0x40 MLOAD DUP1 SWAP2 SUB SWAP1 RETURN JUMPDEST PUSH2 0x283 PUSH1 0x4 DUP1 CALLDATASIZE SUB DUP2 ADD SWAP1 PUSH2 0x27E SWAP2 SWAP1 PUSH2 0x18A2 JUMP JUMPDEST PUSH2 0xEA7 JUMP JUMPDEST PUSH1 0x40 MLOAD PUSH2 0x290 SWAP2 SWAP1 PUSH2 0x19E5 JUMP JUMPDEST PUSH1 0x40 MLOAD DUP1 SWAP2 SUB SWAP1 RETURN JUMPDEST PUSH2 0x2A1 PUSH2 0xF4A JUMP JUMPDEST PUSH1 0x40 MLOAD PUSH2 0x2AE SWAP2 SWAP1 PUSH2 0x1BAF JUMP JUMPDEST PUSH1 0x40 MLOAD DUP1 SWAP2 SUB SWAP1 RETURN JUMPDEST PUSH2 0x2BF PUSH2 0xF6E JUMP JUMPDEST PUSH1 0x40 MLOAD PUSH2 0x2CC SWAP2 SWAP1 PUSH2 0x1BD7 JUMP JUMPDEST PUSH1 0x40 MLOAD DUP1 SWAP2 SUB SWAP1 RETURN JUMPDEST PUSH2 0x2EF PUSH1 0x4 DUP1 CALLDATASIZE SUB DUP2 ADD SWAP1 PUSH2 0x2EA SWAP2 SWAP1 PUSH2 0x1A66 JUMP JUMPDEST PUSH2 0xF74 JUMP JUMPDEST STOP JUMPDEST PUSH2 0x30B PUSH1 0x4 DUP1 CALLDATASIZE SUB DUP2 ADD SWAP1 PUSH2 0x306 SWAP2 SWAP1 PUSH2 0x1BF0 JUMP JUMPDEST PUSH2 0x11E1 JUMP JUMPDEST PUSH1 0x40 MLOAD PUSH2 0x318 SWAP2 SWAP1 PUSH2 0x1BD7 JUMP JUMPDEST PUSH1 0x40 MLOAD DUP1 SWAP2 SUB SWAP1 RETURN JUMPDEST PUSH2 0x33B PUSH1 0x4 DUP1 CALLDATASIZE SUB DUP2 ADD SWAP1 PUSH2 0x336 SWAP2 SWAP1 PUSH2 0x18A2 JUMP JUMPDEST PUSH2 0x14EC JUMP JUMPDEST PUSH1 0x40 MLOAD PUSH2 0x348 SWAP2 SWAP1 PUSH2 0x19E5 JUMP JUMPDEST PUSH1 0x40 MLOAD DUP1 SWAP2 SUB SWAP1 RETURN JUMPDEST PUSH2 0x36B PUSH1 0x4 DUP1 CALLDATASIZE SUB DUP2 ADD SWAP1 PUSH2 0x366 SWAP2 SWAP1 PUSH2 0x18A2 JUMP JUMPDEST PUSH2 0x158F JUMP JUMPDEST PUSH1 0x40 MLOAD PUSH2 0x37C SWAP6 SWAP5 SWAP4 SWAP3 SWAP2 SWAP1 PUSH2 0x1ADD JUMP JUMPDEST PUSH1 0x40 MLOAD DUP1 SWAP2 SUB SWAP1 RETURN JUMPDEST PUSH2 0x39F PUSH1 0x4 DUP1 CALLDATASIZE SUB DUP2 ADD SWAP1 PUSH2 0x39A SWAP2 SWAP1 PUSH2 0x18A2 JUMP JUMPDEST PUSH2 0x167A JUMP JUMPDEST PUSH1 0x40 MLOAD PUSH2 0x3AC SWAP2 SWAP1 PUSH2 0x19E5 JUMP JUMPDEST PUSH1 0x40 MLOAD DUP1 SWAP2 SUB SWAP1 RETURN JUMPDEST PUSH2 0x3CF PUSH1 0x4 DUP1 CALLDATASIZE SUB DUP2 ADD SWAP1 PUSH2 0x3CA SWAP2 SWAP1 PUSH2 0x18A2 JUMP JUMPDEST PUSH2 0x171A JUMP JUMPDEST PUSH1 0x40 MLOAD PUSH2 0x3DC SWAP2 SWAP1 PUSH2 0x19E5 JUMP JUMPDEST PUSH1 0x40 MLOAD DUP1 SWAP2 SUB SWAP1 RETURN JUMPDEST PUSH2 0x3ED PUSH2 0x17BD JUMP JUMPDEST PUSH1 0x40 MLOAD PUSH2 0x3FA SWAP2 SWAP1 PUSH2 0x19CC JUMP JUMPDEST PUSH1 0x40 MLOAD DUP1 SWAP2 SUB SWAP1 RETURN JUMPDEST PUSH2 0x40B PUSH2 0x17C2 JUMP JUMPDEST PUSH1 0x40 MLOAD PUSH2 0x418 SWAP2 SWAP1 PUSH2 0x19CC JUMP JUMPDEST PUSH1 0x40 MLOAD DUP1 SWAP2 SUB SWAP1 RETURN JUMPDEST PUSH2 0x43B PUSH1 0x4 DUP1 CALLDATASIZE SUB DUP2 ADD SWAP1 PUSH2 0x436 SWAP2 SWAP1 PUSH2 0x18A2 JUMP JUMPDEST PUSH2 0x17C7 JUMP JUMPDEST PUSH1 0x40 MLOAD PUSH2 0x448 SWAP2 SWAP1 PUSH2 0x19E5 JUMP JUMPDEST PUSH1 0x40 MLOAD DUP1 SWAP2 SUB SWAP1 RETURN JUMPDEST PUSH1 0x60 DUP1 PUSH1 0x60 DUP1 PUSH1 0x60 PUSH0 PUSH1 0x2 PUSH0 DUP9 DUP2 MSTORE PUSH1 0x20 ADD SWAP1 DUP2 MSTORE PUSH1 0x20 ADD PUSH0 KECCAK256 SWAP1 POP DUP1 PUSH0 ADD PUSH1 0x3 PUSH0 DUP10 DUP2 MSTORE PUSH1 0x20 ADD SWAP1 DUP2 MSTORE PUSH1 0x20 ADD PUSH0 KECCAK256 PUSH0 ADD PUSH1 0x4 PUSH0 DUP11 DUP2 MSTORE PUSH1 0x20 ADD SWAP1 DUP2 MSTORE PUSH1 0x20 ADD PUSH0 KECCAK256 PUSH0 ADD PUSH1 0x5 PUSH0 DUP12 DUP2 MSTORE PUSH1 0x20 ADD SWAP1 DUP2 MSTORE PUSH1 0x20 ADD PUSH0 KECCAK256 PUSH0 ADD PUSH1 0x6 PUSH0 DUP13 DUP2 MSTORE PUSH1 0x20 ADD SWAP1 DUP2 MSTORE PUSH1 0x20 ADD PUSH0 KECCAK256 PUSH0 ADD DUP5 DUP1 SLOAD PUSH2 0x4C8 SWAP1 PUSH2 0x1C9B JUMP JUMPDEST DUP1 PUSH1 0x1F ADD PUSH1 0x20 DUP1 SWAP2 DIV MUL PUSH1 0x20 ADD PUSH1 0x40 MLOAD SWAP1 DUP2 ADD PUSH1 0x40 MSTORE DUP1 SWAP3 SWAP2 SWAP1 DUP2 DUP2 MSTORE PUSH1 0x20 ADD DUP3 DUP1 SLOAD PUSH2 0x4F4 SWAP1 PUSH2 0x1C9B JUMP JUMPDEST DUP1 ISZERO PUSH2 0x53F JUMPI DUP1 PUSH1 0x1F LT PUSH2 0x516 JUMPI PUSH2 0x100 DUP1 DUP4 SLOAD DIV MUL DUP4 MSTORE SWAP2 PUSH1 0x20 ADD SWAP2 PUSH2 0x53F JUMP JUMPDEST DUP3 ADD SWAP2 SWAP1 PUSH0 MSTORE PUSH1 0x20 PUSH0 KECCAK256 SWAP1 JUMPDEST DUP2 SLOAD DUP2 MSTORE SWAP1 PUSH1 0x1 ADD SWAP1 PUSH1 0x20 ADD DUP1 DUP4 GT PUSH2 0x522 JUMPI DUP3 SWAP1 SUB PUSH1 0x1F AND DUP3 ADD SWAP2 JUMPDEST POP POP POP POP POP SWAP5 POP DUP4 DUP1 SLOAD PUSH2 0x552 SWAP1 PUSH2 0x1C9B JUMP JUMPDEST DUP1 PUSH1 0x1F ADD PUSH1 0x20 DUP1 SWAP2 DIV MUL PUSH1 0x20 ADD PUSH1 0x40 MLOAD SWAP1 DUP2 ADD PUSH1 0x40 MSTORE DUP1 SWAP3 SWAP2 SWAP1 DUP2 DUP2 MSTORE PUSH1 0x20 ADD DUP3 DUP1 SLOAD PUSH2 0x57E SWAP1 PUSH2 0x1C9B JUMP JUMPDEST DUP1 ISZERO PUSH2 0x5C9 JUMPI DUP1 PUSH1 0x1F LT PUSH2 0x5A0 JUMPI PUSH2 0x100 DUP1 DUP4 SLOAD DIV MUL DUP4 MSTORE SWAP2 PUSH1 0x20 ADD SWAP2 PUSH2 0x5C9 JUMP JUMPDEST DUP3 ADD SWAP2 SWAP1 PUSH0 MSTORE PUSH1 0x20 PUSH0 KECCAK256 SWAP1 JUMPDEST DUP2 SLOAD DUP2 MSTORE SWAP1 PUSH1 0x1 ADD SWAP1 PUSH1 0x20 ADD DUP1 DUP4 GT PUSH2 0x5AC JUMPI DUP3 SWAP1 SUB PUSH1 0x1F AND DUP3 ADD SWAP2 JUMPDEST POP POP POP POP POP SWAP4 POP DUP3 DUP1 SLOAD PUSH2 0x5DC SWAP1 PUSH2 0x1C9B JUMP JUMPDEST DUP1 PUSH1 0x1F ADD PUSH1 0x20 DUP1 SWAP2 DIV MUL PUSH1 0x20 ADD PUSH1 0x40 MLOAD SWAP1 DUP2 ADD PUSH1 0x40 MSTORE DUP1 SWAP3 SWAP2 SWAP1 DUP2 DUP2 MSTORE PUSH1 0x20 ADD DUP3 DUP1 SLOAD PUSH2 0x608 SWAP1 PUSH2 0x1C9B JUMP JUMPDEST DUP1 ISZERO PUSH2 0x653 JUMPI DUP1 PUSH1 0x1F LT PUSH2 0x62A JUMPI PUSH2 0x100 DUP1 DUP4 SLOAD DIV MUL DUP4 MSTORE SWAP2 PUSH1 0x20 ADD SWAP2 PUSH2 0x653 JUMP JUMPDEST DUP3 ADD SWAP2 SWAP1 PUSH0 MSTORE PUSH1 0x20 PUSH0 KECCAK256 SWAP1 JUMPDEST DUP2 SLOAD DUP2 MSTORE SWAP1 PUSH1 0x1 ADD SWAP1 PUSH1 0x20 ADD DUP1 DUP4 GT PUSH2 0x636 JUMPI DUP3 SWAP1 SUB PUSH1 0x1F AND DUP3 ADD SWAP2 JUMPDEST POP POP POP POP POP SWAP3 POP DUP2 DUP1 SLOAD PUSH2 0x666 SWAP1 PUSH2 0x1C9B JUMP JUMPDEST DUP1 PUSH1 0x1F ADD PUSH1 0x20 DUP1 SWAP2 DIV MUL PUSH1 0x20 ADD PUSH1 0x40 MLOAD SWAP1 DUP2 ADD PUSH1 0x40 MSTORE DUP1 SWAP3 SWAP2 SWAP1 DUP2 DUP2 MSTORE PUSH1 0x20 ADD DUP3 DUP1 SLOAD PUSH2 0x692 SWAP1 PUSH2 0x1C9B JUMP JUMPDEST DUP1 ISZERO PUSH2 0x6DD JUMPI DUP1 PUSH1 0x1F LT PUSH2 0x6B4 JUMPI PUSH2 0x100 DUP1 DUP4 SLOAD DIV MUL DUP4 MSTORE SWAP2 PUSH1 0x20 ADD SWAP2 PUSH2 0x6DD JUMP JUMPDEST DUP3 ADD SWAP2 SWAP1 PUSH0 MSTORE PUSH1 0x20 PUSH0 KECCAK256 SWAP1 JUMPDEST DUP2 SLOAD DUP2 MSTORE SWAP1 PUSH1 0x1 ADD SWAP1 PUSH1 0x20 ADD DUP1 DUP4 GT PUSH2 0x6C0 JUMPI DUP3 SWAP1 SUB PUSH1 0x1F AND DUP3 ADD SWAP2 JUMPDEST POP POP POP POP POP SWAP2 POP DUP1 DUP1 SLOAD PUSH2 0x6F0 SWAP1 PUSH2 0x1C9B JUMP JUMPDEST DUP1 PUSH1 0x1F ADD PUSH1 0x20 DUP1 SWAP2 DIV MUL PUSH1 0x20 ADD PUSH1 0x40 MLOAD SWAP1 DUP2 ADD PUSH1 0x40 MSTORE DUP1 SWAP3 SWAP2 SWAP1 DUP2 DUP2 MSTORE PUSH1 0x20 ADD DUP3 DUP1 SLOAD PUSH2 0x71C SWAP1 PUSH2 0x1C9B JUMP JUMPDEST DUP1 ISZERO PUSH2 0x767 JUMPI DUP1 PUSH1 0x1F LT PUSH2 0x73E JUMPI PUSH2 0x100 DUP1 DUP4 SLOAD DIV MUL DUP4 MSTORE SWAP2 PUSH1 0x20 ADD SWAP2 PUSH2 0x767 JUMP JUMPDEST DUP3 ADD SWAP2 SWAP1 PUSH0 MSTORE PUSH1 0x20 PUSH0 KECCAK256 SWAP1 JUMPDEST DUP2 SLOAD DUP2 MSTORE SWAP1 PUSH1 0x1 ADD SWAP1 PUSH1 0x20 ADD DUP1 DUP4 GT PUSH2 0x74A JUMPI DUP3 SWAP1 SUB PUSH1 0x1F AND DUP3 ADD SWAP2 JUMPDEST POP POP POP POP POP SWAP1 POP SWAP6 POP SWAP6 POP SWAP6 POP SWAP6 POP SWAP6 POP POP SWAP2 SWAP4 SWAP6 SWAP1 SWAP3 SWAP5 POP JUMP JUMPDEST PUSH1 0x4 DUP2 JUMP JUMPDEST PUSH1 0x2 DUP2 JUMP JUMPDEST PUSH1 0x5 PUSH1 0x20 MSTORE DUP1 PUSH0 MSTORE PUSH1 0x40 PUSH0 KECCAK256 PUSH0 SWAP2 POP SWAP1 POP DUP1 PUSH0 ADD DUP1 SLOAD PUSH2 0x7AB SWAP1 PUSH2 0x1C9B JUMP JUMPDEST DUP1 PUSH1 0x1F ADD PUSH1 0x20 DUP1 SWAP2 DIV MUL PUSH1 0x20 ADD PUSH1 0x40 MLOAD SWAP1 DUP2 ADD PUSH1 0x40 MSTORE DUP1 SWAP3 SWAP2 SWAP1 DUP2 DUP2 MSTORE PUSH1 0x20 ADD DUP3 DUP1 SLOAD PUSH2 0x7D7 SWAP1 PUSH2 0x1C9B JUMP JUMPDEST DUP1 ISZERO PUSH2 0x822 JUMPI DUP1 PUSH1 0x1F LT PUSH2 0x7F9 JUMPI PUSH2 0x100 DUP1 DUP4 SLOAD DIV MUL DUP4 MSTORE SWAP2 PUSH1 0x20 ADD SWAP2 PUSH2 0x822 JUMP JUMPDEST DUP3 ADD SWAP2 SWAP1 PUSH0 MSTORE PUSH1 0x20 PUSH0 KECCAK256 SWAP1 JUMPDEST DUP2 SLOAD DUP2 MSTORE SWAP1 PUSH1 0x1 ADD SWAP1 PUSH1 0x20 ADD DUP1 DUP4 GT PUSH2 0x805 JUMPI DUP3 SWAP1 SUB PUSH1 0x1F AND DUP3 ADD SWAP2 JUMPDEST POP POP POP POP POP SWAP1 POP DUP2 JUMP JUMPDEST PUSH0 PUSH1 0x8 PUSH0 PUSH0 SWAP1 SLOAD SWAP1 PUSH2 0x100 EXP SWAP1 DIV PUSH20 0xFFFFFFFFFFFFFFFFFFFFFFFFFFFFFFFFFFFFFFFF AND PUSH20 0xFFFFFFFFFFFFFFFFFFFFFFFFFFFFFFFFFFFFFFFF AND PUSH4 0x99374642 CALLER PUSH1 0x40 MLOAD DUP3 PUSH4 0xFFFFFFFF AND PUSH1 0xE0 SHL DUP2 MSTORE PUSH1 0x4 ADD PUSH2 0x888 SWAP2 SWAP1 PUSH2 0x1CEB JUMP JUMPDEST PUSH1 0x20 PUSH1 0x40 MLOAD DUP1 DUP4 SUB DUP2 DUP7 GAS STATICCALL ISZERO DUP1 ISZERO PUSH2 0x8A3 JUMPI RETURNDATASIZE PUSH0 PUSH0 RETURNDATACOPY RETURNDATASIZE PUSH0 REVERT JUMPDEST POP POP POP POP PUSH1 0x40 MLOAD RETURNDATASIZE PUSH1 0x1F NOT PUSH1 0x1F DUP3 ADD AND DUP3 ADD DUP1 PUSH1 0x40 MSTORE POP DUP2 ADD SWAP1 PUSH2 0x8C7 SWAP2 SWAP1 PUSH2 0x1D2E JUMP JUMPDEST AND PUSH1 0xFF AND SUB PUSH2 0x90B JUMPI PUSH1 0x40 MLOAD PUSH32 0x8C379A000000000000000000000000000000000000000000000000000000000 DUP2 MSTORE PUSH1 0x4 ADD PUSH2 0x902 SWAP1 PUSH2 0x1DA3 JUMP JUMPDEST PUSH1 0x40 MLOAD DUP1 SWAP2 SUB SWAP1 REVERT JUMPDEST PUSH0 PUSH1 0x2 PUSH0 DUP6 DUP2 MSTORE PUSH1 0x20 ADD SWAP1 DUP2 MSTORE PUSH1 0x20 ADD PUSH0 KECCAK256 SWAP1 POP DUP1 PUSH1 0x1 ADD PUSH1 0x2 SWAP1 SLOAD SWAP1 PUSH2 0x100 EXP SWAP1 DIV PUSH1 0xFF AND PUSH2 0x970 JUMPI PUSH1 0x40 MLOAD PUSH32 0x8C379A000000000000000000000000000000000000000000000000000000000 DUP2 MSTORE PUSH1 0x4 ADD PUSH2 0x967 SWAP1 PUSH2 0x1E0B JUMP JUMPDEST PUSH1 0x40 MLOAD DUP1 SWAP2 SUB SWAP1 REVERT JUMPDEST DUP1 PUSH1 0x1 ADD PUSH1 0x3 SWAP1 SLOAD SWAP1 PUSH2 0x100 EXP SWAP1 DIV PUSH1 0xFF AND ISZERO PUSH2 0x9C2 JUMPI PUSH1 0x40 MLOAD PUSH32 0x8C379A000000000000000000000000000000000000000000000000000000000 DUP2 MSTORE PUSH1 0x4 ADD PUSH2 0x9B9 SWAP1 PUSH2 0x1E73 JUMP JUMPDEST PUSH1 0x40 MLOAD DUP1 SWAP2 SUB SWAP1 REVERT JUMPDEST PUSH1 0x40 MLOAD DUP1 PUSH1 0x20 ADD PUSH1 0x40 MSTORE DUP1 DUP5 DUP5 DUP1 DUP1 PUSH1 0x1F ADD PUSH1 0x20 DUP1 SWAP2 DIV MUL PUSH1 0x20 ADD PUSH1 0x40 MLOAD SWAP1 DUP2 ADD PUSH1 0x40 MSTORE DUP1 SWAP4 SWAP3 SWAP2 SWAP1 DUP2 DUP2 MSTORE PUSH1 0x20 ADD DUP4 DUP4 DUP1 DUP3 DUP5 CALLDATACOPY PUSH0 DUP2 DUP5 ADD MSTORE PUSH1 0x1F NOT PUSH1 0x1F DUP3 ADD AND SWAP1 POP DUP1 DUP4 ADD SWAP3 POP POP POP POP POP POP POP DUP2 MSTORE POP PUSH1 0x6 PUSH0 DUP7 DUP2 MSTORE PUSH1 0x20 ADD SWAP1 DUP2 MSTORE PUSH1 0x20 ADD PUSH0 KECCAK256 PUSH0 DUP3 ADD MLOAD DUP2 PUSH0 ADD SWAP1 DUP2 PUSH2 0xA38 SWAP2 SWAP1 PUSH2 0x2055 JUMP JUMPDEST POP SWAP1 POP POP PUSH1 0x1 DUP2 PUSH1 0x1 ADD PUSH1 0x3 PUSH2 0x100 EXP DUP2 SLOAD DUP2 PUSH1 0xFF MUL NOT AND SWAP1 DUP4 ISZERO ISZERO MUL OR SWAP1 SSTORE POP DUP4 PUSH32 0x3D04355B29C64FBFE91609EEAD5AA92D6A1BCFD0902ED07BA808224D0BB31BE3 DUP5 DUP5 PUSH1 0x40 MLOAD PUSH2 0xA8B SWAP3 SWAP2 SWAP1 PUSH2 0x215E JUMP JUMPDEST PUSH1 0x40 MLOAD DUP1 SWAP2 SUB SWAP1 LOG2 POP POP POP POP JUMP JUMPDEST PUSH0 PUSH1 0x2 PUSH0 PUSH0 SWAP1 SLOAD SWAP1 PUSH2 0x100 EXP SWAP1 DIV PUSH20 0xFFFFFFFFFFFFFFFFFFFFFFFFFFFFFFFFFFFFFFFF AND PUSH20 0xFFFFFFFFFFFFFFFFFFFFFFFFFFFFFFFFFFFFFFFF AND PUSH4 0x99374642 CALLER PUSH1 0x40 MLOAD DUP3 PUSH4 0xFFFFFFFF AND PUSH1 0xE0 SHL DUP2 MSTORE PUSH1 0x4 ADD PUSH2 0xAF5 SWAP2 SWAP1 PUSH2 0x1CEB JUMP JUMPDEST PUSH1 0x20 PUSH1 0x40 MLOAD DUP1 DUP4 SUB DUP2 DUP7 GAS STATICCALL ISZERO DUP1 ISZERO PUSH2 0xB10 JUMPI RETURNDATASIZE PUSH0 PUSH0 RETURNDATACOPY RETURNDATASIZE PUSH0 REVERT JUMPDEST POP POP POP POP PUSH1 0x40 MLOAD RETURNDATASIZE PUSH1 0x1F NOT PUSH1 0x1F DUP3 ADD AND DUP3 ADD DUP1 PUSH1 0x40 MSTORE POP DUP2 ADD SWAP1 PUSH2 0xB34 SWAP2 SWAP1 PUSH2 0x1D2E JUMP JUMPDEST AND PUSH1 0xFF AND SUB PUSH2 0xB78 JUMPI PUSH1 0x40 MLOAD PUSH32 0x8C379A000000000000000000000000000000000000000000000000000000000 DUP2 MSTORE PUSH1 0x4 ADD PUSH2 0xB6F SWAP1 PUSH2 0x21CA JUMP JUMPDEST PUSH1 0x40 MLOAD DUP1 SWAP2 SUB SWAP1 REVERT JUMPDEST PUSH0 PUSH1 0x2 PUSH0 DUP6 DUP2 MSTORE PUSH1 0x20 ADD SWAP1 DUP2 MSTORE PUSH1 0x20 ADD PUSH0 KECCAK256 SWAP1 POP DUP1 PUSH1 0x1 ADD PUSH0 SWAP1 SLOAD SWAP1 PUSH2 0x100 EXP SWAP1 DIV PUSH1 0xFF AND PUSH2 0xBDC JUMPI PUSH1 0x40 MLOAD PUSH32 0x8C379A000000000000000000000000000000000000000000000000000000000 DUP2 MSTORE PUSH1 0x4 ADD PUSH2 0xBD3 SWAP1 PUSH2 0x2232 JUMP JUMPDEST PUSH1 0x40 MLOAD DUP1 SWAP2 SUB SWAP1 REVERT JUMPDEST DUP1 PUSH1 0x1 ADD PUSH1 0x1 SWAP1 SLOAD SWAP1 PUSH2 0x100 EXP SWAP1 DIV PUSH1 0xFF AND ISZERO PUSH2 0xC2E JUMPI PUSH1 0x40 MLOAD PUSH32 0x8C379A000000000000000000000000000000000000000000000000000000000 DUP2 MSTORE PUSH1 0x4 ADD PUSH2 0xC25 SWAP1 PUSH2 0x1E73 JUMP JUMPDEST PUSH1 0x40 MLOAD DUP1 SWAP2 SUB SWAP1 REVERT JUMPDEST PUSH1 0x40 MLOAD DUP1 PUSH1 0x20 ADD PUSH1 0x40 MSTORE DUP1 DUP5 DUP5 DUP1 DUP1 PUSH1 0x1F ADD PUSH1 0x20 DUP1 SWAP2 DIV MUL PUSH1 0x20 ADD PUSH1 0x40 MLOAD SWAP1 DUP2 ADD PUSH1 0x40 MSTORE DUP1 SWAP4 SWAP3 SWAP2 SWAP1 DUP2 DUP2 MSTORE PUSH1 0x20 ADD DUP4 DUP4 DUP1 DUP3 DUP5 CALLDATACOPY PUSH0 DUP2 DUP5 ADD MSTORE PUSH1 0x1F NOT PUSH1 0x1F DUP3 ADD AND SWAP1 POP DUP1 DUP4 ADD SWAP3 POP POP POP POP POP POP POP DUP2 MSTORE POP PUSH1 0x4 PUSH0 DUP7 DUP2 MSTORE PUSH1 0x20 ADD SWAP1 DUP2 MSTORE PUSH1 0x20 ADD PUSH0 KECCAK256 PUSH0 DUP3 ADD MLOAD DUP2 PUSH0 ADD SWAP1 DUP2 PUSH2 0xCA4 SWAP2 SWAP1 PUSH2 0x2055 JUMP JUMPDEST POP SWAP1 POP POP PUSH1 0x1 DUP2 PUSH1 0x1 ADD PUSH1 0x1 PUSH2 0x100 EXP DUP2 SLOAD DUP2 PUSH1 0xFF MUL NOT AND SWAP1 DUP4 ISZERO ISZERO MUL OR SWAP1 SSTORE POP DUP4 PUSH32 0x5148DAA68469B25C705BA6BA110A8E2BDE01213580D8D47A383C6B96B9AA17E3 DUP5 DUP5 PUSH1 0x40 MLOAD PUSH2 0xCF7 SWAP3 SWAP2 SWAP1 PUSH2 0x215E JUMP JUMPDEST PUSH1 0x40 MLOAD DUP1 SWAP2 SUB SWAP1 LOG2 POP POP POP POP JUMP JUMPDEST PUSH1 0x60 PUSH0 PUSH0 PUSH0 PUSH0 PUSH0 PUSH1 0x2 PUSH0 DUP9 DUP2 MSTORE PUSH1 0x20 ADD SWAP1 DUP2 MSTORE PUSH1 0x20 ADD PUSH0 KECCAK256 SWAP1 POP DUP1 PUSH0 ADD DUP2 PUSH1 0x1 ADD PUSH0 SWAP1 SLOAD SWAP1 PUSH2 0x100 EXP SWAP1 DIV PUSH1 0xFF AND DUP3 PUSH1 0x1 ADD PUSH1 0x1 SWAP1 SLOAD SWAP1 PUSH2 0x100 EXP SWAP1 DIV PUSH1 0xFF AND DUP4 PUSH1 0x1 ADD PUSH1 0x2 SWAP1 SLOAD SWAP1 PUSH2 0x100 EXP SWAP1 DIV PUSH1 0xFF AND DUP5 PUSH1 0x1 ADD PUSH1 0x3 SWAP1 SLOAD SWAP1 PUSH2 0x100 EXP SWAP1 DIV PUSH1 0xFF AND DUP5 DUP1 SLOAD PUSH2 0xD75 SWAP1 PUSH2 0x1C9B JUMP JUMPDEST DUP1 PUSH1 0x1F ADD PUSH1 0x20 DUP1 SWAP2 DIV MUL PUSH1 0x20 ADD PUSH1 0x40 MLOAD SWAP1 DUP2 ADD PUSH1 0x40 MSTORE DUP1 SWAP3 SWAP2 SWAP1 DUP2 DUP2 MSTORE PUSH1 0x20 ADD DUP3 DUP1 SLOAD PUSH2 0xDA1 SWAP1 PUSH2 0x1C9B JUMP JUMPDEST DUP1 ISZERO PUSH2 0xDEC JUMPI DUP1 PUSH1 0x1F LT PUSH2 0xDC3 JUMPI PUSH2 0x100 DUP1 DUP4 SLOAD DIV MUL DUP4 MSTORE SWAP2 PUSH1 0x20 ADD SWAP2 PUSH2 0xDEC JUMP JUMPDEST DUP3 ADD SWAP2 SWAP1 PUSH0 MSTORE PUSH1 0x20 PUSH0 KECCAK256 SWAP1 JUMPDEST DUP2 SLOAD DUP2 MSTORE SWAP1 PUSH1 0x1 ADD SWAP1 PUSH1 0x20 ADD DUP1 DUP4 GT PUSH2 0xDCF JUMPI DUP3 SWAP1 SUB PUSH1 0x1F AND DUP3 ADD SWAP2 JUMPDEST POP POP POP POP POP SWAP5 POP SWAP6 POP SWAP6 POP SWAP6 POP SWAP6 POP SWAP6 POP POP SWAP2 SWAP4 SWAP6 SWAP1 SWAP3 SWAP5 POP JUMP JUMPDEST PUSH1 0x3 PUSH1 0x20 MSTORE DUP1 PUSH0 MSTORE PUSH1 0x40 PUSH0 KECCAK256 PUSH0 SWAP2 POP SWAP1 POP DUP1 PUSH0 ADD DUP1 SLOAD PUSH2 0xE26 SWAP1 PUSH2 0x1C9B JUMP JUMPDEST DUP1 PUSH1 0x1F ADD PUSH1 0x20 DUP1 SWAP2 DIV MUL PUSH1 0x20 ADD PUSH1 0x40 MLOAD SWAP1 DUP2 ADD PUSH1 0x40 MSTORE DUP1 SWAP3 SWAP2 SWAP1 DUP2 DUP2 MSTORE PUSH1 0x20 ADD DUP3 DUP1 SLOAD PUSH2 0xE52 SWAP1 PUSH2 0x1C9B JUMP JUMPDEST DUP1 ISZERO PUSH2 0xE9D JUMPI DUP1 PUSH1 0x1F LT PUSH2 0xE74 JUMPI PUSH2 0x100 DUP1 DUP4 SLOAD DIV MUL DUP4 MSTORE SWAP2 PUSH1 0x20 ADD SWAP2 PUSH2 0xE9D JUMP JUMPDEST DUP3 ADD SWAP2 SWAP1 PUSH0 MSTORE PUSH1 0x20 PUSH0 KECCAK256 SWAP1 JUMPDEST DUP2 SLOAD DUP2 MSTORE SWAP1 PUSH1 0x1 ADD SWAP1 PUSH1 0x20 ADD DUP1 DUP4 GT PUSH2 0xE80 JUMPI DUP3 SWAP1 SUB PUSH1 0x1F AND DUP3 ADD SWAP2 JUMPDEST POP POP POP POP POP SWAP1 POP DUP2 JUMP JUMPDEST PUSH1 0x60 PUSH1 0x4 PUSH0 DUP4 DUP2 MSTORE PUSH1 0x20 ADD SWAP1 DUP2 MSTORE PUSH1 0x20 ADD PUSH0 KECCAK256 PUSH0 ADD DUP1 SLOAD PUSH2 0xEC7 SWAP1 PUSH2 0x1C9B JUMP JUMPDEST DUP1 PUSH1 0x1F ADD PUSH1 0x20 DUP1 SWAP2 DIV MUL PUSH1 0x20 ADD PUSH1 0x40 MLOAD SWAP1 DUP2 ADD PUSH1 0x40 MSTORE DUP1 SWAP3 SWAP2 SWAP1 DUP2 DUP2 MSTORE PUSH1 0x20 ADD DUP3 DUP1 SLOAD PUSH2 0xEF3 SWAP1 PUSH2 0x1C9B JUMP JUMPDEST DUP1 ISZERO PUSH2 0xF3E JUMPI DUP1 PUSH1 0x1F LT PUSH2 0xF15 JUMPI PUSH2 0x100 DUP1 DUP4 SLOAD DIV MUL DUP4 MSTORE SWAP2 PUSH1 0x20 ADD SWAP2 PUSH2 0xF3E JUMP JUMPDEST DUP3 ADD SWAP2 SWAP1 PUSH0 MSTORE PUSH1 0x20 PUSH0 KECCAK256 SWAP1 JUMPDEST DUP2 SLOAD DUP2 MSTORE SWAP1 PUSH1 0x1 ADD SWAP1 PUSH1 0x20 ADD DUP1 DUP4 GT PUSH2 0xF21 JUMPI DUP3 SWAP1 SUB PUSH1 0x1F AND DUP3 ADD SWAP2 JUMPDEST POP POP POP POP POP SWAP1 POP SWAP2 SWAP1 POP JUMP JUMPDEST PUSH0 PUSH0 SWAP1 SLOAD SWAP1 PUSH2 0x100 EXP SWAP1 DIV PUSH20 0xFFFFFFFFFFFFFFFFFFFFFFFFFFFFFFFFFFFFFFFF AND DUP2 JUMP JUMPDEST PUSH1 0x1 SLOAD DUP2 JUMP JUMPDEST PUSH0 PUSH1 0x4 PUSH0 PUSH0 SWAP1 SLOAD SWAP1 PUSH2 0x100 EXP SWAP1 DIV PUSH20 0xFFFFFFFFFFFFFFFFFFFFFFFFFFFFFFFFFFFFFFFF AND PUSH20 0xFFFFFFFFFFFFFFFFFFFFFFFFFFFFFFFFFFFFFFFF AND PUSH4 0x99374642 CALLER PUSH1 0x40 MLOAD DUP3 PUSH4 0xFFFFFFFF AND PUSH1 0xE0 SHL DUP2 MSTORE PUSH1 0x4 ADD PUSH2 0xFD0 SWAP2 SWAP1 PUSH2 0x1CEB JUMP JUMPDEST PUSH1 0x20 PUSH1 0x40 MLOAD DUP1 DUP4 SUB DUP2 DUP7 GAS STATICCALL ISZERO DUP1 ISZERO PUSH2 0xFEB JUMPI RETURNDATASIZE PUSH0 PUSH0 RETURNDATACOPY RETURNDATASIZE PUSH0 REVERT JUMPDEST POP POP POP POP PUSH1 0x40 MLOAD RETURNDATASIZE PUSH1 0x1F NOT PUSH1 0x1F DUP3 ADD AND DUP3 ADD DUP1 PUSH1 0x40 MSTORE POP DUP2 ADD SWAP1 PUSH2 0x100F SWAP2 SWAP1 PUSH2 0x1D2E JUMP JUMPDEST AND PUSH1 0xFF AND SUB PUSH2 0x1053 JUMPI PUSH1 0x40 MLOAD PUSH32 0x8C379A000000000000000000000000000000000000000000000000000000000 DUP2 MSTORE PUSH1 0x4 ADD PUSH2 0x104A SWAP1 PUSH2 0x229A JUMP JUMPDEST PUSH1 0x40 MLOAD DUP1 SWAP2 SUB SWAP1 REVERT JUMPDEST PUSH0 PUSH1 0x2 PUSH0 DUP6 DUP2 MSTORE PUSH1 0x20 ADD SWAP1 DUP2 MSTORE PUSH1 0x20 ADD PUSH0 KECCAK256 SWAP1 POP DUP1 PUSH1 0x1 ADD PUSH1 0x1 SWAP1 SLOAD SWAP1 PUSH2 0x100 EXP SWAP1 DIV PUSH1 0xFF AND PUSH2 0x10B8 JUMPI PUSH1 0x40 MLOAD PUSH32 0x8C379A000000000000000000000000000000000000000000000000000000000 DUP2 MSTORE PUSH1 0x4 ADD PUSH2 0x10AF SWAP1 PUSH2 0x2302 JUMP JUMPDEST PUSH1 0x40 MLOAD DUP1 SWAP2 SUB SWAP1 REVERT JUMPDEST DUP1 PUSH1 0x1 ADD PUSH1 0x2 SWAP1 SLOAD SWAP1 PUSH2 0x100 EXP SWAP1 DIV PUSH1 0xFF AND ISZERO PUSH2 0x110A JUMPI PUSH1 0x40 MLOAD PUSH32 0x8C379A000000000000000000000000000000000000000000000000000000000 DUP2 MSTORE PUSH1 0x4 ADD PUSH2 0x1101 SWAP1 PUSH2 0x1E73 JUMP JUMPDEST PUSH1 0x40 MLOAD DUP1 SWAP2 SUB SWAP1 REVERT JUMPDEST PUSH1 0x40 MLOAD DUP1 PUSH1 0x20 ADD PUSH1 0x40 MSTORE DUP1 DUP5 DUP5 DUP1 DUP1 PUSH1 0x1F ADD PUSH1 0x20 DUP1 SWAP2 DIV MUL PUSH1 0x20 ADD PUSH1 0x40 MLOAD SWAP1 DUP2 ADD PUSH1 0x40 MSTORE DUP1 SWAP4 SWAP3 SWAP2 SWAP1 DUP2 DUP2 MSTORE PUSH1 0x20 ADD DUP4 DUP4 DUP1 DUP3 DUP5 CALLDATACOPY PUSH0 DUP2 DUP5 ADD MSTORE PUSH1 0x1F NOT PUSH1 0x1F DUP3 ADD AND SWAP1 POP DUP1 DUP4 ADD SWAP3 POP POP POP POP POP POP POP DUP2 MSTORE POP PUSH1 0x5 PUSH0 DUP7 DUP2 MSTORE PUSH1 0x20 ADD SWAP1 DUP2 MSTORE PUSH1 0x20 ADD PUSH0 KECCAK256 PUSH0 DUP3 ADD MLOAD DUP2 PUSH0 ADD SWAP1 DUP2 PUSH2 0x1180 SWAP2 SWAP1 PUSH2 0x2055 JUMP JUMPDEST POP SWAP1 POP POP PUSH1 0x1 DUP2 PUSH1 0x1 ADD PUSH1 0x2 PUSH2 0x100 EXP DUP2 SLOAD DUP2 PUSH1 0xFF MUL NOT AND SWAP1 DUP4 ISZERO ISZERO MUL OR SWAP1 SSTORE POP DUP4 PUSH32 0x488F1C0CE4BB72B2AF29A9856186010014AA950B6E6CFD626B4B05F6FCBAD746 DUP5 DUP5 PUSH1 0x40 MLOAD PUSH2 0x11D3 SWAP3 SWAP2 SWAP1 PUSH2 0x215E JUMP JUMPDEST PUSH1 0x40 MLOAD DUP1 SWAP2 SUB SWAP1 LOG2 POP POP POP POP JUMP JUMPDEST PUSH0 PUSH0 PUSH1 0x1 PUSH0 PUSH0 SWAP1 SLOAD SWAP1 PUSH2 0x100 EXP SWAP1 DIV PUSH20 0xFFFFFFFFFFFFFFFFFFFFFFFFFFFFFFFFFFFFFFFF AND PUSH20 0xFFFFFFFFFFFFFFFFFFFFFFFFFFFFFFFFFFFFFFFF AND PUSH4 0x99374642 CALLER PUSH1 0x40 MLOAD DUP3 PUSH4 0xFFFFFFFF AND PUSH1 0xE0 SHL DUP2 MSTORE PUSH1 0x4 ADD PUSH2 0x123E SWAP2 SWAP1 PUSH2 0x1CEB JUMP JUMPDEST PUSH1 0x20 PUSH1 0x40 MLOAD DUP1 DUP4 SUB DUP2 DUP7 GAS STATICCALL ISZERO DUP1 ISZERO PUSH2 0x1259 JUMPI RETURNDATASIZE PUSH0 PUSH0 RETURNDATACOPY RETURNDATASIZE PUSH0 REVERT JUMPDEST POP POP POP POP PUSH1 0x40 MLOAD RETURNDATASIZE PUSH1 0x1F NOT PUSH1 0x1F DUP3 ADD AND DUP3 ADD DUP1 PUSH1 0x40 MSTORE POP DUP2 ADD SWAP1 PUSH2 0x127D SWAP2 SWAP1 PUSH2 0x1D2E JUMP JUMPDEST AND PUSH1 0xFF AND SUB PUSH2 0x12C1 JUMPI PUSH1 0x40 MLOAD PUSH32 0x8C379A000000000000000000000000000000000000000000000000000000000 DUP2 MSTORE PUSH1 0x4 ADD PUSH2 0x12B8 SWAP1 PUSH2 0x236A JUMP JUMPDEST PUSH1 0x40 MLOAD DUP1 SWAP2 SUB SWAP1 REVERT JUMPDEST PUSH0 PUSH1 0x1 PUSH0 DUP2 SLOAD PUSH2 0x12D0 SWAP1 PUSH2 0x23B5 JUMP JUMPDEST SWAP2 SWAP1 POP DUP2 SWAP1 SSTORE SWAP1 POP PUSH1 0x40 MLOAD DUP1 PUSH1 0xA0 ADD PUSH1 0x40 MSTORE DUP1 DUP8 DUP8 DUP1 DUP1 PUSH1 0x1F ADD PUSH1 0x20 DUP1 SWAP2 DIV MUL PUSH1 0x20 ADD PUSH1 0x40 MLOAD SWAP1 DUP2 ADD PUSH1 0x40 MSTORE DUP1 SWAP4 SWAP3 SWAP2 SWAP1 DUP2 DUP2 MSTORE PUSH1 0x20 ADD DUP4 DUP4 DUP1 DUP3 DUP5 CALLDATACOPY PUSH0 DUP2 DUP5 ADD MSTORE PUSH1 0x1F NOT PUSH1 0x1F DUP3 ADD AND SWAP1 POP DUP1 DUP4 ADD SWAP3 POP POP POP POP POP POP POP DUP2 MSTORE PUSH1 0x20 ADD PUSH1 0x1 ISZERO ISZERO DUP2 MSTORE PUSH1 0x20 ADD PUSH0 ISZERO ISZERO DUP2 MSTORE PUSH1 0x20 ADD PUSH0 ISZERO ISZERO DUP2 MSTORE PUSH1 0x20 ADD PUSH0 ISZERO ISZERO DUP2 MSTORE POP PUSH1 0x2 PUSH0 DUP4 DUP2 MSTORE PUSH1 0x20 ADD SWAP1 DUP2 MSTORE PUSH1 0x20 ADD PUSH0 KECCAK256 PUSH0 DUP3 ADD MLOAD DUP2 PUSH0 ADD SWAP1 DUP2 PUSH2 0x136F SWAP2 SWAP1 PUSH2 0x2055 JUMP JUMPDEST POP PUSH1 0x20 DUP3 ADD MLOAD DUP2 PUSH1 0x1 ADD PUSH0 PUSH2 0x100 EXP DUP2 SLOAD DUP2 PUSH1 0xFF MUL NOT AND SWAP1 DUP4 ISZERO ISZERO MUL OR SWAP1 SSTORE POP PUSH1 0x40 DUP3 ADD MLOAD DUP2 PUSH1 0x1 ADD PUSH1 0x1 PUSH2 0x100 EXP DUP2 SLOAD DUP2 PUSH1 0xFF MUL NOT AND SWAP1 DUP4 ISZERO ISZERO MUL OR SWAP1 SSTORE POP PUSH1 0x60 DUP3 ADD MLOAD DUP2 PUSH1 0x1 ADD PUSH1 0x2 PUSH2 0x100 EXP DUP2 SLOAD DUP2 PUSH1 0xFF MUL NOT AND SWAP1 DUP4 ISZERO ISZERO MUL OR SWAP1 SSTORE POP PUSH1 0x80 DUP3 ADD MLOAD DUP2 PUSH1 0x1 ADD PUSH1 0x3 PUSH2 0x100 EXP DUP2 SLOAD DUP2 PUSH1 0xFF MUL NOT AND SWAP1 DUP4 ISZERO ISZERO MUL OR SWAP1 SSTORE POP SWAP1 POP POP PUSH1 0x40 MLOAD DUP1 PUSH1 0x20 ADD PUSH1 0x40 MSTORE DUP1 DUP6 DUP6 DUP1 DUP1 PUSH1 0x1F ADD PUSH1 0x20 DUP1 SWAP2 DIV MUL PUSH1 0x20 ADD PUSH1 0x40 MLOAD SWAP1 DUP2 ADD PUSH1 0x40 MSTORE DUP1 SWAP4 SWAP3 SWAP2 SWAP1 DUP2 DUP2 MSTORE PUSH1 0x20 ADD DUP4 DUP4 DUP1 DUP3 DUP5 CALLDATACOPY PUSH0 DUP2 DUP5 ADD MSTORE PUSH1 0x1F NOT PUSH1 0x1F DUP3 ADD AND SWAP1 POP DUP1 DUP4 ADD SWAP3 POP POP POP POP POP POP POP DUP2 MSTORE POP PUSH1 0x3 PUSH0 DUP4 DUP2 MSTORE PUSH1 0x20 ADD SWAP1 DUP2 MSTORE PUSH1 0x20 ADD PUSH0 KECCAK256 PUSH0 DUP3 ADD MLOAD DUP2 PUSH0 ADD SWAP1 DUP2 PUSH2 0x1468 SWAP2 SWAP1 PUSH2 0x2055 JUMP JUMPDEST POP SWAP1 POP POP DUP1 PUSH32 0x65D0897EF90523E0E840598AAC93F29C40C60164DDB22532DFD3A79515757376 DUP8 DUP8 PUSH1 0x40 MLOAD PUSH2 0x149E SWAP3 SWAP2 SWAP1 PUSH2 0x215E JUMP JUMPDEST PUSH1 0x40 MLOAD DUP1 SWAP2 SUB SWAP1 LOG2 DUP1 PUSH32 0x674B21D9B91E2A6A3E017790742E8EEEB6D1E18F8A7F8DFCF9CEA406760D1CCD DUP6 DUP6 PUSH1 0x40 MLOAD PUSH2 0x14D8 SWAP3 SWAP2 SWAP1 PUSH2 0x215E JUMP JUMPDEST PUSH1 0x40 MLOAD DUP1 SWAP2 SUB SWAP1 LOG2 DUP1 SWAP2 POP POP SWAP5 SWAP4 POP POP POP POP JUMP JUMPDEST PUSH1 0x60 PUSH1 0x5 PUSH0 DUP4 DUP2 MSTORE PUSH1 0x20 ADD SWAP1 DUP2 MSTORE PUSH1 0x20 ADD PUSH0 KECCAK256 PUSH0 ADD DUP1 SLOAD PUSH2 0x150C SWAP1 PUSH2 0x1C9B JUMP JUMPDEST DUP1 PUSH1 0x1F ADD PUSH1 0x20 DUP1 SWAP2 DIV MUL PUSH1 0x20 ADD PUSH1 0x40 MLOAD SWAP1 DUP2 ADD PUSH1 0x40 MSTORE DUP1 SWAP3 SWAP2 SWAP1 DUP2 DUP2 MSTORE PUSH1 0x20 ADD DUP3 DUP1 SLOAD PUSH2 0x1538 SWAP1 PUSH2 0x1C9B JUMP JUMPDEST DUP1 ISZERO PUSH2 0x1583 JUMPI DUP1 PUSH1 0x1F LT PUSH2 0x155A JUMPI PUSH2 0x100 DUP1 DUP4 SLOAD DIV MUL DUP4 MSTORE SWAP2 PUSH1 0x20 ADD SWAP2 PUSH2 0x1583 JUMP JUMPDEST DUP3 ADD SWAP2 SWAP1 PUSH0 MSTORE PUSH1 0x20 PUSH0 KECCAK256 SWAP1 JUMPDEST DUP2 SLOAD DUP2 MSTORE SWAP1 PUSH1 0x1 ADD SWAP1 PUSH1 0x20 ADD DUP1 DUP4 GT PUSH2 0x1566 JUMPI DUP3 SWAP1 SUB PUSH1 0x1F AND DUP3 ADD SWAP2 JUMPDEST POP POP POP POP POP SWAP1 POP SWAP2 SWAP1 POP JUMP JUMPDEST PUSH1 0x2 PUSH1 0x20 MSTORE DUP1 PUSH0 MSTORE PUSH1 0x40 PUSH0 KECCAK256 PUSH0 SWAP2 POP SWAP1 POP DUP1 PUSH0 ADD DUP1 SLOAD PUSH2 0x15AE SWAP1 PUSH2 0x1C9B JUMP JUMPDEST DUP1 PUSH1 0x1F ADD PUSH1 0x20 DUP1 SWAP2 DIV MUL PUSH1 0x20 ADD PUSH1 0x40 MLOAD SWAP1 DUP2 ADD PUSH1 0x40 MSTORE DUP1 SWAP3 SWAP2 SWAP1 DUP2 DUP2 MSTORE PUSH1 0x20 ADD DUP3 DUP1 SLOAD PUSH2 0x15DA SWAP1 PUSH2 0x1C9B JUMP JUMPDEST DUP1 ISZERO PUSH2 0x1625 JUMPI DUP1 PUSH1 0x1F LT PUSH2 0x15FC JUMPI PUSH2 0x100 DUP1 DUP4 SLOAD DIV MUL DUP4 MSTORE SWAP2 PUSH1 0x20 ADD SWAP2 PUSH2 0x1625 JUMP JUMPDEST DUP3 ADD SWAP2 SWAP1 PUSH0 MSTORE PUSH1 0x20 PUSH0 KECCAK256 SWAP1 JUMPDEST DUP2 SLOAD DUP2 MSTORE SWAP1 PUSH1 0x1 ADD SWAP1 PUSH1 0x20 ADD DUP1 DUP4 GT PUSH2 0x1608 JUMPI DUP3 SWAP1 SUB PUSH1 0x1F AND DUP3 ADD SWAP2 JUMPDEST POP POP POP POP POP SWAP1 DUP1 PUSH1 0x1 ADD PUSH0 SWAP1 SLOAD SWAP1 PUSH2 0x100 EXP SWAP1 DIV PUSH1 0xFF AND SWAP1 DUP1 PUSH1 0x1 ADD PUSH1 0x1 SWAP1 SLOAD SWAP1 PUSH2 0x100 EXP SWAP1 DIV PUSH1 0xFF AND SWAP1 DUP1 PUSH1 0x1 ADD PUSH1 0x2 SWAP1 SLOAD SWAP1 PUSH2 0x100 EXP SWAP1 DIV PUSH1 0xFF AND SWAP1 DUP1 PUSH1 0x1 ADD PUSH1 0x3 SWAP1 SLOAD SWAP1 PUSH2 0x100 EXP SWAP1 DIV PUSH1 0xFF AND SWAP1 POP DUP6 JUMP JUMPDEST PUSH1 0x6 PUSH1 0x20 MSTORE DUP1 PUSH0 MSTORE PUSH1 0x40 PUSH0 KECCAK256 PUSH0 SWAP2 POP SWAP1 POP DUP1 PUSH0 ADD DUP1 SLOAD PUSH2 0x1699 SWAP1 PUSH2 0x1C9B JUMP JUMPDEST DUP1 PUSH1 0x1F ADD PUSH1 0x20 DUP1 SWAP2 DIV MUL PUSH1 0x20 ADD PUSH1 0x40 MLOAD SWAP1 DUP2 ADD PUSH1 0x40 MSTORE DUP1 SWAP3 SWAP2 SWAP1 DUP2 DUP2 MSTORE PUSH1 0x20 ADD DUP3 DUP1 SLOAD PUSH2 0x16C5 SWAP1 PUSH2 0x1C9B JUMP JUMPDEST DUP1 ISZERO PUSH2 0x1710 JUMPI DUP1 PUSH1 0x1F LT PUSH2 0x16E7 JUMPI PUSH2 0x100 DUP1 DUP4 SLOAD DIV MUL DUP4 MSTORE SWAP2 PUSH1 0x20 ADD SWAP2 PUSH2 0x1710 JUMP JUMPDEST DUP3 ADD SWAP2 SWAP1 PUSH0 MSTORE PUSH1 0x20 PUSH0 KECCAK256 SWAP1 JUMPDEST DUP2 SLOAD DUP2 MSTORE SWAP1 PUSH1 0x1 ADD SWAP1 PUSH1 0x20 ADD DUP1 DUP4 GT PUSH2 0x16F3 JUMPI DUP3 SWAP1 SUB PUSH1 0x1F AND DUP3 ADD SWAP2 JUMPDEST POP POP POP POP POP SWAP1 POP DUP2 JUMP JUMPDEST PUSH1 0x60 PUSH1 0x3 PUSH0 DUP4 DUP2 MSTORE PUSH1 0x20 ADD SWAP1 DUP2 MSTORE PUSH1 0x20 ADD PUSH0 KECCAK256 PUSH0 ADD DUP1 SLOAD PUSH2 0x173A SWAP1 PUSH2 0x1C9B JUMP JUMPDEST DUP1 PUSH1 0x1F ADD PUSH1 0x20 DUP1 SWAP2 DIV MUL PUSH1 0x20 ADD PUSH1 0x40 MLOAD SWAP1 DUP2 ADD PUSH1 0x40 MSTORE DUP1 SWAP3 SWAP2 SWAP1 DUP2 DUP2 MSTORE PUSH1 0x20 ADD DUP3 DUP1 SLOAD PUSH2 0x1766 SWAP1 PUSH2 0x1C9B JUMP JUMPDEST DUP1 ISZERO PUSH2 0x17B1 JUMPI DUP1 PUSH1 0x1F LT PUSH2 0x1788 JUMPI PUSH2 0x100 DUP1 DUP4 SLOAD DIV MUL DUP4 MSTORE SWAP2 PUSH1 0x20 ADD SWAP2 PUSH2 0x17B1 JUMP JUMPDEST DUP3 ADD SWAP2 SWAP1 PUSH0 MSTORE PUSH1 0x20 PUSH0 KECCAK256 SWAP1 JUMPDEST DUP2 SLOAD DUP2 MSTORE SWAP1 PUSH1 0x1 ADD SWAP1 PUSH1 0x20 ADD DUP1 DUP4 GT PUSH2 0x1794 JUMPI DUP3 SWAP1 SUB PUSH1 0x1F AND DUP3 ADD SWAP2 JUMPDEST POP POP POP POP POP SWAP1 POP SWAP2 SWAP1 POP JUMP JUMPDEST PUSH1 0x8 DUP2 JUMP JUMPDEST PUSH1 0x1 DUP2 JUMP JUMPDEST PUSH1 0x4 PUSH1 0x20 MSTORE DUP1 PUSH0 MSTORE PUSH1 0x40 PUSH0 KECCAK256 PUSH0 SWAP2 POP SWAP1 POP DUP1 PUSH0 ADD DUP1 SLOAD PUSH2 0x17E6 SWAP1 PUSH2 0x1C9B JUMP JUMPDEST DUP1 PUSH1 0x1F ADD PUSH1 0x20 DUP1 SWAP2 DIV MUL PUSH1 0x20 ADD PUSH1 0x40 MLOAD SWAP1 DUP2 ADD PUSH1 0x40 MSTORE DUP1 SWAP3 SWAP2 SWAP1 DUP2 DUP2 MSTORE PUSH1 0x20 ADD DUP3 DUP1 SLOAD PUSH2 0x1812 SWAP1 PUSH2 0x1C9B JUMP JUMPDEST DUP1 ISZERO PUSH2 0x185D JUMPI DUP1 PUSH1 0x1F LT PUSH2 0x1834 JUMPI PUSH2 0x100 DUP1 DUP4 SLOAD DIV MUL DUP4 MSTORE SWAP2 PUSH1 0x20 ADD SWAP2 PUSH2 0x185D JUMP JUMPDEST DUP3 ADD SWAP2 SWAP1 PUSH0 MSTORE PUSH1 0x20 PUSH0 KECCAK256 SWAP1 JUMPDEST DUP2 SLOAD DUP2 MSTORE SWAP1 PUSH1 0x1 ADD SWAP1 PUSH1 0x20 ADD DUP1 DUP4 GT PUSH2 0x1840 JUMPI DUP3 SWAP1 SUB PUSH1 0x1F AND DUP3 ADD SWAP2 JUMPDEST POP POP POP POP POP SWAP1 POP DUP2 JUMP JUMPDEST PUSH0 PUSH0 REVERT JUMPDEST PUSH0 PUSH0 REVERT JUMPDEST PUSH0 DUP2 SWAP1 POP SWAP2 SWAP1 POP JUMP JUMPDEST PUSH2 0x1881 DUP2 PUSH2 0x186F JUMP JUMPDEST DUP2 EQ PUSH2 0x188B JUMPI PUSH0 PUSH0 REVERT JUMPDEST POP JUMP JUMPDEST PUSH0 DUP2 CALLDATALOAD SWAP1 POP PUSH2 0x189C DUP2 PUSH2 0x1878 JUMP JUMPDEST SWAP3 SWAP2 POP POP JUMP JUMPDEST PUSH0 PUSH1 0x20 DUP3 DUP5 SUB SLT ISZERO PUSH2 0x18B7 JUMPI PUSH2 0x18B6 PUSH2 0x1867 JUMP JUMPDEST JUMPDEST PUSH0 PUSH2 0x18C4 DUP5 DUP3 DUP6 ADD PUSH2 0x188E JUMP JUMPDEST SWAP2 POP POP SWAP3 SWAP2 POP POP JUMP JUMPDEST PUSH0 DUP2 MLOAD SWAP1 POP SWAP2 SWAP1 POP JUMP JUMPDEST PUSH0 DUP3 DUP3 MSTORE PUSH1 0x20 DUP3 ADD SWAP1 POP SWAP3 SWAP2 POP POP JUMP JUMPDEST DUP3 DUP2 DUP4 MCOPY PUSH0 DUP4 DUP4 ADD MSTORE POP POP POP JUMP JUMPDEST PUSH0 PUSH1 0x1F NOT PUSH1 0x1F DUP4 ADD AND SWAP1 POP SWAP2 SWAP1 POP JUMP JUMPDEST PUSH0 PUSH2 0x190F DUP3 PUSH2 0x18CD JUMP JUMPDEST PUSH2 0x1919 DUP2 DUP6 PUSH2 0x18D7 JUMP JUMPDEST SWAP4 POP PUSH2 0x1929 DUP2 DUP6 PUSH1 0x20 DUP7 ADD PUSH2 0x18E7 JUMP JUMPDEST PUSH2 0x1932 DUP2 PUSH2 0x18F5 JUMP JUMPDEST DUP5 ADD SWAP2 POP POP SWAP3 SWAP2 POP POP JUMP JUMPDEST PUSH0 PUSH1 0xA0 DUP3 ADD SWAP1 POP DUP2 DUP2 SUB PUSH0 DUP4 ADD MSTORE PUSH2 0x1955 DUP2 DUP9 PUSH2 0x1905 JUMP JUMPDEST SWAP1 POP DUP2 DUP2 SUB PUSH1 0x20 DUP4 ADD MSTORE PUSH2 0x1969 DUP2 DUP8 PUSH2 0x1905 JUMP JUMPDEST SWAP1 POP DUP2 DUP2 SUB PUSH1 0x40 DUP4 ADD MSTORE PUSH2 0x197D DUP2 DUP7 PUSH2 0x1905 JUMP JUMPDEST SWAP1 POP DUP2 DUP2 SUB PUSH1 0x60 DUP4 ADD MSTORE PUSH2 0x1991 DUP2 DUP6 PUSH2 0x1905 JUMP JUMPDEST SWAP1 POP DUP2 DUP2 SUB PUSH1 0x80 DUP4 ADD MSTORE PUSH2 0x19A5 DUP2 DUP5 PUSH2 0x1905 JUMP JUMPDEST SWAP1 POP SWAP7 SWAP6 POP POP POP POP POP POP JUMP JUMPDEST PUSH0 PUSH1 0xFF DUP3 AND SWAP1 POP SWAP2 SWAP1 POP JUMP JUMPDEST PUSH2 0x19C6 DUP2 PUSH2 0x19B1 JUMP JUMPDEST DUP3 MSTORE POP POP JUMP JUMPDEST PUSH0 PUSH1 0x20 DUP3 ADD SWAP1 POP PUSH2 0x19DF PUSH0 DUP4 ADD DUP5 PUSH2 0x19BD JUMP JUMPDEST SWAP3 SWAP2 POP POP JUMP JUMPDEST PUSH0 PUSH1 0x20 DUP3 ADD SWAP1 POP DUP2 DUP2 SUB PUSH0 DUP4 ADD MSTORE PUSH2 0x19FD DUP2 DUP5 PUSH2 0x1905 JUMP JUMPDEST SWAP1 POP SWAP3 SWAP2 POP POP JUMP JUMPDEST PUSH0 PUSH0 REVERT JUMPDEST PUSH0 PUSH0 REVERT JUMPDEST PUSH0 PUSH0 REVERT JUMPDEST PUSH0 PUSH0 DUP4 PUSH1 0x1F DUP5 ADD SLT PUSH2 0x1A26 JUMPI PUSH2 0x1A25 PUSH2 0x1A05 JUMP JUMPDEST JUMPDEST DUP3 CALLDATALOAD SWAP1 POP PUSH8 0xFFFFFFFFFFFFFFFF DUP2 GT ISZERO PUSH2 0x1A43 JUMPI PUSH2 0x1A42 PUSH2 0x1A09 JUMP JUMPDEST JUMPDEST PUSH1 0x20 DUP4 ADD SWAP2 POP DUP4 PUSH1 0x1 DUP3 MUL DUP4 ADD GT ISZERO PUSH2 0x1A5F JUMPI PUSH2 0x1A5E PUSH2 0x1A0D JUMP JUMPDEST JUMPDEST SWAP3 POP SWAP3 SWAP1 POP JUMP JUMPDEST PUSH0 PUSH0 PUSH0 PUSH1 0x40 DUP5 DUP7 SUB SLT ISZERO PUSH2 0x1A7D JUMPI PUSH2 0x1A7C PUSH2 0x1867 JUMP JUMPDEST JUMPDEST PUSH0 PUSH2 0x1A8A DUP7 DUP3 DUP8 ADD PUSH2 0x188E JUMP JUMPDEST SWAP4 POP POP PUSH1 0x20 DUP5 ADD CALLDATALOAD PUSH8 0xFFFFFFFFFFFFFFFF DUP2 GT ISZERO PUSH2 0x1AAB JUMPI PUSH2 0x1AAA PUSH2 0x186B JUMP JUMPDEST JUMPDEST PUSH2 0x1AB7 DUP7 DUP3 DUP8 ADD PUSH2 0x1A11 JUMP JUMPDEST SWAP3 POP SWAP3 POP POP SWAP3 POP SWAP3 POP SWAP3 JUMP JUMPDEST PUSH0 DUP2 ISZERO ISZERO SWAP1 POP SWAP2 SWAP1 POP JUMP JUMPDEST PUSH2 0x1AD7 DUP2 PUSH2 0x1AC3 JUMP JUMPDEST DUP3 MSTORE POP POP JUMP JUMPDEST PUSH0 PUSH1 0xA0 DUP3 ADD SWAP1 POP DUP2 DUP2 SUB PUSH0 DUP4 ADD MSTORE PUSH2 0x1AF5 DUP2 DUP9 PUSH2 0x1905 JUMP JUMPDEST SWAP1 POP PUSH2 0x1B04 PUSH1 0x20 DUP4 ADD DUP8 PUSH2 0x1ACE JUMP JUMPDEST PUSH2 0x1B11 PUSH1 0x40 DUP4 ADD DUP7 PUSH2 0x1ACE JUMP JUMPDEST PUSH2 0x1B1E PUSH1 0x60 DUP4 ADD DUP6 PUSH2 0x1ACE JUMP JUMPDEST PUSH2 0x1B2B PUSH1 0x80 DUP4 ADD DUP5 PUSH2 0x1ACE JUMP JUMPDEST SWAP7 SWAP6 POP POP POP POP POP POP JUMP JUMPDEST PUSH0 PUSH20 0xFFFFFFFFFFFFFFFFFFFFFFFFFFFFFFFFFFFFFFFF DUP3 AND SWAP1 POP SWAP2 SWAP1 POP JUMP JUMPDEST PUSH0 DUP2 SWAP1 POP SWAP2 SWAP1 POP JUMP JUMPDEST PUSH0 PUSH2 0x1B77 PUSH2 0x1B72 PUSH2 0x1B6D DUP5 PUSH2 0x1B35 JUMP JUMPDEST PUSH2 0x1B54 JUMP JUMPDEST PUSH2 0x1B35 JUMP JUMPDEST SWAP1 POP SWAP2 SWAP1 POP JUMP JUMPDEST PUSH0 PUSH2 0x1B88 DUP3 PUSH2 0x1B5D JUMP JUMPDEST SWAP1 POP SWAP2 SWAP1 POP JUMP JUMPDEST PUSH0 PUSH2 0x1B99 DUP3 PUSH2 0x1B7E JUMP JUMPDEST SWAP1 POP SWAP2 SWAP1 POP JUMP JUMPDEST PUSH2 0x1BA9 DUP2 PUSH2 0x1B8F JUMP JUMPDEST DUP3 MSTORE POP POP JUMP JUMPDEST PUSH0 PUSH1 0x20 DUP3 ADD SWAP1 POP PUSH2 0x1BC2 PUSH0 DUP4 ADD DUP5 PUSH2 0x1BA0 JUMP JUMPDEST SWAP3 SWAP2 POP POP JUMP JUMPDEST PUSH2 0x1BD1 DUP2 PUSH2 0x186F JUMP JUMPDEST DUP3 MSTORE POP POP JUMP JUMPDEST PUSH0 PUSH1 0x20 DUP3 ADD SWAP1 POP PUSH2 0x1BEA PUSH0 DUP4 ADD DUP5 PUSH2 0x1BC8 JUMP JUMPDEST SWAP3 SWAP2 POP POP JUMP JUMPDEST PUSH0 PUSH0 PUSH0 PUSH0 PUSH1 0x40 DUP6 DUP8 SUB SLT ISZERO PUSH2 0x1C08 JUMPI PUSH2 0x1C07 PUSH2 0x1867 JUMP JUMPDEST JUMPDEST PUSH0 DUP6 ADD CALLDATALOAD PUSH8 0xFFFFFFFFFFFFFFFF DUP2 GT ISZERO PUSH2 0x1C25 JUMPI PUSH2 0x1C24 PUSH2 0x186B JUMP JUMPDEST JUMPDEST PUSH2 0x1C31 DUP8 DUP3 DUP9 ADD PUSH2 0x1A11 JUMP JUMPDEST SWAP5 POP SWAP5 POP POP PUSH1 0x20 DUP6 ADD CALLDATALOAD PUSH8 0xFFFFFFFFFFFFFFFF DUP2 GT ISZERO PUSH2 0x1C54 JUMPI PUSH2 0x1C53 PUSH2 0x186B JUMP JUMPDEST JUMPDEST PUSH2 0x1C60 DUP8 DUP3 DUP9 ADD PUSH2 0x1A11 JUMP JUMPDEST SWAP3 POP SWAP3 POP POP SWAP3 SWAP6 SWAP2 SWAP5 POP SWAP3 POP JUMP JUMPDEST PUSH32 0x4E487B7100000000000000000000000000000000000000000000000000000000 PUSH0 MSTORE PUSH1 0x22 PUSH1 0x4 MSTORE PUSH1 0x24 PUSH0 REVERT JUMPDEST PUSH0 PUSH1 0x2 DUP3 DIV SWAP1 POP PUSH1 0x1 DUP3 AND DUP1 PUSH2 0x1CB2 JUMPI PUSH1 0x7F DUP3 AND SWAP2 POP JUMPDEST PUSH1 0x20 DUP3 LT DUP2 SUB PUSH2 0x1CC5 JUMPI PUSH2 0x1CC4 PUSH2 0x1C6E JUMP JUMPDEST JUMPDEST POP SWAP2 SWAP1 POP JUMP JUMPDEST PUSH0 PUSH2 0x1CD5 DUP3 PUSH2 0x1B35 JUMP JUMPDEST SWAP1 POP SWAP2 SWAP1 POP JUMP JUMPDEST PUSH2 0x1CE5 DUP2 PUSH2 0x1CCB JUMP JUMPDEST DUP3 MSTORE POP POP JUMP JUMPDEST PUSH0 PUSH1 0x20 DUP3 ADD SWAP1 POP PUSH2 0x1CFE PUSH0 DUP4 ADD DUP5 PUSH2 0x1CDC JUMP JUMPDEST SWAP3 SWAP2 POP POP JUMP JUMPDEST PUSH2 0x1D0D DUP2 PUSH2 0x19B1 JUMP JUMPDEST DUP2 EQ PUSH2 0x1D17 JUMPI PUSH0 PUSH0 REVERT JUMPDEST POP JUMP JUMPDEST PUSH0 DUP2 MLOAD SWAP1 POP PUSH2 0x1D28 DUP2 PUSH2 0x1D04 JUMP JUMPDEST SWAP3 SWAP2 POP POP JUMP JUMPDEST PUSH0 PUSH1 0x20 DUP3 DUP5 SUB SLT ISZERO PUSH2 0x1D43 JUMPI PUSH2 0x1D42 PUSH2 0x1867 JUMP JUMPDEST JUMPDEST PUSH0 PUSH2 0x1D50 DUP5 DUP3 DUP6 ADD PUSH2 0x1D1A JUMP JUMPDEST SWAP2 POP POP SWAP3 SWAP2 POP POP JUMP JUMPDEST PUSH32 0x4E6F74206D616E75666163747572657200000000000000000000000000000000 PUSH0 DUP3 ADD MSTORE POP JUMP JUMPDEST PUSH0 PUSH2 0x1D8D PUSH1 0x10 DUP4 PUSH2 0x18D7 JUMP JUMPDEST SWAP2 POP PUSH2 0x1D98 DUP3 PUSH2 0x1D59 JUMP JUMPDEST PUSH1 0x20 DUP3 ADD SWAP1 POP SWAP2 SWAP1 POP JUMP JUMPDEST PUSH0 PUSH1 0x20 DUP3 ADD SWAP1 POP DUP2 DUP2 SUB PUSH0 DUP4 ADD MSTORE PUSH2 0x1DBA DUP2 PUSH2 0x1D81 JUMP JUMPDEST SWAP1 POP SWAP2 SWAP1 POP JUMP JUMPDEST PUSH32 0x4E6F206C61622064617461000000000000000000000000000000000000000000 PUSH0 DUP3 ADD MSTORE POP JUMP JUMPDEST PUSH0 PUSH2 0x1DF5 PUSH1 0xB DUP4 PUSH2 0x18D7 JUMP JUMPDEST SWAP2 POP PUSH2 0x1E00 DUP3 PUSH2 0x1DC1 JUMP JUMPDEST PUSH1 0x20 DUP3 ADD SWAP1 POP SWAP2 SWAP1 POP JUMP JUMPDEST PUSH0 PUSH1 0x20 DUP3 ADD SWAP1 POP DUP2 DUP2 SUB PUSH0 DUP4 ADD MSTORE PUSH2 0x1E22 DUP2 PUSH2 0x1DE9 JUMP JUMPDEST SWAP1 POP SWAP2 SWAP1 POP JUMP JUMPDEST PUSH32 0x416C726561647920616464656400000000000000000000000000000000000000 PUSH0 DUP3 ADD MSTORE POP JUMP JUMPDEST PUSH0 PUSH2 0x1E5D PUSH1 0xD DUP4 PUSH2 0x18D7 JUMP JUMPDEST SWAP2 POP PUSH2 0x1E68 DUP3 PUSH2 0x1E29 JUMP JUMPDEST PUSH1 0x20 DUP3 ADD SWAP1 POP SWAP2 SWAP1 POP JUMP JUMPDEST PUSH0 PUSH1 0x20 DUP3 ADD SWAP1 POP DUP2 DUP2 SUB PUSH0 DUP4 ADD MSTORE PUSH2 0x1E8A DUP2 PUSH2 0x1E51 JUMP JUMPDEST SWAP1 POP SWAP2 SWAP1 POP JUMP JUMPDEST PUSH32 0x4E487B7100000000000000000000000000000000000000000000000000000000 PUSH0 MSTORE PUSH1 0x41 PUSH1 0x4 MSTORE PUSH1 0x24 PUSH0 REVERT JUMPDEST PUSH0 DUP2 SWAP1 POP DUP2 PUSH0 MSTORE PUSH1 0x20 PUSH0 KECCAK256 SWAP1 POP SWAP2 SWAP1 POP JUMP JUMPDEST PUSH0 PUSH1 0x20 PUSH1 0x1F DUP4 ADD DIV SWAP1 POP SWAP2 SWAP1 POP JUMP JUMPDEST PUSH0 DUP3 DUP3 SHL SWAP1 POP SWAP3 SWAP2 POP POP JUMP JUMPDEST PUSH0 PUSH1 0x8 DUP4 MUL PUSH2 0x1F1A PUSH32 0xFFFFFFFFFFFFFFFFFFFFFFFFFFFFFFFFFFFFFFFFFFFFFFFFFFFFFFFFFFFFFFFF DUP3 PUSH2 0x1EDF JUMP JUMPDEST PUSH2 0x1F24 DUP7 DUP4 PUSH2 0x1EDF JUMP JUMPDEST SWAP6 POP DUP1 NOT DUP5 AND SWAP4 POP DUP1 DUP7 AND DUP5 OR SWAP3 POP POP POP SWAP4 SWAP3 POP POP POP JUMP JUMPDEST PUSH0 PUSH2 0x1F56 PUSH2 0x1F51 PUSH2 0x1F4C DUP5 PUSH2 0x186F JUMP JUMPDEST PUSH2 0x1B54 JUMP JUMPDEST PUSH2 0x186F JUMP JUMPDEST SWAP1 POP SWAP2 SWAP1 POP JUMP JUMPDEST PUSH0 DUP2 SWAP1 POP SWAP2 SWAP1 POP JUMP JUMPDEST PUSH2 0x1F6F DUP4 PUSH2 0x1F3C JUMP JUMPDEST PUSH2 0x1F83 PUSH2 0x1F7B DUP3 PUSH2 0x1F5D JUMP JUMPDEST DUP5 DUP5 SLOAD PUSH2 0x1EEB JUMP JUMPDEST DUP3 SSTORE POP POP POP POP JUMP JUMPDEST PUSH0 PUSH0 SWAP1 POP SWAP1 JUMP JUMPDEST PUSH2 0x1F9A PUSH2 0x1F8B JUMP JUMPDEST PUSH2 0x1FA5 DUP2 DUP5 DUP5 PUSH2 0x1F66 JUMP JUMPDEST POP POP POP JUMP JUMPDEST JUMPDEST DUP2 DUP2 LT ISZERO PUSH2 0x1FC8 JUMPI PUSH2 0x1FBD PUSH0 DUP3 PUSH2 0x1F92 JUMP JUMPDEST PUSH1 0x1 DUP2 ADD SWAP1 POP PUSH2 0x1FAB JUMP JUMPDEST POP POP JUMP JUMPDEST PUSH1 0x1F DUP3 GT ISZERO PUSH2 0x200D JUMPI PUSH2 0x1FDE DUP2 PUSH2 0x1EBE JUMP JUMPDEST PUSH2 0x1FE7 DUP5 PUSH2 0x1ED0 JUMP JUMPDEST DUP2 ADD PUSH1 0x20 DUP6 LT ISZERO PUSH2 0x1FF6 JUMPI DUP2 SWAP1 POP JUMPDEST PUSH2 0x200A PUSH2 0x2002 DUP6 PUSH2 0x1ED0 JUMP JUMPDEST DUP4 ADD DUP3 PUSH2 0x1FAA JUMP JUMPDEST POP POP JUMPDEST POP POP POP JUMP JUMPDEST PUSH0 DUP3 DUP3 SHR SWAP1 POP SWAP3 SWAP2 POP POP JUMP JUMPDEST PUSH0 PUSH2 0x202D PUSH0 NOT DUP5 PUSH1 0x8 MUL PUSH2 0x2012 JUMP JUMPDEST NOT DUP1 DUP4 AND SWAP2 POP POP SWAP3 SWAP2 POP POP JUMP JUMPDEST PUSH0 PUSH2 0x2045 DUP4 DUP4 PUSH2 0x201E JUMP JUMPDEST SWAP2 POP DUP3 PUSH1 0x2 MUL DUP3 OR SWAP1 POP SWAP3 SWAP2 POP POP JUMP JUMPDEST PUSH2 0x205E DUP3 PUSH2 0x18CD JUMP JUMPDEST PUSH8 0xFFFFFFFFFFFFFFFF DUP2 GT ISZERO PUSH2 0x2077 JUMPI PUSH2 0x2076 PUSH2 0x1E91 JUMP JUMPDEST JUMPDEST PUSH2 0x2081 DUP3 SLOAD PUSH2 0x1C9B JUMP JUMPDEST PUSH2 0x208C DUP3 DUP3 DUP6 PUSH2 0x1FCC JUMP JUMPDEST PUSH0 PUSH1 0x20 SWAP1 POP PUSH1 0x1F DUP4 GT PUSH1 0x1 DUP2 EQ PUSH2 0x20BD JUMPI PUSH0 DUP5 ISZERO PUSH2 0x20AB JUMPI DUP3 DUP8 ADD MLOAD SWAP1 POP JUMPDEST PUSH2 0x20B5 DUP6 DUP3 PUSH2 0x203A JUMP JUMPDEST DUP7 SSTORE POP PUSH2 0x211C JUMP JUMPDEST PUSH1 0x1F NOT DUP5 AND PUSH2 0x20CB DUP7 PUSH2 0x1EBE JUMP JUMPDEST PUSH0 JUMPDEST DUP3 DUP2 LT ISZERO PUSH2 0x20F2 JUMPI DUP5 DUP10 ADD MLOAD DUP3 SSTORE PUSH1 0x1 DUP3 ADD SWAP2 POP PUSH1 0x20 DUP6 ADD SWAP5 POP PUSH1 0x20 DUP2 ADD SWAP1 POP PUSH2 0x20CD JUMP JUMPDEST DUP7 DUP4 LT ISZERO PUSH2 0x210F JUMPI DUP5 DUP10 ADD MLOAD PUSH2 0x210B PUSH1 0x1F DUP10 AND DUP3 PUSH2 0x201E JUMP JUMPDEST DUP4 SSTORE POP JUMPDEST PUSH1 0x1 PUSH1 0x2 DUP9 MUL ADD DUP9 SSTORE POP POP POP JUMPDEST POP POP POP POP POP POP JUMP JUMPDEST DUP3 DUP2 DUP4 CALLDATACOPY PUSH0 DUP4 DUP4 ADD MSTORE POP POP POP JUMP JUMPDEST PUSH0 PUSH2 0x213D DUP4 DUP6 PUSH2 0x18D7 JUMP JUMPDEST SWAP4 POP PUSH2 0x214A DUP4 DUP6 DUP5 PUSH2 0x2124 JUMP JUMPDEST PUSH2 0x2153 DUP4 PUSH2 0x18F5 JUMP JUMPDEST DUP5 ADD SWAP1 POP SWAP4 SWAP3 POP POP POP JUMP JUMPDEST PUSH0 PUSH1 0x20 DUP3 ADD SWAP1 POP DUP2 DUP2 SUB PUSH0 DUP4 ADD MSTORE PUSH2 0x2177 DUP2 DUP5 DUP7 PUSH2 0x2132 JUMP JUMPDEST SWAP1 POP SWAP4 SWAP3 POP POP POP JUMP JUMPDEST PUSH32 0x4E6F74206D6964646C656D616E00000000000000000000000000000000000000 PUSH0 DUP3 ADD MSTORE POP JUMP JUMPDEST PUSH0 PUSH2 0x21B4 PUSH1 0xD DUP4 PUSH2 0x18D7 JUMP JUMPDEST SWAP2 POP PUSH2 0x21BF DUP3 PUSH2 0x2180 JUMP JUMPDEST PUSH1 0x20 DUP3 ADD SWAP1 POP SWAP2 SWAP1 POP JUMP JUMPDEST PUSH0 PUSH1 0x20 DUP3 ADD SWAP1 POP DUP2 DUP2 SUB PUSH0 DUP4 ADD MSTORE PUSH2 0x21E1 DUP2 PUSH2 0x21A8 JUMP JUMPDEST SWAP1 POP SWAP2 SWAP1 POP JUMP JUMPDEST PUSH32 0x4E6F20636F6C6C6563746F722064617461000000000000000000000000000000 PUSH0 DUP3 ADD MSTORE POP JUMP JUMPDEST PUSH0 PUSH2 0x221C PUSH1 0x11 DUP4 PUSH2 0x18D7 JUMP JUMPDEST SWAP2 POP PUSH2 0x2227 DUP3 PUSH2 0x21E8 JUMP JUMPDEST PUSH1 0x20 DUP3 ADD SWAP1 POP SWAP2 SWAP1 POP JUMP JUMPDEST PUSH0 PUSH1 0x20 DUP3 ADD SWAP1 POP DUP2 DUP2 SUB PUSH0 DUP4 ADD MSTORE PUSH2 0x2249 DUP2 PUSH2 0x2210 JUMP JUMPDEST SWAP1 POP SWAP2 SWAP1 POP JUMP JUMPDEST PUSH32 0x4E6F74206C616200000000000000000000000000000000000000000000000000 PUSH0 DUP3 ADD MSTORE POP JUMP JUMPDEST PUSH0 PUSH2 0x2284 PUSH1 0x7 DUP4 PUSH2 0x18D7 JUMP JUMPDEST SWAP2 POP PUSH2 0x228F DUP3 PUSH2 0x2250 JUMP JUMPDEST PUSH1 0x20 DUP3 ADD SWAP1 POP SWAP2 SWAP1 POP JUMP JUMPDEST PUSH0 PUSH1 0x20 DUP3 ADD SWAP1 POP DUP2 DUP2 SUB PUSH0 DUP4 ADD MSTORE PUSH2 0x22B1 DUP2 PUSH2 0x2278 JUMP JUMPDEST SWAP1 POP SWAP2 SWAP1 POP JUMP JUMPDEST PUSH32 0x4E6F206D6964646C656D616E2064617461000000000000000000000000000000 PUSH0 DUP3 ADD MSTORE POP JUMP JUMPDEST PUSH0 PUSH2 0x22EC PUSH1 0x11 DUP4 PUSH2 0x18D7 JUMP JUMPDEST SWAP2 POP PUSH2 0x22F7 DUP3 PUSH2 0x22B8 JUMP JUMPDEST PUSH1 0x20 DUP3 ADD SWAP1 POP SWAP2 SWAP1 POP JUMP JUMPDEST PUSH0 PUSH1 0x20 DUP3 ADD SWAP1 POP DUP2 DUP2 SUB PUSH0 DUP4 ADD MSTORE PUSH2 0x2319 DUP2 PUSH2 0x22E0 JUMP JUMPDEST SWAP1 POP SWAP2 SWAP1 POP JUMP JUMPDEST PUSH32 0x4E6F7420636F6C6C6563746F7200000000000000000000000000000000000000 PUSH0 DUP3 ADD MSTORE POP JUMP JUMPDEST PUSH0 PUSH2 0x2354 PUSH1 0xD DUP4 PUSH2 0x18D7 JUMP JUMPDEST SWAP2 POP PUSH2 0x235F DUP3 PUSH2 0x2320 JUMP JUMPDEST PUSH1 0x20 DUP3 ADD SWAP1 POP SWAP2 SWAP1 POP JUMP JUMPDEST PUSH0 PUSH1 0x20 DUP3 ADD SWAP1 POP DUP2 DUP2 SUB PUSH0 DUP4 ADD MSTORE PUSH2 0x2381 DUP2 PUSH2 0x2348 JUMP JUMPDEST SWAP1 POP SWAP2 SWAP1 POP JUMP JUMPDEST PUSH32 0x4E487B7100000000000000000000000000000000000000000000000000000000 PUSH0 MSTORE PUSH1 0x11 PUSH1 0x4 MSTORE PUSH1 0x24 PUSH0 REVERT JUMPDEST PUSH0 PUSH2 0x23BF DUP3 PUSH2 0x186F JUMP JUMPDEST SWAP2 POP PUSH32 0xFFFFFFFFFFFFFFFFFFFFFFFFFFFFFFFFFFFFFFFFFFFFFFFFFFFFFFFFFFFFFFFF DUP3 SUB PUSH2 0x23F1 JUMPI PUSH2 0x23F0 PUSH2 0x2388 JUMP JUMPDEST JUMPDEST PUSH1 0x1 DUP3 ADD SWAP1 POP SWAP2 SWAP1 POP JUMP INVALID LOG2 PUSH5 0x6970667358 0x22 SLT KECCAK256 0xD8 PREVRANDAO 0xB6 PUSH14 0xCD235CE3ABDA7CD6082E2D274331 SWAP5 0xF DUP5 SAR 0xB1 PUSH31 0xD59BDDDCCFDB30064736F6C634300081E0033000000000000000000000000 "
    },
    "gasEstimates": {
      "creation": {
        "codeDepositCost": "1853200",
        "executionCost": "infinite",
        "totalCost": "infinite"
      },
      "external": {
        "ROLE_COLLECTOR()": "419",
        "ROLE_LAB()": "377",
        "ROLE_MANUFACTURER()": "397",
        "ROLE_MIDDLEMAN()": "399",
        "addLabData(uint256,string)": "infinite",
        "addManufacturerData(uint256,string)": "infinite",
        "addMiddlemanData(uint256,string)": "infinite",
        "batches(uint256)": "infinite",
        "collectorInfos(uint256)": "infinite",
        "createBatch(string,string)": "infinite",
        "getBatchSummary(uint256)": "infinite",
        "getCollectorCID(uint256)": "infinite",
        "getFullBatch(uint256)": "infinite",
        "getLabCID(uint256)": "infinite",
        "getMiddlemanCID(uint256)": "infinite",
        "labInfos(uint256)": "infinite",
        "manufacturerInfos(uint256)": "infinite",
        "middlemanInfos(uint256)": "infinite",
        "nextBatchId()": "2448",
        "registry()": "infinite"
      }
    },
    "methodIdentifiers": {
      "ROLE_COLLECTOR()": "f0a0d04b",
      "ROLE_LAB()": "013444b5",
      "ROLE_MANUFACTURER()": "e9ac2d8b",
      "ROLE_MIDDLEMAN()": "0da0aff7",
      "addLabData(uint256,string)": "8c4de232",
      "addManufacturerData(uint256,string)": "1ab5a7b7",
      "addMiddlemanData(uint256,string)": "302d1fdf",
      "batches(uint256)": "b32c4d8d",
      "collectorInfos(uint256)": "61d06b89",
      "createBatch(string,string)": "92b8f021",
      "getBatchSummary(uint256)": "38e98a29",
      "getCollectorCID(uint256)": "cbfa5a00",
      "getFullBatch(uint256)": "00c91e8c",
      "getLabCID(uint256)": "a2e79bae",
      "getMiddlemanCID(uint256)": "64b4cde8",
      "labInfos(uint256)": "0ec0643e",
      "manufacturerInfos(uint256)": "c64afcf0",
      "middlemanInfos(uint256)": "fc85583e",
      "nextBatchId()": "8462a7f8",
      "registry()": "7b103999"
    }
  },
  "storageLayout": {
    "storage": [
      {
        "astId": 5,
        "contract": "HerbData.sol:HerbDataCID",
        "label": "registry",
        "offset": 0,
        "slot": "0",
        "type": "t_contract(RegisteredWorker)590"
      },
      {
        "astId": 7,
        "contract": "HerbData.sol:HerbDataCID",
        "label": "nextBatchId",
        "offset": 0,
        "slot": "1",
        "type": "t_uint256"
      },
      {
        "astId": 47,
        "contract": "HerbData.sol:HerbDataCID",
        "label": "batches",
        "offset": 0,
        "slot": "2",
        "type": "t_mapping(t_uint256,t_struct(Batch)30_storage)"
      },
      {
        "astId": 52,
        "contract": "HerbData.sol:HerbDataCID",
        "label": "collectorInfos",
        "offset": 0,
        "slot": "3",
        "type": "t_mapping(t_uint256,t_struct(CollectorData)33_storage)"
      },
      {
        "astId": 57,
        "contract": "HerbData.sol:HerbDataCID",
        "label": "middlemanInfos",
        "offset": 0,
        "slot": "4",
        "type": "t_mapping(t_uint256,t_struct(MiddlemanData)36_storage)"
      },
      {
        "astId": 62,
        "contract": "HerbData.sol:HerbDataCID",
        "label": "labInfos",
        "offset": 0,
        "slot": "5",
        "type": "t_mapping(t_uint256,t_struct(LabData)39_storage)"
      },
      {
        "astId": 67,
        "contract": "HerbData.sol:HerbDataCID",
        "label": "manufacturerInfos",
        "offset": 0,
        "slot": "6",
        "type": "t_mapping(t_uint256,t_struct(ManufacturerData)42_storage)"
      }
    ],
    "types": {
      "t_bool": {
        "encoding": "inplace",
        "label": "bool",
        "numberOfBytes": "1"
      },
      "t_contract(RegisteredWorker)590": {
        "encoding": "inplace",
        "label": "contract RegisteredWorker",
        "numberOfBytes": "20"
      },
      "t_mapping(t_uint256,t_struct(Batch)30_storage)": {
        "encoding": "mapping",
        "key": "t_uint256",
        "label": "mapping(uint256 => struct HerbDataCID.Batch)",
        "numberOfBytes": "32",
        "value": "t_struct(Batch)30_storage"
      },
      "t_mapping(t_uint256,t_struct(CollectorData)33_storage)": {
        "encoding": "mapping",
        "key": "t_uint256",
        "label": "mapping(uint256 => struct HerbDataCID.CollectorData)",
        "numberOfBytes": "32",
        "value": "t_struct(CollectorData)33_storage"
      },
      "t_mapping(t_uint256,t_struct(LabData)39_storage)": {
        "encoding": "mapping",
        "key": "t_uint256",
        "label": "mapping(uint256 => struct HerbDataCID.LabData)",
        "numberOfBytes": "32",
        "value": "t_struct(LabData)39_storage"
      },
      "t_mapping(t_uint256,t_struct(ManufacturerData)42_storage)": {
        "encoding": "mapping",
        "key": "t_uint256",
        "label": "mapping(uint256 => struct HerbDataCID.ManufacturerData)",
        "numberOfBytes": "32",
        "value": "t_struct(ManufacturerData)42_storage"
      },
      "t_mapping(t_uint256,t_struct(MiddlemanData)36_storage)": {
        "encoding": "mapping",
        "key": "t_uint256",
        "label": "mapping(uint256 => struct HerbDataCID.MiddlemanData)",
        "numberOfBytes": "32",
        "value": "t_struct(MiddlemanData)36_storage"
      },
      "t_string_storage": {
        "encoding": "bytes",
        "label": "string",
        "numberOfBytes": "32"
      },
      "t_struct(Batch)30_storage": {
        "encoding": "inplace",
        "label": "struct HerbDataCID.Batch",
        "members": [
          {
            "astId": 21,
            "contract": "HerbData.sol:HerbDataCID",
            "label": "batchRef",
            "offset": 0,
            "slot": "0",
            "type": "t_string_storage"
          },
          {
            "astId": 23,
            "contract": "HerbData.sol:HerbDataCID",
            "label": "hasCollector",
            "offset": 0,
            "slot": "1",
            "type": "t_bool"
          },
          {
            "astId": 25,
            "contract": "HerbData.sol:HerbDataCID",
            "label": "hasMiddleman",
            "offset": 1,
            "slot": "1",
            "type": "t_bool"
          },
          {
            "astId": 27,
            "contract": "HerbData.sol:HerbDataCID",
            "label": "hasLab",
            "offset": 2,
            "slot": "1",
            "type": "t_bool"
          },
          {
            "astId": 29,
            "contract": "HerbData.sol:HerbDataCID",
            "label": "hasManufacturer",
            "offset": 3,
            "slot": "1",
            "type": "t_bool"
          }
        ],
        "numberOfBytes": "64"
      },
      "t_struct(CollectorData)33_storage": {
        "encoding": "inplace",
        "label": "struct HerbDataCID.CollectorData",
        "members": [
          {
            "astId": 32,
            "contract": "HerbData.sol:HerbDataCID",
            "label": "cid",
            "offset": 0,
            "slot": "0",
            "type": "t_string_storage"
          }
        ],
        "numberOfBytes": "32"
      },
      "t_struct(LabData)39_storage": {
        "encoding": "inplace",
        "label": "struct HerbDataCID.LabData",
        "members": [
          {
            "astId": 38,
            "contract": "HerbData.sol:HerbDataCID",
            "label": "cid",
            "offset": 0,
            "slot": "0",
            "type": "t_string_storage"
          }
        ],
        "numberOfBytes": "32"
      },
      "t_struct(ManufacturerData)42_storage": {
        "encoding": "inplace",
        "label": "struct HerbDataCID.ManufacturerData",
        "members": [
          {
            "astId": 41,
            "contract": "HerbData.sol:HerbDataCID",
            "label": "cid",
            "offset": 0,
            "slot": "0",
            "type": "t_string_storage"
          }
        ],
        "numberOfBytes": "32"
      },
      "t_struct(MiddlemanData)36_storage": {
        "encoding": "inplace",
        "label": "struct HerbDataCID.MiddlemanData",
        "members": [
          {
            "astId": 35,
            "contract": "HerbData.sol:HerbDataCID",
            "label": "cid",
            "offset": 0,
            "slot": "0",
            "type": "t_string_storage"
          }
        ],
        "numberOfBytes": "32"
      },
      "t_uint256": {
        "encoding": "inplace",
        "label": "uint256",
        "numberOfBytes": "32"
      }
    }
  },
  "transientStorageLayout": {
    "storage": [],
    "types": null
  },
  "userdoc": {
    "kind": "user",
    "methods": {},
    "version": 1
  }
}