{
  "abi": [
    {
      "inputs": [],
      "stateMutability": "nonpayable",
      "type": "constructor"
    },
    {
      "anonymous": false,
      "inputs": [
        {
          "indexed": true,
          "internalType": "address",
          "name": "worker",
          "type": "address"
        },
        {
          "indexed": false,
          "internalType": "uint8",
          "name": "roleBits",
          "type": "uint8"
        }
      ],
      "name": "WorkerRoleUpdated",
      "type": "event"
    },
    {
      "inputs": [
        {
          "internalType": "address",
          "name": "worker",
          "type": "address"
        },
        {
          "internalType": "uint8",
          "name": "roleBit",
          "type": "uint8"
        }
      ],
      "name": "hasRole",
      "outputs": [
        {
          "internalType": "bool",
          "name": "",
          "type": "bool"
        }
      ],
      "stateMutability": "view",
      "type": "function"
    },
    {
      "inputs": [],
      "name": "owner",
      "outputs": [
        {
          "internalType": "address",
          "name": "",
          "type": "address"
        }
      ],
      "stateMutability": "view",
      "type": "function"
    },
    {
      "inputs": [
        {
          "internalType": "address",
          "name": "worker",
          "type": "address"
        },
        {
          "internalType": "uint8",
          "name": "roleBits",
          "type": "uint8"
        }
      ],
      "name": "removeWorkerRole",
      "outputs": [],
      "stateMutability": "nonpayable",
      "type": "function"
    },
    {
      "inputs": [
        {
          "internalType": "address",
          "name": "",
          "type": "address"
        }
      ],
      "name": "roles",
      "outputs": [
        {
          "internalType": "uint8",
          "name": "",
          "type": "uint8"
        }
      ],
      "stateMutability": "view",
      "type": "function"
    },
    {
      "inputs": [
        {
          "internalType": "address",
          "name": "worker",
          "type": "address"
        },
        {
          "internalType": "uint8",
          "name": "roleBits",
          "type": "uint8"
        }
      ],
      "name": "setWorkerRole",
      "outputs": [],
      "stateMutability": "nonpayable",
      "type": "function"
    }
  ],
  "devdoc": {
    "kind": "dev",
    "methods": {},
    "version": 1
  },
  "evm": {
    "assembly": "    /* \"RegisteredWorker.sol\":273:1260  contract RegisteredWorker {... */\n  mstore(0x40, 0x80)\n    /* \"RegisteredWorker.sol\":565:604  constructor() {... */\n  callvalue\n  dup1\n  iszero\n  tag_1\n  jumpi\n  revert(0x00, 0x00)\ntag_1:\n  pop\n    /* \"RegisteredWorker.sol\":590:600  msg.sender */\n  caller\n    /* \"RegisteredWorker.sol\":582:587  owner */\n  0x00\n  0x00\n    /* \"RegisteredWorker.sol\":582:600  owner = msg.sender */\n  0x0100\n  exp\n  dup2\n  sload\n  dup2\n  0xffffffffffffffffffffffffffffffffffffffff\n  mul\n  not\n  and\n  swap1\n  dup4\n  0xffffffffffffffffffffffffffffffffffffffff\n  and\n  mul\n  or\n  swap1\n  sstore\n  pop\n    /* \"RegisteredWorker.sol\":273:1260  contract RegisteredWorker {... */\n  dataSize(sub_0)\n  dup1\n  dataOffset(sub_0)\n  0x00\n  codecopy\n  0x00\n  return\nstop\n\nsub_0: assembly {\n        /* \"RegisteredWorker.sol\":273:1260  contract RegisteredWorker {... */\n      mstore(0x40, 0x80)\n      callvalue\n      dup1\n      iszero\n      tag_1\n      jumpi\n      revert(0x00, 0x00)\n    tag_1:\n      pop\n      jumpi(tag_2, lt(calldatasize, 0x04))\n      shr(0xe0, calldataload(0x00))\n      dup1\n      0x4886395a\n      eq\n      tag_3\n      jumpi\n      dup1\n      0x4d9648a7\n      eq\n      tag_4\n      jumpi\n      dup1\n      0x8da5cb5b\n      eq\n      tag_5\n      jumpi\n      dup1\n      0x95a8c58d\n      eq\n      tag_6\n      jumpi\n      dup1\n      0x99374642\n      eq\n      tag_7\n      jumpi\n    tag_2:\n      revert(0x00, 0x00)\n        /* \"RegisteredWorker.sol\":907:1082  function removeWorkerRole(address worker, uint8 roleBits) external onlyOwner {... */\n    tag_3:\n      tag_8\n      0x04\n      dup1\n      calldatasize\n      sub\n      dup2\n      add\n      swap1\n      tag_9\n      swap2\n      swap1\n      tag_10\n      jump\t// in\n    tag_9:\n      tag_11\n      jump\t// in\n    tag_8:\n      stop\n        /* \"RegisteredWorker.sol\":699:847  function setWorkerRole(address worker, uint8 roleBits) external onlyOwner {... */\n    tag_4:\n      tag_12\n      0x04\n      dup1\n      calldatasize\n      sub\n      dup2\n      add\n      swap1\n      tag_13\n      swap2\n      swap1\n      tag_10\n      jump\t// in\n    tag_13:\n      tag_14\n      jump\t// in\n    tag_12:\n      stop\n        /* \"RegisteredWorker.sol\":302:322  address public owner */\n    tag_5:\n      tag_15\n      tag_16\n      jump\t// in\n    tag_15:\n      mload(0x40)\n      tag_17\n      swap2\n      swap1\n      tag_18\n      jump\t// in\n    tag_17:\n      mload(0x40)\n      dup1\n      swap2\n      sub\n      swap1\n      return\n        /* \"RegisteredWorker.sol\":1136:1257  function hasRole(address worker, uint8 roleBit) external view returns (bool) {... */\n    tag_6:\n      tag_19\n      0x04\n      dup1\n      calldatasize\n      sub\n      dup2\n      add\n      swap1\n      tag_20\n      swap2\n      swap1\n      tag_10\n      jump\t// in\n    tag_20:\n      tag_21\n      jump\t// in\n    tag_19:\n      mload(0x40)\n      tag_22\n      swap2\n      swap1\n      tag_23\n      jump\t// in\n    tag_22:\n      mload(0x40)\n      dup1\n      swap2\n      sub\n      swap1\n      return\n        /* \"RegisteredWorker.sol\":325:363  mapping(address => uint8) public roles */\n    tag_7:\n      tag_24\n      0x04\n      dup1\n      calldatasize\n      sub\n      dup2\n      add\n      swap1\n      tag_25\n      swap2\n      swap1\n      tag_26\n      jump\t// in\n    tag_25:\n      tag_27\n      jump\t// in\n    tag_24:\n      mload(0x40)\n      tag_28\n      swap2\n      swap1\n      tag_29\n      jump\t// in\n    tag_28:\n      mload(0x40)\n      dup1\n      swap2\n      sub\n      swap1\n      return\n        /* \"RegisteredWorker.sol\":907:1082  function removeWorkerRole(address worker, uint8 roleBits) external onlyOwner {... */\n    tag_11:\n        /* \"RegisteredWorker.sol\":513:518  owner */\n      0x00\n      0x00\n      swap1\n      sload\n      swap1\n      0x0100\n      exp\n      swap1\n      div\n      0xffffffffffffffffffffffffffffffffffffffff\n      and\n        /* \"RegisteredWorker.sol\":499:518  msg.sender == owner */\n      0xffffffffffffffffffffffffffffffffffffffff\n      and\n        /* \"RegisteredWorker.sol\":499:509  msg.sender */\n      caller\n        /* \"RegisteredWorker.sol\":499:518  msg.sender == owner */\n      0xffffffffffffffffffffffffffffffffffffffff\n      and\n      eq\n        /* \"RegisteredWorker.sol\":491:551  require(msg.sender == owner, \"RegisteredWorker: only owner\") */\n      tag_31\n      jumpi\n      mload(0x40)\n      0x08c379a000000000000000000000000000000000000000000000000000000000\n      dup2\n      mstore\n      0x04\n      add\n      tag_32\n      swap1\n      tag_33\n      jump\t// in\n    tag_32:\n      mload(0x40)\n      dup1\n      swap2\n      sub\n      swap1\n      revert\n    tag_31:\n        /* \"RegisteredWorker.sol\":1021:1029  roleBits */\n      dup1\n        /* \"RegisteredWorker.sol\":1020:1029  ~roleBits */\n      not\n        /* \"RegisteredWorker.sol\":1003:1008  roles */\n      0x01\n        /* \"RegisteredWorker.sol\":1003:1016  roles[worker] */\n      0x00\n        /* \"RegisteredWorker.sol\":1009:1015  worker */\n      dup5\n        /* \"RegisteredWorker.sol\":1003:1016  roles[worker] */\n      0xffffffffffffffffffffffffffffffffffffffff\n      and\n      0xffffffffffffffffffffffffffffffffffffffff\n      and\n      dup2\n      mstore\n      0x20\n      add\n      swap1\n      dup2\n      mstore\n      0x20\n      add\n      0x00\n      keccak256\n      0x00\n      swap1\n      sload\n      swap1\n      0x0100\n      exp\n      swap1\n      div\n      0xff\n      and\n        /* \"RegisteredWorker.sol\":1003:1030  roles[worker] & (~roleBits) */\n      and\n        /* \"RegisteredWorker.sol\":987:992  roles */\n      0x01\n        /* \"RegisteredWorker.sol\":987:1000  roles[worker] */\n      0x00\n        /* \"RegisteredWorker.sol\":993:999  worker */\n      dup5\n        /* \"RegisteredWorker.sol\":987:1000  roles[worker] */\n      0xffffffffffffffffffffffffffffffffffffffff\n      and\n      0xffffffffffffffffffffffffffffffffffffffff\n      and\n      dup2\n      mstore\n      0x20\n      add\n      swap1\n      dup2\n      mstore\n      0x20\n      add\n      0x00\n      keccak256\n      0x00\n        /* \"RegisteredWorker.sol\":987:1030  roles[worker] = roles[worker] & (~roleBits) */\n      0x0100\n      exp\n      dup2\n      sload\n      dup2\n      0xff\n      mul\n      not\n      and\n      swap1\n      dup4\n      0xff\n      and\n      mul\n      or\n      swap1\n      sstore\n      pop\n        /* \"RegisteredWorker.sol\":1056:1062  worker */\n      dup2\n        /* \"RegisteredWorker.sol\":1038:1078  WorkerRoleUpdated(worker, roles[worker]) */\n      0xffffffffffffffffffffffffffffffffffffffff\n      and\n      0xdc7fc04b1d5014248577eb00b7b6adc022750f3c9bff0f466ad8fb80568afa79\n        /* \"RegisteredWorker.sol\":1064:1069  roles */\n      0x01\n        /* \"RegisteredWorker.sol\":1064:1077  roles[worker] */\n      0x00\n        /* \"RegisteredWorker.sol\":1070:1076  worker */\n      dup6\n        /* \"RegisteredWorker.sol\":1064:1077  roles[worker] */\n      0xffffffffffffffffffffffffffffffffffffffff\n      and\n      0xffffffffffffffffffffffffffffffffffffffff\n      and\n      dup2\n      mstore\n      0x20\n      add\n      swap1\n      dup2\n      mstore\n      0x20\n      add\n      0x00\n      keccak256\n      0x00\n      swap1\n      sload\n      swap1\n      0x0100\n      exp\n      swap1\n      div\n      0xff\n      and\n        /* \"RegisteredWorker.sol\":1038:1078  WorkerRoleUpdated(worker, roles[worker]) */\n      mload(0x40)\n      tag_35\n      swap2\n      swap1\n      tag_29\n      jump\t// in\n    tag_35:\n      mload(0x40)\n      dup1\n      swap2\n      sub\n      swap1\n      log2\n        /* \"RegisteredWorker.sol\":907:1082  function removeWorkerRole(address worker, uint8 roleBits) external onlyOwner {... */\n      pop\n      pop\n      jump\t// out\n        /* \"RegisteredWorker.sol\":699:847  function setWorkerRole(address worker, uint8 roleBits) external onlyOwner {... */\n    tag_14:\n        /* \"RegisteredWorker.sol\":513:518  owner */\n      0x00\n      0x00\n      swap1\n      sload\n      swap1\n      0x0100\n      exp\n      swap1\n      div\n      0xffffffffffffffffffffffffffffffffffffffff\n      and\n        /* \"RegisteredWorker.sol\":499:518  msg.sender == owner */\n      0xffffffffffffffffffffffffffffffffffffffff\n      and\n        /* \"RegisteredWorker.sol\":499:509  msg.sender */\n      caller\n        /* \"RegisteredWorker.sol\":499:518  msg.sender == owner */\n      0xffffffffffffffffffffffffffffffffffffffff\n      and\n      eq\n        /* \"RegisteredWorker.sol\":491:551  require(msg.sender == owner, \"RegisteredWorker: only owner\") */\n      tag_37\n      jumpi\n      mload(0x40)\n      0x08c379a000000000000000000000000000000000000000000000000000000000\n      dup2\n      mstore\n      0x04\n      add\n      tag_38\n      swap1\n      tag_33\n      jump\t// in\n    tag_38:\n      mload(0x40)\n      dup1\n      swap2\n      sub\n      swap1\n      revert\n    tag_37:\n        /* \"RegisteredWorker.sol\":792:800  roleBits */\n      dup1\n        /* \"RegisteredWorker.sol\":776:781  roles */\n      0x01\n        /* \"RegisteredWorker.sol\":776:789  roles[worker] */\n      0x00\n        /* \"RegisteredWorker.sol\":782:788  worker */\n      dup5\n        /* \"RegisteredWorker.sol\":776:789  roles[worker] */\n      0xffffffffffffffffffffffffffffffffffffffff\n      and\n      0xffffffffffffffffffffffffffffffffffffffff\n      and\n      dup2\n      mstore\n      0x20\n      add\n      swap1\n      dup2\n      mstore\n      0x20\n      add\n      0x00\n      keccak256\n      0x00\n        /* \"RegisteredWorker.sol\":776:800  roles[worker] = roleBits */\n      0x0100\n      exp\n      dup2\n      sload\n      dup2\n      0xff\n      mul\n      not\n      and\n      swap1\n      dup4\n      0xff\n      and\n      mul\n      or\n      swap1\n      sstore\n      pop\n        /* \"RegisteredWorker.sol\":826:832  worker */\n      dup2\n        /* \"RegisteredWorker.sol\":808:843  WorkerRoleUpdated(worker, roleBits) */\n      0xffffffffffffffffffffffffffffffffffffffff\n      and\n      0xdc7fc04b1d5014248577eb00b7b6adc022750f3c9bff0f466ad8fb80568afa79\n        /* \"RegisteredWorker.sol\":834:842  roleBits */\n      dup3\n        /* \"RegisteredWorker.sol\":808:843  WorkerRoleUpdated(worker, roleBits) */\n      mload(0x40)\n      tag_40\n      swap2\n      swap1\n      tag_29\n      jump\t// in\n    tag_40:\n      mload(0x40)\n      dup1\n      swap2\n      sub\n      swap1\n      log2\n        /* \"RegisteredWorker.sol\":699:847  function setWorkerRole(address worker, uint8 roleBits) external onlyOwner {... */\n      pop\n      pop\n      jump\t// out\n        /* \"RegisteredWorker.sol\":302:322  address public owner */\n    tag_16:\n      0x00\n      0x00\n      swap1\n      sload\n      swap1\n      0x0100\n      exp\n      swap1\n      div\n      0xffffffffffffffffffffffffffffffffffffffff\n      and\n      dup2\n      jump\t// out\n        /* \"RegisteredWorker.sol\":1136:1257  function hasRole(address worker, uint8 roleBit) external view returns (bool) {... */\n    tag_21:\n        /* \"RegisteredWorker.sol\":1207:1211  bool */\n      0x00\n        /* \"RegisteredWorker.sol\":1252:1253  0 */\n      0x00\n        /* \"RegisteredWorker.sol\":1240:1247  roleBit */\n      dup3\n        /* \"RegisteredWorker.sol\":1224:1229  roles */\n      0x01\n        /* \"RegisteredWorker.sol\":1224:1237  roles[worker] */\n      0x00\n        /* \"RegisteredWorker.sol\":1230:1236  worker */\n      dup7\n        /* \"RegisteredWorker.sol\":1224:1237  roles[worker] */\n      0xffffffffffffffffffffffffffffffffffffffff\n      and\n      0xffffffffffffffffffffffffffffffffffffffff\n      and\n      dup2\n      mstore\n      0x20\n      add\n      swap1\n      dup2\n      mstore\n      0x20\n      add\n      0x00\n      keccak256\n      0x00\n      swap1\n      sload\n      swap1\n      0x0100\n      exp\n      swap1\n      div\n      0xff\n      and\n        /* \"RegisteredWorker.sol\":1224:1247  roles[worker] & roleBit */\n      and\n        /* \"RegisteredWorker.sol\":1223:1253  (roles[worker] & roleBit) != 0 */\n      0xff\n      and\n      eq\n      iszero\n        /* \"RegisteredWorker.sol\":1216:1253  return (roles[worker] & roleBit) != 0 */\n      swap1\n      pop\n        /* \"RegisteredWorker.sol\":1136:1257  function hasRole(address worker, uint8 roleBit) external view returns (bool) {... */\n      swap3\n      swap2\n      pop\n      pop\n      jump\t// out\n        /* \"RegisteredWorker.sol\":325:363  mapping(address => uint8) public roles */\n    tag_27:\n      mstore(0x20, 0x01)\n      dup1\n      0x00\n      mstore\n      keccak256(0x00, 0x40)\n      0x00\n      swap2\n      pop\n      sload\n      swap1\n      0x0100\n      exp\n      swap1\n      div\n      0xff\n      and\n      dup2\n      jump\t// out\n        /* \"#utility.yul\":88:205   */\n    tag_43:\n        /* \"#utility.yul\":197:198   */\n      0x00\n        /* \"#utility.yul\":194:195   */\n      0x00\n        /* \"#utility.yul\":187:199   */\n      revert\n        /* \"#utility.yul\":334:460   */\n    tag_45:\n        /* \"#utility.yul\":371:378   */\n      0x00\n        /* \"#utility.yul\":411:453   */\n      0xffffffffffffffffffffffffffffffffffffffff\n        /* \"#utility.yul\":404:409   */\n      dup3\n        /* \"#utility.yul\":400:454   */\n      and\n        /* \"#utility.yul\":389:454   */\n      swap1\n      pop\n        /* \"#utility.yul\":334:460   */\n      swap2\n      swap1\n      pop\n      jump\t// out\n        /* \"#utility.yul\":466:562   */\n    tag_46:\n        /* \"#utility.yul\":503:510   */\n      0x00\n        /* \"#utility.yul\":532:556   */\n      tag_65\n        /* \"#utility.yul\":550:555   */\n      dup3\n        /* \"#utility.yul\":532:556   */\n      tag_45\n      jump\t// in\n    tag_65:\n        /* \"#utility.yul\":521:556   */\n      swap1\n      pop\n        /* \"#utility.yul\":466:562   */\n      swap2\n      swap1\n      pop\n      jump\t// out\n        /* \"#utility.yul\":568:690   */\n    tag_47:\n        /* \"#utility.yul\":641:665   */\n      tag_67\n        /* \"#utility.yul\":659:664   */\n      dup2\n        /* \"#utility.yul\":641:665   */\n      tag_46\n      jump\t// in\n    tag_67:\n        /* \"#utility.yul\":634:639   */\n      dup2\n        /* \"#utility.yul\":631:666   */\n      eq\n        /* \"#utility.yul\":621:684   */\n      tag_68\n      jumpi\n        /* \"#utility.yul\":680:681   */\n      0x00\n        /* \"#utility.yul\":677:678   */\n      0x00\n        /* \"#utility.yul\":670:682   */\n      revert\n        /* \"#utility.yul\":621:684   */\n    tag_68:\n        /* \"#utility.yul\":568:690   */\n      pop\n      jump\t// out\n        /* \"#utility.yul\":696:835   */\n    tag_48:\n        /* \"#utility.yul\":742:747   */\n      0x00\n        /* \"#utility.yul\":780:786   */\n      dup2\n        /* \"#utility.yul\":767:787   */\n      calldataload\n        /* \"#utility.yul\":758:787   */\n      swap1\n      pop\n        /* \"#utility.yul\":796:829   */\n      tag_70\n        /* \"#utility.yul\":823:828   */\n      dup2\n        /* \"#utility.yul\":796:829   */\n      tag_47\n      jump\t// in\n    tag_70:\n        /* \"#utility.yul\":696:835   */\n      swap3\n      swap2\n      pop\n      pop\n      jump\t// out\n        /* \"#utility.yul\":841:927   */\n    tag_49:\n        /* \"#utility.yul\":876:883   */\n      0x00\n        /* \"#utility.yul\":916:920   */\n      0xff\n        /* \"#utility.yul\":909:914   */\n      dup3\n        /* \"#utility.yul\":905:921   */\n      and\n        /* \"#utility.yul\":894:921   */\n      swap1\n      pop\n        /* \"#utility.yul\":841:927   */\n      swap2\n      swap1\n      pop\n      jump\t// out\n        /* \"#utility.yul\":933:1051   */\n    tag_50:\n        /* \"#utility.yul\":1004:1026   */\n      tag_73\n        /* \"#utility.yul\":1020:1025   */\n      dup2\n        /* \"#utility.yul\":1004:1026   */\n      tag_49\n      jump\t// in\n    tag_73:\n        /* \"#utility.yul\":997:1002   */\n      dup2\n        /* \"#utility.yul\":994:1027   */\n      eq\n        /* \"#utility.yul\":984:1045   */\n      tag_74\n      jumpi\n        /* \"#utility.yul\":1041:1042   */\n      0x00\n        /* \"#utility.yul\":1038:1039   */\n      0x00\n        /* \"#utility.yul\":1031:1043   */\n      revert\n        /* \"#utility.yul\":984:1045   */\n    tag_74:\n        /* \"#utility.yul\":933:1051   */\n      pop\n      jump\t// out\n        /* \"#utility.yul\":1057:1192   */\n    tag_51:\n        /* \"#utility.yul\":1101:1106   */\n      0x00\n        /* \"#utility.yul\":1139:1145   */\n      dup2\n        /* \"#utility.yul\":1126:1146   */\n      calldataload\n        /* \"#utility.yul\":1117:1146   */\n      swap1\n      pop\n        /* \"#utility.yul\":1155:1186   */\n      tag_76\n        /* \"#utility.yul\":1180:1185   */\n      dup2\n        /* \"#utility.yul\":1155:1186   */\n      tag_50\n      jump\t// in\n    tag_76:\n        /* \"#utility.yul\":1057:1192   */\n      swap3\n      swap2\n      pop\n      pop\n      jump\t// out\n        /* \"#utility.yul\":1198:1668   */\n    tag_10:\n        /* \"#utility.yul\":1264:1270   */\n      0x00\n        /* \"#utility.yul\":1272:1278   */\n      0x00\n        /* \"#utility.yul\":1321:1323   */\n      0x40\n        /* \"#utility.yul\":1309:1318   */\n      dup4\n        /* \"#utility.yul\":1300:1307   */\n      dup6\n        /* \"#utility.yul\":1296:1319   */\n      sub\n        /* \"#utility.yul\":1292:1324   */\n      slt\n        /* \"#utility.yul\":1289:1408   */\n      iszero\n      tag_78\n      jumpi\n        /* \"#utility.yul\":1327:1406   */\n      tag_79\n      tag_43\n      jump\t// in\n    tag_79:\n        /* \"#utility.yul\":1289:1408   */\n    tag_78:\n        /* \"#utility.yul\":1447:1448   */\n      0x00\n        /* \"#utility.yul\":1472:1525   */\n      tag_80\n        /* \"#utility.yul\":1517:1524   */\n      dup6\n        /* \"#utility.yul\":1508:1514   */\n      dup3\n        /* \"#utility.yul\":1497:1506   */\n      dup7\n        /* \"#utility.yul\":1493:1515   */\n      add\n        /* \"#utility.yul\":1472:1525   */\n      tag_48\n      jump\t// in\n    tag_80:\n        /* \"#utility.yul\":1462:1525   */\n      swap3\n      pop\n        /* \"#utility.yul\":1418:1535   */\n      pop\n        /* \"#utility.yul\":1574:1576   */\n      0x20\n        /* \"#utility.yul\":1600:1651   */\n      tag_81\n        /* \"#utility.yul\":1643:1650   */\n      dup6\n        /* \"#utility.yul\":1634:1640   */\n      dup3\n        /* \"#utility.yul\":1623:1632   */\n      dup7\n        /* \"#utility.yul\":1619:1641   */\n      add\n        /* \"#utility.yul\":1600:1651   */\n      tag_51\n      jump\t// in\n    tag_81:\n        /* \"#utility.yul\":1590:1651   */\n      swap2\n      pop\n        /* \"#utility.yul\":1545:1661   */\n      pop\n        /* \"#utility.yul\":1198:1668   */\n      swap3\n      pop\n      swap3\n      swap1\n      pop\n      jump\t// out\n        /* \"#utility.yul\":1674:1792   */\n    tag_52:\n        /* \"#utility.yul\":1761:1785   */\n      tag_83\n        /* \"#utility.yul\":1779:1784   */\n      dup2\n        /* \"#utility.yul\":1761:1785   */\n      tag_46\n      jump\t// in\n    tag_83:\n        /* \"#utility.yul\":1756:1759   */\n      dup3\n        /* \"#utility.yul\":1749:1786   */\n      mstore\n        /* \"#utility.yul\":1674:1792   */\n      pop\n      pop\n      jump\t// out\n        /* \"#utility.yul\":1798:2020   */\n    tag_18:\n        /* \"#utility.yul\":1891:1895   */\n      0x00\n        /* \"#utility.yul\":1929:1931   */\n      0x20\n        /* \"#utility.yul\":1918:1927   */\n      dup3\n        /* \"#utility.yul\":1914:1932   */\n      add\n        /* \"#utility.yul\":1906:1932   */\n      swap1\n      pop\n        /* \"#utility.yul\":1942:2013   */\n      tag_85\n        /* \"#utility.yul\":2010:2011   */\n      0x00\n        /* \"#utility.yul\":1999:2008   */\n      dup4\n        /* \"#utility.yul\":1995:2012   */\n      add\n        /* \"#utility.yul\":1986:1992   */\n      dup5\n        /* \"#utility.yul\":1942:2013   */\n      tag_52\n      jump\t// in\n    tag_85:\n        /* \"#utility.yul\":1798:2020   */\n      swap3\n      swap2\n      pop\n      pop\n      jump\t// out\n        /* \"#utility.yul\":2026:2116   */\n    tag_53:\n        /* \"#utility.yul\":2060:2067   */\n      0x00\n        /* \"#utility.yul\":2103:2108   */\n      dup2\n        /* \"#utility.yul\":2096:2109   */\n      iszero\n        /* \"#utility.yul\":2089:2110   */\n      iszero\n        /* \"#utility.yul\":2078:2110   */\n      swap1\n      pop\n        /* \"#utility.yul\":2026:2116   */\n      swap2\n      swap1\n      pop\n      jump\t// out\n        /* \"#utility.yul\":2122:2231   */\n    tag_54:\n        /* \"#utility.yul\":2203:2224   */\n      tag_88\n        /* \"#utility.yul\":2218:2223   */\n      dup2\n        /* \"#utility.yul\":2203:2224   */\n      tag_53\n      jump\t// in\n    tag_88:\n        /* \"#utility.yul\":2198:2201   */\n      dup3\n        /* \"#utility.yul\":2191:2225   */\n      mstore\n        /* \"#utility.yul\":2122:2231   */\n      pop\n      pop\n      jump\t// out\n        /* \"#utility.yul\":2237:2447   */\n    tag_23:\n        /* \"#utility.yul\":2324:2328   */\n      0x00\n        /* \"#utility.yul\":2362:2364   */\n      0x20\n        /* \"#utility.yul\":2351:2360   */\n      dup3\n        /* \"#utility.yul\":2347:2365   */\n      add\n        /* \"#utility.yul\":2339:2365   */\n      swap1\n      pop\n        /* \"#utility.yul\":2375:2440   */\n      tag_90\n        /* \"#utility.yul\":2437:2438   */\n      0x00\n        /* \"#utility.yul\":2426:2435   */\n      dup4\n        /* \"#utility.yul\":2422:2439   */\n      add\n        /* \"#utility.yul\":2413:2419   */\n      dup5\n        /* \"#utility.yul\":2375:2440   */\n      tag_54\n      jump\t// in\n    tag_90:\n        /* \"#utility.yul\":2237:2447   */\n      swap3\n      swap2\n      pop\n      pop\n      jump\t// out\n        /* \"#utility.yul\":2453:2782   */\n    tag_26:\n        /* \"#utility.yul\":2512:2518   */\n      0x00\n        /* \"#utility.yul\":2561:2563   */\n      0x20\n        /* \"#utility.yul\":2549:2558   */\n      dup3\n        /* \"#utility.yul\":2540:2547   */\n      dup5\n        /* \"#utility.yul\":2536:2559   */\n      sub\n        /* \"#utility.yul\":2532:2564   */\n      slt\n        /* \"#utility.yul\":2529:2648   */\n      iszero\n      tag_92\n      jumpi\n        /* \"#utility.yul\":2567:2646   */\n      tag_93\n      tag_43\n      jump\t// in\n    tag_93:\n        /* \"#utility.yul\":2529:2648   */\n    tag_92:\n        /* \"#utility.yul\":2687:2688   */\n      0x00\n        /* \"#utility.yul\":2712:2765   */\n      tag_94\n        /* \"#utility.yul\":2757:2764   */\n      dup5\n        /* \"#utility.yul\":2748:2754   */\n      dup3\n        /* \"#utility.yul\":2737:2746   */\n      dup6\n        /* \"#utility.yul\":2733:2755   */\n      add\n        /* \"#utility.yul\":2712:2765   */\n      tag_48\n      jump\t// in\n    tag_94:\n        /* \"#utility.yul\":2702:2765   */\n      swap2\n      pop\n        /* \"#utility.yul\":2658:2775   */\n      pop\n        /* \"#utility.yul\":2453:2782   */\n      swap3\n      swap2\n      pop\n      pop\n      jump\t// out\n        /* \"#utility.yul\":2788:2900   */\n    tag_55:\n        /* \"#utility.yul\":2871:2893   */\n      tag_96\n        /* \"#utility.yul\":2887:2892   */\n      dup2\n        /* \"#utility.yul\":2871:2893   */\n      tag_49\n      jump\t// in\n    tag_96:\n        /* \"#utility.yul\":2866:2869   */\n      dup3\n        /* \"#utility.yul\":2859:2894   */\n      mstore\n        /* \"#utility.yul\":2788:2900   */\n      pop\n      pop\n      jump\t// out\n        /* \"#utility.yul\":2906:3120   */\n    tag_29:\n        /* \"#utility.yul\":2995:2999   */\n      0x00\n        /* \"#utility.yul\":3033:3035   */\n      0x20\n        /* \"#utility.yul\":3022:3031   */\n      dup3\n        /* \"#utility.yul\":3018:3036   */\n      add\n        /* \"#utility.yul\":3010:3036   */\n      swap1\n      pop\n        /* \"#utility.yul\":3046:3113   */\n      tag_98\n        /* \"#utility.yul\":3110:3111   */\n      0x00\n        /* \"#utility.yul\":3099:3108   */\n      dup4\n        /* \"#utility.yul\":3095:3112   */\n      add\n        /* \"#utility.yul\":3086:3092   */\n      dup5\n        /* \"#utility.yul\":3046:3113   */\n      tag_55\n      jump\t// in\n    tag_98:\n        /* \"#utility.yul\":2906:3120   */\n      swap3\n      swap2\n      pop\n      pop\n      jump\t// out\n        /* \"#utility.yul\":3126:3295   */\n    tag_56:\n        /* \"#utility.yul\":3210:3221   */\n      0x00\n        /* \"#utility.yul\":3244:3250   */\n      dup3\n        /* \"#utility.yul\":3239:3242   */\n      dup3\n        /* \"#utility.yul\":3232:3251   */\n      mstore\n        /* \"#utility.yul\":3284:3288   */\n      0x20\n        /* \"#utility.yul\":3279:3282   */\n      dup3\n        /* \"#utility.yul\":3275:3289   */\n      add\n        /* \"#utility.yul\":3260:3289   */\n      swap1\n      pop\n        /* \"#utility.yul\":3126:3295   */\n      swap3\n      swap2\n      pop\n      pop\n      jump\t// out\n        /* \"#utility.yul\":3301:3479   */\n    tag_57:\n        /* \"#utility.yul\":3441:3471   */\n      0x52656769737465726564576f726b65723a206f6e6c79206f776e657200000000\n        /* \"#utility.yul\":3437:3438   */\n      0x00\n        /* \"#utility.yul\":3429:3435   */\n      dup3\n        /* \"#utility.yul\":3425:3439   */\n      add\n        /* \"#utility.yul\":3418:3472   */\n      mstore\n        /* \"#utility.yul\":3301:3479   */\n      pop\n      jump\t// out\n        /* \"#utility.yul\":3485:3851   */\n    tag_58:\n        /* \"#utility.yul\":3627:3630   */\n      0x00\n        /* \"#utility.yul\":3648:3715   */\n      tag_102\n        /* \"#utility.yul\":3712:3714   */\n      0x1c\n        /* \"#utility.yul\":3707:3710   */\n      dup4\n        /* \"#utility.yul\":3648:3715   */\n      tag_56\n      jump\t// in\n    tag_102:\n        /* \"#utility.yul\":3641:3715   */\n      swap2\n      pop\n        /* \"#utility.yul\":3724:3817   */\n      tag_103\n        /* \"#utility.yul\":3813:3816   */\n      dup3\n        /* \"#utility.yul\":3724:3817   */\n      tag_57\n      jump\t// in\n    tag_103:\n        /* \"#utility.yul\":3842:3844   */\n      0x20\n        /* \"#utility.yul\":3837:3840   */\n      dup3\n        /* \"#utility.yul\":3833:3845   */\n      add\n        /* \"#utility.yul\":3826:3845   */\n      swap1\n      pop\n        /* \"#utility.yul\":3485:3851   */\n      swap2\n      swap1\n      pop\n      jump\t// out\n        /* \"#utility.yul\":3857:4276   */\n    tag_33:\n        /* \"#utility.yul\":4023:4027   */\n      0x00\n        /* \"#utility.yul\":4061:4063   */\n      0x20\n        /* \"#utility.yul\":4050:4059   */\n      dup3\n        /* \"#utility.yul\":4046:4064   */\n      add\n        /* \"#utility.yul\":4038:4064   */\n      swap1\n      pop\n        /* \"#utility.yul\":4110:4119   */\n      dup2\n        /* \"#utility.yul\":4104:4108   */\n      dup2\n        /* \"#utility.yul\":4100:4120   */\n      sub\n        /* \"#utility.yul\":4096:4097   */\n      0x00\n        /* \"#utility.yul\":4085:4094   */\n      dup4\n        /* \"#utility.yul\":4081:4098   */\n      add\n        /* \"#utility.yul\":4074:4121   */\n      mstore\n        /* \"#utility.yul\":4138:4269   */\n      tag_105\n        /* \"#utility.yul\":4264:4268   */\n      dup2\n        /* \"#utility.yul\":4138:4269   */\n      tag_58\n      jump\t// in\n    tag_105:\n        /* \"#utility.yul\":4130:4269   */\n      swap1\n      pop\n        /* \"#utility.yul\":3857:4276   */\n      swap2\n      swap1\n      pop\n      jump\t// out\n\n    auxdata: 0xa2646970667358221220233290471fb0dcdc1ad6a3c032a353eace2df98b7a16d6c249a36c40213a7c4664736f6c634300081e0033\n}\n",
    "bytecode": {
      "linkReferences": {},
      "object": "6080604052348015600e575f5ffd5b50335f5f6101000a81548173ffffffffffffffffffffffffffffffffffffffff021916908373ffffffffffffffffffffffffffffffffffffffff1602179055506106d88061005b5f395ff3fe608060405234801561000f575f5ffd5b5060043610610055575f3560e01c80634886395a146100595780634d9648a7146100755780638da5cb5b1461009157806395a8c58d146100af57806399374642146100df575b5f5ffd5b610073600480360381019061006e919061053e565b61010f565b005b61008f600480360381019061008a919061053e565b6102d9565b005b61009961040e565b6040516100a6919061058b565b60405180910390f35b6100c960048036038101906100c4919061053e565b610432565b6040516100d691906105be565b60405180910390f35b6100f960048036038101906100f491906105d7565b61048d565b6040516101069190610611565b60405180910390f35b5f5f9054906101000a900473ffffffffffffffffffffffffffffffffffffffff1673ffffffffffffffffffffffffffffffffffffffff163373ffffffffffffffffffffffffffffffffffffffff161461019d576040517f08c379a000000000000000000000000000000000000000000000000000000000815260040161019490610684565b60405180910390fd5b801960015f8473ffffffffffffffffffffffffffffffffffffffff1673ffffffffffffffffffffffffffffffffffffffff1681526020019081526020015f205f9054906101000a900460ff161660015f8473ffffffffffffffffffffffffffffffffffffffff1673ffffffffffffffffffffffffffffffffffffffff1681526020019081526020015f205f6101000a81548160ff021916908360ff1602179055508173ffffffffffffffffffffffffffffffffffffffff167fdc7fc04b1d5014248577eb00b7b6adc022750f3c9bff0f466ad8fb80568afa7960015f8573ffffffffffffffffffffffffffffffffffffffff1673ffffffffffffffffffffffffffffffffffffffff1681526020019081526020015f205f9054906101000a900460ff166040516102cd9190610611565b60405180910390a25050565b5f5f9054906101000a900473ffffffffffffffffffffffffffffffffffffffff1673ffffffffffffffffffffffffffffffffffffffff163373ffffffffffffffffffffffffffffffffffffffff1614610367576040517f08c379a000000000000000000000000000000000000000000000000000000000815260040161035e90610684565b60405180910390fd5b8060015f8473ffffffffffffffffffffffffffffffffffffffff1673ffffffffffffffffffffffffffffffffffffffff1681526020019081526020015f205f6101000a81548160ff021916908360ff1602179055508173ffffffffffffffffffffffffffffffffffffffff167fdc7fc04b1d5014248577eb00b7b6adc022750f3c9bff0f466ad8fb80568afa79826040516104029190610611565b60405180910390a25050565b5f5f9054906101000a900473ffffffffffffffffffffffffffffffffffffffff1681565b5f5f8260015f8673ffffffffffffffffffffffffffffffffffffffff1673ffffffffffffffffffffffffffffffffffffffff1681526020019081526020015f205f9054906101000a900460ff161660ff161415905092915050565b6001602052805f5260405f205f915054906101000a900460ff1681565b5f5ffd5b5f73ffffffffffffffffffffffffffffffffffffffff82169050919050565b5f6104d7826104ae565b9050919050565b6104e7816104cd565b81146104f1575f5ffd5b50565b5f81359050610502816104de565b92915050565b5f60ff82169050919050565b61051d81610508565b8114610527575f5ffd5b50565b5f8135905061053881610514565b92915050565b5f5f60408385031215610554576105536104aa565b5b5f610561858286016104f4565b92505060206105728582860161052a565b9150509250929050565b610585816104cd565b82525050565b5f60208201905061059e5f83018461057c565b92915050565b5f8115159050919050565b6105b8816105a4565b82525050565b5f6020820190506105d15f8301846105af565b92915050565b5f602082840312156105ec576105eb6104aa565b5b5f6105f9848285016104f4565b91505092915050565b61060b81610508565b82525050565b5f6020820190506106245f830184610602565b92915050565b5f82825260208201905092915050565b7f52656769737465726564576f726b65723a206f6e6c79206f776e6572000000005f82015250565b5f61066e601c8361062a565b91506106798261063a565b602082019050919050565b5f6020820190508181035f83015261069b81610662565b905091905056fea2646970667358221220233290471fb0dcdc1ad6a3c032a353eace2df98b7a16d6c249a36c40213a7c4664736f6c634300081e0033",
      "opcodes": "PUSH1 0x80 PUSH1 0x40 MSTORE CALLVALUE DUP1 ISZERO PUSH1 0xE JUMPI PUSH0 PUSH0 REVERT JUMPDEST POP CALLER PUSH0 PUSH0 PUSH2 0x100 EXP DUP2 SLOAD DUP2 PUSH20 0xFFFFFFFFFFFFFFFFFFFFFFFFFFFFFFFFFFFFFFFF MUL NOT AND SWAP1 DUP4 PUSH20 0xFFFFFFFFFFFFFFFFFFFFFFFFFFFFFFFFFFFFFFFF AND MUL OR SWAP1 SSTORE POP PUSH2 0x6D8 DUP1 PUSH2 0x5B PUSH0 CODECOPY PUSH0 RETURN INVALID PUSH1 0x80 PUSH1 0x40 MSTORE CALLVALUE DUP1 ISZERO PUSH2 0xF JUMPI PUSH0 PUSH0 REVERT JUMPDEST POP PUSH1 0x4 CALLDATASIZE LT PUSH2 0x55 JUMPI PUSH0 CALLDATALOAD PUSH1 0xE0 SHR DUP1 PUSH4 0x4886395A EQ PUSH2 0x59 JUMPI DUP1 PUSH4 0x4D9648A7 EQ PUSH2 0x75 JUMPI DUP1 PUSH4 0x8DA5CB5B EQ PUSH2 0x91 JUMPI DUP1 PUSH4 0x95A8C58D EQ PUSH2 0xAF JUMPI DUP1 PUSH4 0x99374642 EQ PUSH2 0xDF JUMPI JUMPDEST PUSH0 PUSH0 REVERT JUMPDEST PUSH2 0x73 PUSH1 0x4 DUP1 CALLDATASIZE SUB DUP2 ADD SWAP1 PUSH2 0x6E SWAP2 SWAP1 PUSH2 0x53E JUMP JUMPDEST PUSH2 0x10F JUMP JUMPDEST STOP JUMPDEST PUSH2 0x8F PUSH1 0x4 DUP1 CALLDATASIZE SUB DUP2 ADD SWAP1 PUSH2 0x8A SWAP2 SWAP1 PUSH2 0x53E JUMP JUMPDEST PUSH2 0x2D9 JUMP JUMPDEST STOP JUMPDEST PUSH2 0x99 PUSH2 0x40E JUMP JUMPDEST PUSH1 0x40 MLOAD PUSH2 0xA6 SWAP2 SWAP1 PUSH2 0x58B JUMP JUMPDEST PUSH1 0x40 MLOAD DUP1 SWAP2 SUB SWAP1 RETURN JUMPDEST PUSH2 0xC9 PUSH1 0x4 DUP1 CALLDATASIZE SUB DUP2 ADD SWAP1 PUSH2 0xC4 SWAP2 SWAP1 PUSH2 0x53E JUMP JUMPDEST PUSH2 0x432 JUMP JUMPDEST PUSH1 0x40 MLOAD PUSH2 0xD6 SWAP2 SWAP1 PUSH2 0x5BE JUMP JUMPDEST PUSH1 0x40 MLOAD DUP1 SWAP2 SUB SWAP1 RETURN JUMPDEST PUSH2 0xF9 PUSH1 0x4 DUP1 CALLDATASIZE SUB DUP2 ADD SWAP1 PUSH2 0xF4 SWAP2 SWAP1 PUSH2 0x5D7 JUMP JUMPDEST PUSH2 0x48D JUMP JUMPDEST PUSH1 0x40 MLOAD PUSH2 0x106 SWAP2 SWAP1 PUSH2 0x611 JUMP JUMPDEST PUSH1 0x40 MLOAD DUP1 SWAP2 SUB SWAP1 RETURN JUMPDEST PUSH0 PUSH0 SWAP1 SLOAD SWAP1 PUSH2 0x100 EXP SWAP1 DIV PUSH20 0xFFFFFFFFFFFFFFFFFFFFFFFFFFFFFFFFFFFFFFFF AND PUSH20 0xFFFFFFFFFFFFFFFFFFFFFFFFFFFFFFFFFFFFFFFF AND CALLER PUSH20 0xFFFFFFFFFFFFFFFFFFFFFFFFFFFFFFFFFFFFFFFF AND EQ PUSH2 0x19D JUMPI PUSH1 0x40 MLOAD PUSH32 0x8C379A000000000000000000000000000000000000000000000000000000000 DUP2 MSTORE PUSH1 0x4 ADD PUSH2 0x194 SWAP1 PUSH2 0x684 JUMP JUMPDEST PUSH1 0x40 MLOAD DUP1 SWAP2 SUB SWAP1 REVERT JUMPDEST DUP1 NOT PUSH1 0x1 PUSH0 DUP5 PUSH20 0xFFFFFFFFFFFFFFFFFFFFFFFFFFFFFFFFFFFFFFFF AND PUSH20 0xFFFFFFFFFFFFFFFFFFFFFFFFFFFFFFFFFFFFFFFF AND DUP2 MSTORE PUSH1 0x20 ADD SWAP1 DUP2 MSTORE PUSH1 0x20 ADD PUSH0 KECCAK256 PUSH0 SWAP1 SLOAD SWAP1 PUSH2 0x100 EXP SWAP1 DIV PUSH1 0xFF AND AND PUSH1 0x1 PUSH0 DUP5 PUSH20 0xFFFFFFFFFFFFFFFFFFFFFFFFFFFFFFFFFFFFFFFF AND PUSH20 0xFFFFFFFFFFFFFFFFFFFFFFFFFFFFFFFFFFFFFFFF AND DUP2 MSTORE PUSH1 0x20 ADD SWAP1 DUP2 MSTORE PUSH1 0x20 ADD PUSH0 KECCAK256 PUSH0 PUSH2 0x100 EXP DUP2 SLOAD DUP2 PUSH1 0xFF MUL NOT AND SWAP1 DUP4 PUSH1 0xFF AND MUL OR SWAP1 SSTORE POP DUP2 PUSH20 0xFFFFFFFFFFFFFFFFFFFFFFFFFFFFFFFFFFFFFFFF AND PUSH32 0xDC7FC04B1D5014248577EB00B7B6ADC022750F3C9BFF0F466AD8FB80568AFA79 PUSH1 0x1 PUSH0 DUP6 PUSH20 0xFFFFFFFFFFFFFFFFFFFFFFFFFFFFFFFFFFFFFFFF AND PUSH20 0xFFFFFFFFFFFFFFFFFFFFFFFFFFFFFFFFFFFFFFFF AND DUP2 MSTORE PUSH1 0x20 ADD SWAP1 DUP2 MSTORE PUSH1 0x20 ADD PUSH0 KECCAK256 PUSH0 SWAP1 SLOAD SWAP1 PUSH2 0x100 EXP SWAP1 DIV PUSH1 0xFF AND PUSH1 0x40 MLOAD PUSH2 0x2CD SWAP2 SWAP1 PUSH2 0x611 JUMP JUMPDEST PUSH1 0x40 MLOAD DUP1 SWAP2 SUB SWAP1 LOG2 POP POP JUMP JUMPDEST PUSH0 PUSH0 SWAP1 SLOAD SWAP1 PUSH2 0x100 EXP SWAP1 DIV PUSH20 0xFFFFFFFFFFFFFFFFFFFFFFFFFFFFFFFFFFFFFFFF AND PUSH20 0xFFFFFFFFFFFFFFFFFFFFFFFFFFFFFFFFFFFFFFFF AND CALLER PUSH20 0xFFFFFFFFFFFFFFFFFFFFFFFFFFFFFFFFFFFFFFFF AND EQ PUSH2 0x367 JUMPI PUSH1 0x40 MLOAD PUSH32 0x8C379A000000000000000000000000000000000000000000000000000000000 DUP2 MSTORE PUSH1 0x4 ADD PUSH2 0x35E SWAP1 PUSH2 0x684 JUMP JUMPDEST PUSH1 0x40 MLOAD DUP1 SWAP2 SUB SWAP1 REVERT JUMPDEST DUP1 PUSH1 0x1 PUSH0 DUP5 PUSH20 0xFFFFFFFFFFFFFFFFFFFFFFFFFFFFFFFFFFFFFFFF AND PUSH20 0xFFFFFFFFFFFFFFFFFFFFFFFFFFFFFFFFFFFFFFFF AND DUP2 MSTORE PUSH1 0x20 ADD SWAP1 DUP2 MSTORE PUSH1 0x20 ADD PUSH0 KECCAK256 PUSH0 PUSH2 0x100 EXP DUP2 SLOAD DUP2 PUSH1 0xFF MUL NOT AND SWAP1 DUP4 PUSH1 0xFF AND MUL OR SWAP1 SSTORE POP DUP2 PUSH20 0xFFFFFFFFFFFFFFFFFFFFFFFFFFFFFFFFFFFFFFFF AND PUSH32 0xDC7FC04B1D5014248577EB00B7B6ADC022750F3C9BFF0F466AD8FB80568AFA79 DUP3 PUSH1 0x40 MLOAD PUSH2 0x402 SWAP2 SWAP1 PUSH2 0x611 JUMP JUMPDEST PUSH1 0x40 MLOAD DUP1 SWAP2 SUB SWAP1 LOG2 POP POP JUMP JUMPDEST PUSH0 PUSH0 SWAP1 SLOAD SWAP1 PUSH2 0x100 EXP SWAP1 DIV PUSH20 0xFFFFFFFFFFFFFFFFFFFFFFFFFFFFFFFFFFFFFFFF AND DUP2 JUMP JUMPDEST PUSH0 PUSH0 DUP3 PUSH1 0x1 PUSH0 DUP7 PUSH20 0xFFFFFFFFFFFFFFFFFFFFFFFFFFFFFFFFFFFFFFFF AND PUSH20 0xFFFFFFFFFFFFFFFFFFFFFFFFFFFFFFFFFFFFFFFF AND DUP2 MSTORE PUSH1 0x20 ADD SWAP1 DUP2 MSTORE PUSH1 0x20 ADD PUSH0 KECCAK256 PUSH0 SWAP1 SLOAD SWAP1 PUSH2 0x100 EXP SWAP1 DIV PUSH1 0xFF AND AND PUSH1 0xFF AND EQ ISZERO SWAP1 POP SWAP3 SWAP2 POP POP JUMP JUMPDEST PUSH1 0x1 PUSH1 0x20 MSTORE DUP1 PUSH0 MSTORE PUSH1 0x40 PUSH0 KECCAK256 PUSH0 SWAP2 POP SLOAD SWAP1 PUSH2 0x100 EXP SWAP1 DIV PUSH1 0xFF AND DUP2 JUMP JUMPDEST PUSH0 PUSH0 REVERT JUMPDEST PUSH0 PUSH20 0xFFFFFFFFFFFFFFFFFFFFFFFFFFFFFFFFFFFFFFFF DUP3 AND SWAP1 POP SWAP2 SWAP1 POP JUMP JUMPDEST PUSH0 PUSH2 0x4D7 DUP3 PUSH2 0x4AE JUMP JUMPDEST SWAP1 POP SWAP2 SWAP1 POP JUMP JUMPDEST PUSH2 0x4E7 DUP2 PUSH2 0x4CD JUMP JUMPDEST DUP2 EQ PUSH2 0x4F1 JUMPI PUSH0 PUSH0 REVERT JUMPDEST POP JUMP JUMPDEST PUSH0 DUP2 CALLDATALOAD SWAP1 POP PUSH2 0x502 DUP2 PUSH2 0x4DE JUMP JUMPDEST SWAP3 SWAP2 POP POP JUMP JUMPDEST PUSH0 PUSH1 0xFF DUP3 AND SWAP1 POP SWAP2 SWAP1 POP JUMP JUMPDEST PUSH2 0x51D DUP2 PUSH2 0x508 JUMP JUMPDEST DUP2 EQ PUSH2 0x527 JUMPI PUSH0 PUSH0 REVERT JUMPDEST POP JUMP JUMPDEST PUSH0 DUP2 CALLDATALOAD SWAP1 POP PUSH2 0x538 DUP2 PUSH2 0x514 JUMP JUMPDEST SWAP3 SWAP2 POP POP JUMP JUMPDEST PUSH0 PUSH0 PUSH1 0x40 DUP4 DUP6 SUB SLT ISZERO PUSH2 0x554 JUMPI PUSH2 0x553 PUSH2 0x4AA JUMP JUMPDEST JUMPDEST PUSH0 PUSH2 0x561 DUP6 DUP3 DUP7 ADD PUSH2 0x4F4 JUMP JUMPDEST SWAP3 POP POP PUSH1 0x20 PUSH2 0x572 DUP6 DUP3 DUP7 ADD PUSH2 0x52A JUMP JUMPDEST SWAP2 POP POP SWAP3 POP SWAP3 SWAP1 POP JUMP JUMPDEST PUSH2 0x585 DUP2 PUSH2 0x4CD JUMP JUMPDEST DUP3 MSTORE POP POP JUMP JUMPDEST PUSH0 PUSH1 0x20 DUP3 ADD SWAP1 POP PUSH2 0x59E PUSH0 DUP4 ADD DUP5 PUSH2 0x57C JUMP JUMPDEST SWAP3 SWAP2 POP POP JUMP JUMPDEST PUSH0 DUP2 ISZERO ISZERO SWAP1 POP SWAP2 SWAP1 POP JUMP JUMPDEST PUSH2 0x5B8 DUP2 PUSH2 0x5A4 JUMP JUMPDEST DUP3 MSTORE POP POP JUMP JUMPDEST PUSH0 PUSH1 0x20 DUP3 ADD SWAP1 POP PUSH2 0x5D1 PUSH0 DUP4 ADD DUP5 PUSH2 0x5AF JUMP JUMPDEST SWAP3 SWAP2 POP POP JUMP JUMPDEST PUSH0 PUSH1 0x20 DUP3 DUP5 SUB SLT ISZERO PUSH2 0x5EC JUMPI PUSH2 0x5EB PUSH2 0x4AA JUMP JUMPDEST JUMPDEST PUSH0 PUSH2 0x5F9 DUP5 DUP3 DUP6 ADD PUSH2 0x4F4 JUMP JUMPDEST SWAP2 POP POP SWAP3 SWAP2 POP POP JUMP JUMPDEST PUSH2 0x60B DUP2 PUSH2 0x508 JUMP JUMPDEST DUP3 MSTORE POP POP JUMP JUMPDEST PUSH0 PUSH1 0x20 DUP3 ADD SWAP1 POP PUSH2 0x624 PUSH0 DUP4 ADD DUP5 PUSH2 0x602 JUMP JUMPDEST SWAP3 SWAP2 POP POP JUMP JUMPDEST PUSH0 DUP3 DUP3 MSTORE PUSH1 0x20 DUP3 ADD SWAP1 POP SWAP3 SWAP2 POP POP JUMP JUMPDEST PUSH32 0x52656769737465726564576F726B65723A206F6E6C79206F776E657200000000 PUSH0 DUP3 ADD MSTORE POP JUMP JUMPDEST PUSH0 PUSH2 0x66E PUSH1 0x1C DUP4 PUSH2 0x62A JUMP JUMPDEST SWAP2 POP PUSH2 0x679 DUP3 PUSH2 0x63A JUMP JUMPDEST PUSH1 0x20 DUP3 ADD SWAP1 POP SWAP2 SWAP1 POP JUMP JUMPDEST PUSH0 PUSH1 0x20 DUP3 ADD SWAP1 POP DUP2 DUP2 SUB PUSH0 DUP4 ADD MSTORE PUSH2 0x69B DUP2 PUSH2 0x662 JUMP JUMPDEST SWAP1 POP SWAP2 SWAP1 POP JUMP INVALID LOG2 PUSH5 0x6970667358 0x22 SLT KECCAK256 0x23 ORIGIN SWAP1 SELFBALANCE 0x1F 0xB0 0xDC 0xDC BYTE 0xD6 LOG3 0xC0 ORIGIN LOG3 MSTORE8 0xEA 0xCE 0x2D EXTDELEGATECALL DUP12 PUSH27 0x16D6C249A36C40213A7C4664736F6C634300081E00330000000000 "
    },
    "gasEstimates": {
      "creation": {
        "codeDepositCost": "350400",
        "executionCost": "24648",
        "totalCost": "375048"
      },
      "external": {
        "hasRole(address,uint8)": "3110",
        "owner()": "2529",
        "removeWorkerRole(address,uint8)": "infinite",
        "roles(address)": "2899",
        "setWorkerRole(address,uint8)": "infinite"
      }
    },
    "methodIdentifiers": {
      "hasRole(address,uint8)": "95a8c58d",
      "owner()": "8da5cb5b",
      "removeWorkerRole(address,uint8)": "4886395a",
      "roles(address)": "99374642",
      "setWorkerRole(address,uint8)": "4d9648a7"
    }
  },
  "storageLayout": {
    "storage": [
      {
        "astId": 486,
        "contract": "RegisteredWorker.sol:RegisteredWorker",
        "label": "owner",
        "offset": 0,
        "slot": "0",
        "type": "t_address"
      },
      {
        "astId": 490,
        "contract": "RegisteredWorker.sol:RegisteredWorker",
        "label": "roles",
        "offset": 0,
        "slot": "1",
        "type": "t_mapping(t_address,t_uint8)"
      }
    ],
    "types": {
      "t_address": {
        "encoding": "inplace",
        "label": "address",
        "numberOfBytes": "20"
      },
      "t_mapping(t_address,t_uint8)": {
        "encoding": "mapping",
        "key": "t_address",
        "label": "mapping(address => uint8)",
        "numberOfBytes": "32",
        "value": "t_uint8"
      },
      "t_uint8": {
        "encoding": "inplace",
        "label": "uint8",
        "numberOfBytes": "1"
      }
    }
  },
  "transientStorageLayout": {
    "storage": [],
    "types": null
  },
  "userdoc": {
    "kind": "user",
    "methods": {
      "hasRole(address,uint8)": {
        "notice": "Helper to check a single role bit."
      },
      "removeWorkerRole(address,uint8)": {
        "notice": "Remove specific role bits from a worker."
      },
      "setWorkerRole(address,uint8)": {
        "notice": "Set roles for a worker. Provide combined bits if multiple roles are needed."
      }
    },
    "notice": "RegisteredWorker - Simple owner-controlled role registry - Roles are stored as a uint8 bitmask so one address can hold multiple roles Collector = 1, Middleman = 2, Lab = 4, Manufacturer = 8",
    "version": 1
  }
}